:020000041000EA
:1000000000B5324B212058609868022188439860DF
:10001000D860186158612E4B002199600221596106
:100020000121F02299502B49196001219960352056
:1000300000F044F80222904214D00621196600F024
:1000400034F8196E01211966002018661A6600F04E
:100050002CF8196E196E196E052000F02FF8012189
:100060000842F9D1002199601B49196000215960AB
:100070001A491B48016001219960EB211966A021F2
:10008000196600F012F800219960164914480160C1
:100090000121996001BC002800D000471248134993
:1000A000086003C880F30888084703B5996A0420EC
:1000B0000142FBD001200142F8D103BD02B5186610
:1000C0001866FFF7F2FF186E186E02BD00000240BE
:1000D000000000180000070000035F00212200005C
:1000E000F4000018222000A00001001008ED00E03C
:1000F00000000000000000000000000074B24E7A12
:1001000000200420F7010010C3010010C5010010F9
:10011000C1010010C1010010C1010010C101001097
:10012000C1010010C1010010C1010010C701001081
:10013000C1010010C1010010C9010010CB01001065
:10014000CD010010CD010010CD010010CD01001037
:10015000CD010010CD010010CD010010CD01001027
:10016000CD010010CD010010CD010010CD01001017
:10017000CD010010CD010010CD010010CD01001007
:10018000CD010010CD010010CD010010CD010010F7
:10019000CD010010CD010010CD010010CD010010E7
:1001A000CD010010CD010010CD010010CD010010D7
:1001B000CD010010CD010010CD010010CD010010C7
:1001C00000BE00BE00BE00BE00BE00BE00F04BF888
:1001D000103800BEF2EB8871DC060610FC06061033
:1001E0003402001090A31AE700202149086006C8D5
:1001F00081F3088810471F48006800282FD10DA4FC
:100200000ECC002902D000F012F8F9E71A491B4A77
:10021000002000E001C19142FCD1194988471949E9
:1002200088471949884700BEFDE701C901C29A42C3
:10023000FBD37047FC060610C0000020642200209B
:10024000A02806100000042000000420A0280610AA
:1002500000100420001004200000000070470B482C
:100260000FF010FC0047EFF30580C0B270470000AC
:1002700008ED00E0000000D070220020F4520320BE
:1002800041DE00100D03001069DF0010575600001A
:1002900006005250ABB36053A847051006005250F9
:1002A000861C0302B8470510060052505422A29D36
:1002B000C447051005005250DE65F468A0280610FA
:1002C000F8B5C04610B5064C2378002B07D1054B76
:1002D000002B02D0044800E000BF0123237010BDB2
:1002E000782700200000000078420510044B10B56C
:1002F000002B03D00349044800E000BF10BDC046F6
:10030000000000007C2700207842051070B51920FD
:100310000CF08CF8D02380221B0692045A6211F054
:1003200077FC00F04BF807F0C9FE09F089FC07F0F4
:1003300077FF02F031FC00F03DF90BF043F80022AA
:100340000524144B1A7007F0B7FA134D013C210035
:10035000280011F051FCFA2080000CF0D5FE002C92
:10036000F4D10A2011F0B4FA012200210B480CF05C
:1003700039FB0B4814F064F901220A4B0A4C1A703D
:100380002378012BFCD109F017FE2378012BFAD03A
:10039000F6E7C046D652032078420510C851032024
:1003A000FDA10010D5520320DA52032010B50248F7
:1003B00014F06EFC10BDC046A8300320092370B5B0
:1003C00086B0059304330493023B0393013B0293ED
:1003D000023B324D324C0193324B220032493348BA
:1003E00000932B0006F026FF142006F01FFFFA20D2
:1003F00080000CF089FE2E4E21003200280007F00C
:1004000031F93378682B08D02A4C200011F0B0FA6B
:10041000FA2080000CF078FEF7E773783D2BF3D1DB
:1004200001222100280007F041F9234E320021006B
:10043000280007F075F93378002BF7D1012221004D
:10044000280006F0F1FF0121200006F0CFFF032174
:10045000200006F061FF0321280007F08BF813212C
:10046000200007F0CBF91221200007F005FA002147
:10047000200007F0E3F90321200007F06DF90221C5
:10048000200007F085F95521200006F063FF1821B0
:10049000280007F009F806B070BDC046F816032022
:1004A0009828002040420F00D4150020CC150020D1
:1004B000845203208C420510EF520320F0B5C6464B
:1004C000334C344D344E22002900300000B507F083
:1004D000DBF86378DB439B0720D023781B0702D42B
:1004E00080BCB846F0BD2D4C06220021200011F042
:1004F000BDF82100300007F097F80023E05E06F019
:1005000001FF274D28600223E05E06F0FBFE6860D5
:100510000423E05E06F0F6FEA860E1E7214B062228
:1005200098461800002111F0A1F81F4F0622002163
:10053000380011F09BF84146280007F057F83900C1
:10054000280007F035F843460020185E06F0C6FE86
:100550004346164D28600220185E06F0BFFE434653
:1005600068600420185E06F0B9FEA8600023F85EFB
:1005700006F0BEFE0E4D28600223F85E06F0B8FEBF
:1005800068600423F85E06F0B3FEA860A5E7C046E5
:10059000BC47032098280020F81603202C3703209E
:1005A000983C03201C37032024370320A035032068
:1005B000C0350320F0B5C64600B511F029FB24492B
:1005C00024480DF075FB03211A200BF0FFFE0321D8
:1005D0001B200BF0FBFE002201211A200BF00EFF66
:1005E000002201211B200BF009FF1B480CF08CFDA1
:1005F0001A4C1B4E23781B4DDB070ED41A4B0127D8
:100600009846210030880BF0E5FB434628701868B7
:100610000CF07AFD23781F42F3D030880BF0B8F944
:100620000221287030880BF009FB142128703088D3
:100630000BF03CFA1421287030880BF0A5FB2870D1
:1006400030880BF009FA287080BCB846F0BDC0466F
:10065000801A0600EC160020B80B0000F0520320B0
:10066000DC150020DD520320E0150020F0B55746D0
:10067000DE464E464546E0B58BB0089192461900DD
:1006800005900993DA1703238C46134063449B10AB
:100690009B009846002B00DC90E05246159B0024FE
:1006A0009B000193149B9B1A159A9B1A089A9B0016
:1006B00002935368126819019446049106925146B8
:1006C0009A00039252468D000021013A920007924F
:1006D000002289465900DE00CB189B009B46130080
:1006E000424665440092019A94469C44039B1A1921
:1006F0009F195346002B1EDD069B0598191963466A
:10070000804600989B004344804600940868186027
:100710000098081A845804315C6084599C60C05960
:10072000D86010338D42F1D1434607990093634658
:100730008C4604339C440421029B5A4463448C46F7
:100740001400049A3E00E1449446009A5E446544D5
:100750004A45C8DC1A00009B9846099B434526DDA4
:100760001499159C089B0D1B514609CB6D1A002945
:100770001DDD41469E004B439B00C01853469C0024
:10078000059B47469C46099BAB469846159B994658
:1007900000234A4491006144C558CD5004339C4223
:1007A000FAD1524401375A448019B845F0D10BB000
:1007B000F0BCBB46B246A946A046F0BD0022CCE73D
:1007C000F0B54746CE4680B51F00002B1DDD002A40
:1007D0001BDD9300C0180B68002498464B689100FD
:1007E000D200494252428C4691469B0061464518D0
:1007F0002900A20042441668D21840C18142FAD1B1
:100800004A460134A81AA742F0D1C0BCB946B04646
:10081000F0BDC046F0B5DE464E465746454600237D
:10082000E0B5136083688BB0049305239B460023D7
:100830005E46099202680293013B0790069103927B
:1008400008930523049C9B1B5C439846029BA400D1
:100850009C46039B64449C46644423685D00636833
:100860006D085F007F08291C381C10F075FC0028FB
:1008700000D1CCE03D1C0127731C9A46022B37D9CE
:10088000A368291C5B005B08181C994610F064FCE7
:10089000002801D04D4602275346032B28D0E36899
:1008A000291C5B005B08181C994610F055FC0028B9
:1008B00001D04D4603275346042B19D02369281C29
:1008C0005B005B08191C994610F038FC002801D029
:1008D0004D4604275346062B0AD16469281C640040
:1008E0006408211C10F02AFC002801D00527251CD3
:1008F000069B029A474400219F50281C10F016FCCA
:10090000002800D185E0089B013300D1FEE00623DA
:1009100047469B1B9C46079A05939268574367443A
:100920000492BF000599049B0C009A005C43029B53
:1009300000929C46039BA5001A0065448C46914694
:100940009B46924690463B1D6444A4009944043360
:100950005D445C449A44BB44043310379446984445
:100960003B000027634401935B462968186810F038
:10097000AEFB011C206810F090FB2060012E2DD9E9
:100980004B462868196810F0A2FB011C606810F043
:1009900084FB6060022E21D053462868196810F04D
:1009A00096FB011CA06810F078FBA060032E15D008
:1009B00043462868196810F08AFB011CE06810F0B3
:1009C0006CFBE060052E09D1019B2968186810F0C6
:1009D0007EFB011C206910F060FB2061009B013749
:1009E0009C4665446444BE42BED1029B013E043332
:1009F0000293059B052B00D023E71A00069B5A6142
:100A00000BB0F0BCBB46B246A946A046F0BD0027DD
:100A100032E7474530D0039902988C46BF006744BF
:100A20008446079A3C6892680B5892000C506144C7
:100A30003B608918BB1808681C680C60186089182E
:100A40009B1808681C680C60186089189B18086857
:100A50001C680C60186089189B1808681C680C607A
:100A6000186089189B1818680A6808601A60099A43
:100A700013680093013313604746079B039A9B68F2
:100A80005F4304930623991B43468C46FB189B0047
:100A900067449C58BF00D51928680591211C10F0A7
:100AA00002FB2860012E00D83CE7039B3D1D9C46BD
:100AB00065442868211C10F0F6FA2860022E00D147
:100AC00030E7039B3D009C46083565442868211C9F
:100AD00010F0E9FA2860032E00D123E7039B3D00C4
:100AE0009C460C3565442868211C10F0DCFA28600F
:100AF000042E00D116E7039A3D0094461035654454
:100B00002868211C10F0CFFA28600BE7062347461F
:100B10009B1B9C4605934346079A0893926857434C
:100B200067440492BF00FDE6F0B55746DE464E46E8
:100B30004546E0B599B01493249B8246259C26989F
:100B40005D1C00D1229B651C00D1229C239DEE17C9
:100B500003253540239EB4466544AD10AF000725FC
:100B6000229E0E97AE4335000096149E002E00DCA8
:100B700088E29B001693230110930301D318179367
:100B80006B1EDB0801330391D9015B010F93A300B6
:100B90007C43201880001193131815930023D3462B
:100BA000139108930E9B002B00DCC2E10F9A039B6C
:100BB000944663441293179BD846019300230293F3
:100BC0000298434601000CCB089C5943A44661445B
:100BD000890051180991411C5943614489005118F9
:100BE0000A91811C59436144890051180B91C11C21
:100BF0004B4363449B00D318019E0C93009B34002D
:100C0000002B00DC45E2039B0025994600234C465F
:100C1000AA46AB46A946069504952F1C059507954F
:100C20000D9325683168281C10F051FA594610F0D0
:100C300037FA71688346281C10F049FA514610F0C3
:100C40002FFAB1688246281C10F041FA079910F07B
:100C500027FAF1680790281C10F039FA059910F06E
:100C60001FFA059065683169281C10F030FA391CAC
:100C700010F016FA7169071C281C10F028FA049964
:100C800010F00EFAB1690490281C10F020FA0699B1
:100C900010F006FAF1690690281C10F018FA49467F
:100CA00010F0FEF98146A568316A281C10F00FFA91
:100CB000594610F0F5F9716A8346281C10F007FABE
:100CC000514610F0EDF9B16A8246281C10F0FFF988
:100CD000079910F0E5F9F16A0790281C10F0F7F970
:100CE000059910F0DDF90590E568316B281C10F0CE
:100CF000EEF9391C10F0D4F9716B071C281C10F0A8
:100D0000E6F9049910F0CCF9B16B0490281C10F0AE
:100D1000DEF9069910F0C4F9F16B0690281C10F06A
:100D2000D6F9494610F0BCF981462569316C281C7A
:100D300010F0CDF9594610F0B3F9716C8346281CB8
:100D400010F0C5F9514610F0ABF9B16C8246281C81
:100D500010F0BDF9079910F0A3F9F16C0790281C69
:100D600010F0B5F9059910F09BF905906569316DA2
:100D7000281C10F0ACF9391C10F092F9716D071CA9
:100D8000281C10F0A4F9049910F08AF9B16D0490B0
:100D9000281C10F09CF9069910F082F9F16D06906C
:100DA000281C10F094F9494610F07AF98146A5699B
:100DB000316E281C10F08BF9594610F071F9716EE4
:100DC0008346281C10F083F9514610F069F9B16E82
:100DD0008246281C10F07BF9079910F061F9F16E3A
:100DE0000790281C10F073F9059910F059F9059037
:100DF000E569316F281C10F06AF9391C10F050F9C0
:100E0000716F071C281C10F062F9049910F048F962
:100E1000B16F0490281C10F05AF9069910F040F9AF
:100E2000F16F0690281C10F052F9494610F038F97D
:100E30008146803620340D9B009A08330D939A42E8
:100E400000DDEEE6139B019C9C46051C5946381CB0
:100E5000644410F025F95146071C049810F020F95D
:100E60000799061C069810F01BF905998146281C65
:100E700010F016F9129B051C9A46229A009B9A4282
:100E800030DDAB460493534620CB2168281C9A469C
:100E900010F01DF9011C381C10F002F96168071CE4
:100EA000281C10F014F9011C301C10F0F9F8A1688E
:100EB000061C281C10F00BF9011C484610F0F0F835
:100EC000E1688146281C10F002F9011C584610F018
:100ED000E7F88346049B229A0133103404939A4224
:100EE000D1D1051C311C0A9E306810F0D6F8391C8F
:100EF000099F041C386810F0D0F8291C0C9D38603C
:100F00003460286810F0C9F80B9E4946041C30680C
:100F100010F0C3F81099019A8C46029B624401922A
:100F20000E9A0433306002932C609A4200DD47E64B
:100F3000C3460F9A039B944663440E9A0293239BE5
:100F40009246159D934200DC90E05B465C685346F8
:100F50005C43089B2F009C465B461B6864449C4690
:100F6000009BA4006444002B00DC99E00023039F55
:100F700099463B00A04600262F001C0039682068D7
:100F800010F0A5F8311C10F08BF8061C7968606829
:100F900010F09DF8311C10F083F8061CB968A068A9
:100FA00010F095F8311C10F07BF8061CF968E06829
:100FB00010F08DF8311C10F073F8061C39692069A7
:100FC00010F085F8311C10F06BF8061C7969606927
:100FD00010F07DF8311C10F063F8061CB969A069A7
:100FE00010F075F8311C10F05BF8061CF969E06927
:100FF00010F06DF8311C10F053F8061C2037203427
:1010000008239C46009BE1444B45B7DC44460F9BBC
:10101000EF18029B0193229A009B9A4217DD994692
:101020000023984643464246F958019B985810F0D1
:101030004EF8011C301C10F033F8061C01239C46AE
:101040000333E1449C46229BE0444B45EAD12068AF
:10105000311C10F022F801239C46119BE2449C466F
:10106000239B20606544534500D06EE71699039A90
:101070008C46089B62440392149A013308939A4267
:1010800000D08FE519B0F0BCBB46B246A946A046D9
:10109000F0BD0025039BA9469A462E1C2F1CECE6AA
:1010A000039B00260193B6E7F0B55746DE464E4651
:1010B00045469C24E0B5BDB006AF3C19FB638423D4
:1010C00020609824BA6694225B003C19FB182160CA
:1010D0001C68BA182369FB67A3681360834202DDAA
:1010E0009423FB18186094239821FB187918FA6F41
:1010F0001B680D68534355432268002A00D1DBE288
:101100009B007B668C23FB181A6090220023BA1880
:1011100013606368AA003A66002B00D1ECE28822D3
:10112000BB670023BA181360C84D2B78BFF35B8FE1
:10113000DB0700D4FDE2C64CA4220423BA181360D6
:101140009433FB181B686068002B18DD9C237A1D04
:10115000FB18FF321B6812681900934200DAFFE2A5
:1011600009010EF0E9FC0323C2171340A4221B1847
:101170009B109B00BA181360042B00DAEBE29C234F
:10118000FB181C68002C00DC72E2FB6BFD6F180082
:101190006A425043F86118008021661B7043F8666C
:1011A000180001335A4392007918BA61621E0E602A
:1011B0001100594389008846B96E1B018C46E044F2
:1011C00041467964A90049423961A1007C1CFF3481
:1011D00024685B42A446A42461443964791DFF312C
:1011E0003C1909682468FB606143B962B02183003F
:1011F0005B4279180B600300921B5043DB43AC2227
:101200009B00BA181360C4227B1DFF331B68BA18F9
:101210009B0078611360A022FB6FBA1813609C22B8
:10122000BA181268934202DDA023FB181A609823B3
:10123000FB181B68002B00DC9FE1A023FB181A6839
:10124000002A00DC99E19823FB181B68396C3B6588
:10125000A423FB181B6853439B00FB62BB6FFB641A
:101260009300CB1A79697B628C46FB6EB82163448C
:101270007B63002379180B60D021BB643B679C33F0
:10128000FB181B6879189B1ABB6013007960032157
:10129000013B043A8B43D31A3B63A422BA183B6D3B
:1012A0001268FB65934200DDFA65B822BA1812682D
:1012B000FB6D9446C8226344BA1813609C237A6A73
:1012C000FB1894461B6884227B673B6FBA189B000F
:1012D00063443B627B6B7B657B6CBB65A023FB1827
:1012E0001B6813608423B422FB181B68BA181360B0
:1012F000042B03DDB4220423BA1813608423FB18E3
:101300001B68002B00DCA5E0B422C820B824BA1862
:101310007B6F116838183C19006824685A1ABA6340
:10132000A04200DC9CE094464E1EB96E9B008A46AB
:10133000043B9B467B6D791C63449B00FF3109682D
:101340009A44BB6C63448C46A8219B006344791883
:101350000B609300C0225B42BA181360BC22BB6DC5
:10136000BA181360BC23FE20FB181B68800519689F
:101370000FF099FECC23FB181860A823FB181C68FB
:10138000B823FB181B68B1461E00C023FB181B685E
:101390005A469846A04443469958CC23FB181868EF
:1013A0000FF095FE43465A4698504B46051C002BBD
:1013B00022DD534619680FF08AFE011C20680FF0E9
:1013C0006CFE4B462060012B16D05346281C5968F2
:1013D0000FF07DFE011C60680FF05FFE4B46606001
:1013E000022B09D05346281C99680FF070FE011C8F
:1013F000A0680FF052FEA060C423FB181B680136E2
:101400009C46C823FB181B6864449E42BDD1AC2295
:10141000BC23BA181268FB189446BC221B68BA1881
:10142000634413600423B0225B429C46BA181268DE
:10143000E3449446B4224E46BA181268731EE2443E
:10144000961BB2420CDD1E008CE7C046F81A032042
:10145000BC300320B422BA187B6F12689B1ABB639E
:101460008423B422BD6BBA18AC46FB1810681B6805
:101470007A1CFF3212681C1A3B6F796863449446E9
:101480009B0063440B607B1DFF331B6880464B60F1
:10149000A0230194FB181E6802000096FB6DF86CF7
:1014A0009B4689468246FFF7E1F8002C2ADD2B0097
:1014B000BA6849469446FD6BBA6E6B438C20634410
:1014C00094464D604D469B003818006863440B609D
:1014D000424623008146FFF773F929007B1DFF3345
:1014E0003D6A1B680D604B600D005B4603964646E7
:1014F0000193524623004946280004940296009620
:10150000FFF712FB84238422F968FB188C46B02174
:101510001B68BA18043B13607A6F7918043A09689B
:101520007A67BA6D62448C46BA657A6D62447A65B0
:101530003A6B934200D0D5E6A422B823BA181268B9
:10154000B8219446FB181B68791863440B60396D09
:101550008A1AF96A3A658C46FA6CB96A62448C4612
:10156000FA643A6F62443A67BA6C6244BA64982289
:10157000BA1812689A4200DD8FE680239C22FB187D
:101580001B68BA181360002B72DD9423FB181B68CC
:10159000002B00DCFEE78023BA6EFB1892461D6824
:1015A000FB6E00249B009A44D023FE1800239B4628
:1015B000013B99469423FB181B68A8469D4200DD19
:1015C0009846CC22A300BA181360FA6B8C20726084
:1015D000A0225344BA1838183100126800683360EA
:1015E0004346FFF7EDF87A1CCC23FF321268FB1854
:1015F00094461B688C21634433607B1DFF331B685A
:10160000791873605B4604934B46039302939823C7
:10161000FB181B6830000193A023FB181B68009384
:10162000BA6F43460968FFF77FFA9423FB181B68DB
:101630009C46ED1A8023FB181B686444A342B9DC66
:10164000FA69FB6E9446BA6963449446FB663A694C
:101650007B6C634494467B643B6CFA6F63443B64ED
:101660008023FB181B689B1A8022BA181360D2E5EE
:1016700080233A6E9B029A4208D98823FB181B6884
:10168000002B03D0043B18680FF0D8FF80237A6E3C
:101690009B029A4208D99023FB181B68002B03D0A9
:1016A000043B18680FF0CAFFBD4637B0F0BCBB461C
:1016B000B246A946A046F0BD9A0080237A669B02F6
:1016C0009A424FD813006A461633DB08DB00D31A60
:1016D0009D4627200F23684498438133FB181860E8
:1016E00090238C22FB181B68BA1813606368AA0049
:1016F0003A66002B00D012E580239B029A424FD815
:1017000013006A461633DB08DB00D31A9D462720F8
:101710000F23684498437933FB1818608823FB181B
:101720001B682D4DBB672B78BFF35B8FDB0700D5A4
:1017300001E5280012F0AAFF284C002800D1FBE4A4
:101740008023DB01236080231B0328006360A360E8
:1017500012F0B8FFF0E4A4220423BA1813600EE5D7
:101760001100FDE4100010300FF02AFF9023FB1849
:10177000021E1860B4D00F23010099430B00102102
:101780008C468C209C446146DA60236838180160DE
:1017900058425841902340420140FB181960B8E478
:1017A000100010300FF00CFF8823FB181860002881
:1017B000B4D00F23010099430B0010218C46D86050
:1017C00060689C4443425841614688234042B9675F
:1017D000FB1801401960A7E4F81A0320BC3003206D
:1017E000F0B55746DE464E464546E0B5B3B006AFC7
:1017F0008C24BB62E023FA6288223C19FB1821602A
:101800001C68BA182369786513608422A368BA1823
:101810001360834202DD8423FB181860842388222E
:101820008C21FB18BA18791812681B680D6853438D
:1018300055432268002A00D150E29B00FA678022BB
:101840003B650023BA1813606368AA00FA64002B92
:1018500000D161E2FB660023BB67E74D2B78BFF345
:101860005B8FDB0700D470E2E44C90220423BA18AB
:1018700013608833FB181B686068002B16DDDC22C0
:10188000BA187B6D12681900934200DA74E20901FC
:101890000EF052F90323C217134090221B189B101D
:1018A0009B00BA181360042B00DA60E27B6D002BFA
:1018B00000DCF1E18822B96ABA1808001268BB633B
:1018C00050439B1AB86098207B634B1C99001B0106
:1018D000FB61DC234A43381801607A609020DC22E7
:1018E000FB181B68BA189B009B46FB6A38183B63C1
:1018F000002312680068BB6542437A610A1F3A629E
:101900007B679422BB6BBA1813608822BA181268DE
:10191000934202DD9423FB181A608C23FB181B688A
:10192000002B00DC45E19423FB181A68002A00DC38
:101930003FE18C239021FB181B687918BB641300CE
:101940000968DA464B43D821791809689B008C4610
:101950003B61FB6E9C21FB657B6F79189B006344A8
:10196000FB6000230B60A8213B66791813003960E7
:101970000321013B043A8B43D31ABB619022BA186E
:10198000BB6C1268BB66934200DDBA669C22BA1833
:101990001268BB6E9446FA68634494469B463B6E5D
:1019A0009B006344FB633B6B3B647B6F7B66BB6D5F
:1019B0007B649423FB181B683B679423FB181A680D
:1019C0003B6FD21A7A62A022BA181360042B03DD8F
:1019D000A0220423BA1813603B6F002B58DD9C2310
:1019E000FB181B689B4553DDA023A422FB181B6832
:1019F000BA18013B9946FB6B13603B6C98464B460B
:101A0000002B2EDDA423FB181C689C23FB181E68EA
:101A1000434625685968281C0FF059FB011C606873
:101A20000FF03BFB4B466060012B16D04346281C51
:101A300099680FF04CFB011CA0680FF02EFB4B4681
:101A4000A060022B09D04346281CD9680FF03FFB49
:101A5000011CE0680FF021FBE060013654445E4554
:101A6000D6D14B465A1E9823FB181B68A4219C46CE
:101A7000A423FB181B68791804330B60A023FB1800
:101A800019684B46E044CB1A994201DD9146B6E70E
:101A9000A022BA181468D8223B6F796E3E6E8C462D
:101AA0001D1B3300BA1810686344844639689B00D4
:101AB00063440B60DC23FB181B6822004B607B6ACD
:101AC000884601939423FB1818680090BB6EF86D4C
:101AD000FEF7CCFD002D36DD7B6E41469C46786CD2
:101AE000220064440319F86A9B008446B86A634480
:101AF0004860A02038180260F86F0B602B00C146C8
:101B00008046FEF75DFED822BA18331914689B0090
:101B1000A4464C4663442360DC23FB1819687B6AA7
:101B2000616004939423FB181E68A0230396FB189E
:101B30001A6841460292BB6E0092019348462B0000
:101B4000FA6DFEF7F1FF396A7A6C8C46F9696244E6
:101B50008C467A647A6E3B6F04327A663A6C043B48
:101B600062443A64FA6B3B671032FA63BA69934293
:101B700000D022E790229C23BA1812689C21944638
:101B8000FB181B68791863440B60B96C8A1A796971
:101B9000BA648C463A6E396962448C463A66FA6D8C
:101BA0006244FA658C22BA1812689A4200DDE5E6B2
:101BB000D3468822BA1812687B6F94467A6D6344C4
:101BC0007B67934268DA8423FB181B68002B17DCC1
:101BD0008823B968FB188C46BA6B1B68D21ABA63A3
:101BE000BA6D6244BA657A6BD31A7A687B6394469D
:101BF0003B6B63443B6384E6F81A0320BC3003204C
:101C0000FA6ABB6D92469B009A44A823FE18A93B32
:101C100099467D6B7C6F8423FB181B68A8469D4208
:101C200000DD9846A422A300BA181360BA6A534490
:101C300072609422BA1831001268F86F336043461C
:101C4000FEF7BEFDD822A423BA181268FB189446EA
:101C50001B68300063443360DC23FB181B6873602F
:101C6000002304934B46039302938C23FB181B68B9
:101C700001939423FB181B680093FA6E4346F96F97
:101C8000FEF752FF8423FB181B689C46ED1A7B6D00
:101C90006444A342BFDC9BE78023FA6C9B029A4218
:101CA00006D9BB6F002B03D0043B18680FF0C6FCAD
:101CB00080233A6D9B029A4208D98023FB181B6847
:101CC000002B03D0043B18680FF0B8FCBD462DB0C4
:101CD000F0BCBB46B246A946A046F0BD9A008023A0
:101CE0003A659B029A4249D813006A461633DB08CC
:101CF000DB00D31A9D4627200F2368449843713395
:101D0000FB1818608023FB181B68AA00FB67636838
:101D1000FA64002B00D09DE580239B029A4249D8AB
:101D200013006A461633DB08DB00D31A9D462720D2
:101D30000F2368449843B867BB6F2A4DFB662B7826
:101D4000BFF35B8FDB0700D58EE5280012F09EFC09
:101D5000254C002800D188E58023DB012360802307
:101D60001B0328006360A36012F0ACFC7DE59022A9
:101D70000423BA18136099E5110088E510001030AB
:101D80000FF01EFC8023FB1818600028BAD00F2328
:101D9000010099430B0010218C46D8609C442368B5
:101DA00061465842584180234042F967FB18014080
:101DB000196049E5100010300FF002FCB8670028E8
:101DC000BAD00F23010099430B0010218C46D86034
:101DD00060689C444342584161464042F966014074
:101DE000B9673AE5F81A0320BC30032030B587B054
:101DF0000D4B02AD00951A68694602929A8804005C
:101E0000AA809B796A46AB71072301930023D373A1
:101E10002FF0CEFB0098A84203D0029901310FF0B9
:101E200041FC200007B030BDA0420510F0B5DE46F1
:101E300057464E464546E0B51F1CFE4B8FB01D6809
:101E4000FD4B079018680A91011C00920FF028F9C9
:101E5000FA4B19680FF03BF9291C0FF038F9F84BD1
:101E600019680FF020F9011CFE2080050FF015F90C
:101E7000F44B81461860F44B1E68301C0FF0DAF901
:101E8000F24B041C1B68301C98460FF0E5F9F04B30
:101E90008346211C40461E680FF019F959468246B8
:101EA000301C0FF014F9011C50460FF0F9F8291CF2
:101EB0000FF00DF9E74B8246186080231B06434460
:101EC0001800391C0FF003F900998046301C0FF000
:101ED000FEF8011C40460FF0E3F8DF4B804619681E
:101EE000201C0FF0F4F818990FF0F1F8011C40468F
:101EF0000FF0D6F8291C0FF0EAF8D84B18991860A3
:101F000080231B068046F0180FF0E1F8291C0FF023
:101F1000DEF8D34B00901860391C281C0FF0D7F85E
:101F2000211C0FF0C0F8CF4CCF4B2668CF4C186067
:101F30002768CF4B83461968381C0FF0C8F8CD4C82
:101F4000311C2568041C48460FF0C1F8011C201CF8
:101F50000FF0A6F8C84B041C1968281C0FF0B7F83E
:101F6000011C201C0FF09CF841460FF099F8C34B60
:101F70000C901860C24B381C1C68C24B19680FF0DB
:101F8000A6F8211C8046301C0FF0A1F8011C404629
:101F90000FF086F8291C804650460FF098F8011C77
:101FA00040460FF07DF800990FF07AF8B64B089094
:101FB0001860B64B301C19680FF089F8B44B061C3A
:101FC0001968381C0FF083F8011C301C0FF068F8FA
:101FD000B04B061C1968281C0FF079F8011C301C46
:101FE0000FF05EF859460FF05BF8AB4EAB4B35681F
:101FF00018604946099048460FF069F8291C0FF00F
:1020000066F8A74B19680FF04BF8A64BA64A186064
:1020100012680D90211C484690460FF058F8291C74
:102020000FF055F8A14F061C3F684846391C009731
:102030000FF04DF8011C301C0FF032F85146061C11
:1020400048460FF044F841460FF041F8011C301C9F
:102050000FF026F8964B41460190186048460FF065
:1020600036F8944B02901860291C201C0FF02FF8B2
:10207000914D924E29680FF013F83768051C391CF2
:1020800050460FF024F8011C281C0FF009F8061C1C
:10209000011C48460FF01BF8894B8A4A18608A4B8E
:1020A00012681B68039005930492884D50462D6872
:1020B000291C06950FF00BF84146051C201C0FF05B
:1020C00006F8834B19680EF0EBFF291C0EF0E8FFB1
:1020D000311C8346201C0EF0FAFF0099061C201CC0
:1020E0000EF0F5FF011C301C0EF0DAFF05990EF022
:1020F000D7FF049B061C191C504698460EF0E7FFBC
:10210000011C301C0EF0CCFF5946061C50460EF048
:10211000DEFF011C301C0EF0C3FF6E4B5E461968DB
:102120000EF0BEFF6C4B009018606C4B391C1E60AB
:1021300048460EF0CCFF6A4B04901860391C201CF6
:102140000EF0C5FF41460EF0ABFF291C0EF0A8FFB4
:10215000644B041C1860644B196806980EF0A0FFCD
:10216000624B0899071C186007980EF096FF604BA9
:102170000999069018600A980EF08FFF5D4B079042
:1021800018605D4B059819680EF08AFF5B4B061CC2
:10219000186058465A4B059718605A4B381C1C60FB
:1021A000594B19680EF07CFF584B071C1860011C36
:1021B000301C0EF08CFF211C051C58460EF087FFCA
:1021C000011C281C0EF069FF051C011C381C0EF0B8
:1021D0006AFF4F4B071C186080231B065B44291CB9
:1021E00018000EF060FF4B4B8146186080231B06E1
:1021F000E018291C0EF057FF474B82461860291C37
:10220000301C0EF050FF454B80461860391C019879
:102210000A970EF05CFF029E5146051C301C0EF022
:1022200056FF011C281C0EF03BFF3D4B071C18609D
:10223000494677E008160020E4150020D81803204E
:1022400010160020D43703204C1600205016002012
:1022500054160020E43703200416002028520320DF
:102260002C520320041903203052032008190320A4
:10227000D83703200C190320DC3703201019032062
:10228000E0370320FC15002014190320E837032051
:10229000EC37032000160020141600201819032024
:1022A0002C16002018160020B4460320AC4603204C
:1022B000B0460320B8460320BC460320CC4603208A
:1022C000C0460320D44603201C16002024160020FC
:1022D000C44603203016002020160020C8460320E4
:1022E000D0460320D84603203416002028160020AC
:1022F000C0370320C4370320381600208C51032038
:1023000090510320945103203C1600209851032043
:102310009C510320A0510320A4510320A851032065
:10232000AC28002001980EF0D2FE4146051C301C5E
:102330000EF0CDFE011C281C0EF0B2FE914B061CC7
:102340000A99186000980EF0C2FE5146051C5846C6
:102350000EF0BDFE011C281C0EF0A2FE8A4B494661
:1023600018600B9000980EF0B2FE4146051C5846CE
:102370000EF0ADFE011C281C0EF092FE834B051CD6
:102380000A991860201C0EF0A2FE51460A9005988A
:102390000EF09DFE011C0A980EF082FE7C4B8246D8
:1023A00018604946201C0EF092FE41468146059871
:1023B0000EF08DFE011C48460EF072FE754B8146F4
:1023C0001860391C06980EF082FE0C990EF068FE1B
:1023D000311C804607980EF07AFE011C40460EF034
:1023E0005FFE6D4B0B99186006980EF070FE089911
:1023F0000EF056FE291C804607980EF068FE011C60
:1024000040460EF04DFE654B5146186006980EF0A2
:102410005EFE09990EF044FE4946804607980EF08C
:1024200056FE011C40460EF03BFE5D4B391C186009
:1024300003980EF04CFE011C0D980EF02EFE311C80
:10244000804604980EF043FE011C40460EF025FE27
:10245000544B391C186000980EF039FE011C01988D
:102460000EF01BFE311C8046201C0EF030FE011CBD
:1024700040460EF012FE4C4B391C186058460EF0C8
:1024800026FE011C02980EF008FE059B071C311C5D
:10249000181C98460EF01BFE011C381C0EF0FDFDAA
:1024A000424B0B991860FE2080050EF0F6FD061CCD
:1024B000011C03980EF00BFE291C071C04980EF05B
:1024C00006FE011C381C0EF0E8FD394B311C18606B
:1024D00000980EF0FCFD291C071C201C0EF0F7FDD7
:1024E000011C381C0EF0D9FD324B311C18605846C7
:1024F0000EF0EDFD291C061C40460EF0E8FD011C07
:10250000301C0EF0CAFD2C4B49461860FE20800599
:102510000EF0C3FD051C011C04980EF0D8FD5146B9
:10252000061C03980EF0D3FD011C301C0EF0B5FD07
:10253000224B291C1860201C0EF0C9FD5146041CBA
:1025400000980EF0C4FD011C201C0EF0A6FD1C4BD3
:10255000291C186040460EF0BAFD5146041C58462E
:102560000EF0B5FD011C201C0EF097FD154B1860F8
:10257000FE2080050FB0F0BCBB46B246A946A0467F
:10258000F0BDC046B0280020B4280020B8280020A4
:10259000BC280020C02800200419032008190320AB
:1025A0000C19032014160020AC460320B446032067
:1025B000BC4603201C160020C4460320CC46032042
:1025C000D446032024160020F0B5DE4657464E467A
:1025D0004546E24BE0B51860E14B0D1C1B68E14C31
:1025E00098464146E04BE4681960DD4989B0496886
:1025F000069059608946DB4BDA491F684E68DB4B11
:1026000089681F605E609960DC60D94B05949A68A8
:1026100058681C68029204910190DB68211C4046B6
:1026200003930EF054FD0299824648460EF04FFD8A
:10263000011C50460EF034FDCE4B82461968281C12
:102640009B460EF044FD011C50460EF029FDCA4B7E
:1026500001991860079040469A460EF038FD03999C
:10266000804648460EF033FD011C40460EF018FD32
:102670005B4680465968281C0EF029FD011C404627
:102680000EF00EFD554683466860211C381C0EF086
:102690001EFD029A051C111C301C90460EF017FD01
:1026A000011C281C0EF0FCFC01998146381C0EF020
:1026B0000EFD039F051C391C301C0EF008FD011C8B
:1026C000281C0EF0EDFC211C824604980EF0FFFC45
:1026D0004146051C05980EF0FAFC011C281C0EF062
:1026E000DFFC46460199804604980EF0F0FC391C48
:1026F000051C05980EF0EBFC011C281C0EF0D0FC0C
:102700004946071C201C0EF0E2FC4146051C301C0B
:102710000EF0DDFC011C281C0EF0C2FC974E316847
:102720000EF0BEFC964D514604902860201C0EF021
:10273000CEFC391C041C02980EF0C9FC011C201CA4
:102740000EF0AEFC71680EF0ABFC4946029068607A
:1027500001980EF0BCFC039A4146041C101C9146E3
:102760000EF0B5FC011C201C0EF09AFCB1680EF0B6
:1027700097FC5146041CA86001980EF0A8FC391C77
:10278000804648460EF0A3FC011C40460EF088FC33
:10279000F1680EF085FCE8607A4D071C2E680498FD
:1027A000311C0EF094FC6D688046291C381C019782
:1027B0000EF08DFC291C824602980EF088FC4146E2
:1027C0000EF06EFC311C0EF082FC311C071C201C2C
:1027D0000EF07DFC51460EF063FC291C0EF077FCD8
:1027E000011C381C0EF05CFC674B19680EF058FC9D
:1027F000664B071C1860291C201C0EF068FC414623
:102800000EF04EFC391C0EF04EFC614980468946A4
:1028100008600298311C0EF05AFC51460EF040FC44
:10282000391C0EF040FC4946079B071C4860181CE9
:10283000311C9A460EF04BFC291C814658460EF07E
:1028400046FC011C48460EF02BFC011C06980EF0BD
:1028500024FC414681460EF03AFC51460EF020FC25
:102860003F4A391C106048460EF031FC59460EF0C4
:1028700017FC3B4A81465060464A311C934640460D
:102880000EF025FC5A46011C10680EF006FC311CA7
:102890008246381C0EF01BFC5A46011C50680EF094
:1028A000FCFB291C061C40460EF011FC5A46011C7C
:1028B00090680EF0F2FB291C8046381C0EF007FCD5
:1028C0005A46011CD0680EF0E8FB5146051C0498DE
:1028D0000EF0FDFB029B4146071C181C9B460EF0A8
:1028E000F6FB011C381C0EF0DBFB1E4A311C10608D
:1028F00004980EF0ECFB291C071C58460EF0E7FB71
:10290000011C381C0EF0CCFB164B51465860201CA5
:102910000EF0DDFB019B4146071C181C98460EF08B
:10292000D6FB011C381C0EF0BBFB0E4B311C986013
:10293000201C0EF0CCFB291C041C40460EF0C7FBEB
:10294000011C201C0EF0ACFB064BD860484609B0B9
:10295000F0BCBB46B246A946A046F0BDBC5203201F
:1029600068460320B02300203C3C0320F0230020D5
:10297000102400200C370320784603200023002079
:10298000D02300208C4603203C180320283C032041
:10299000A428002030240020F0B5DE4657464E46DD
:1029A0004546E0B5674B83B059689A460EF075FB13
:1029B000654B051C1860654B1B689B46644B59466C
:1029C0001C680EF06DFB211C0EF081FB614B061C98
:1029D0001868011C0EF064FB011C301C0EF063FB38
:1029E0005D4E31680EF05CFB5C4B00903060186807
:1029F000011C0EF055FB5A4B061C1A68111C91461F
:102A00000EF065FB8046011C201C0EF049FB211CCA
:102A1000071C40460EF041FB524A116890460EF0EA
:102A200056FB391C0EF03FFB4946019048460EF01C
:102A300037FB59468146281C0EF02FFB011C4846E7
:102A40000EF045FB391C0EF02EFB011C01980EF018
:102A500027FB424600991060071C281C0EF020FB43
:102A6000391C0EF01DFB404B19680EF030FB3F4B3C
:102A700018603F4B1860534619680EF00EFB3D4B33
:102A8000051C18603C4B1B68191C9A460EF008FB8D
:102A9000211C0EF01CFB394B80461868011C0EF0FF
:102AA000FFFA011C40460EF0FEFA354B99461968B4
:102AB0000EF0F6FA4B461860324B80461B68301C0D
:102AC000191C99460EF003FB8346011C201C0EF0D6
:102AD000E7FA4946061C48460EF0E2FA514681469E
:102AE000281C0EF0DAFA011C48460EF0F0FA311CF0
:102AF0000EF0D9FA211C814658460EF0CEFA391C48
:102B00000EF0E5FA311C0EF0CEFA011C48460EF02C
:102B1000C7FA1D4B41461860041C281C0EF0C0FA71
:102B2000211C0EF0BDFA194B19680EF0D0FA184BA3
:102B30001860184B186003B0F0BCBB46B246A946FB
:102B4000A046F0BD68460320CC370320343C032068
:102B50000C160020E8150020203C0320F81500206A
:102B6000D4280020A8370320F01500203452032079
:102B700024520320D0370320383C0320EC150020DA
:102B8000243C0320D8280020AC370320F415002073
:102B9000385203203C520320F8B5FE250024194B7F
:102BA000AD051D60DD609C605C60174B174F1D60BC
:102BB000DD609C605C60164B1E68164B301C19680B
:102BC0000EF071FA144B38601D605C60DD609C6033
:102BD000124B7C601D605E60DD609C60104B1C6071
:102BE0005D60104B1868011C0EF071FA0E4B0F4A15
:102BF000186012680E4B1A600E4A9C6012685C6086
:102C0000DA60F8BDB0230020D02300200C37032069
:102C10000C16002010160020302400201024002064
:102C20008C460320481600203C180320241803205B
:102C30000023002020180320F0B5DE4657464E46FC
:102C40004546E0B50E000168C768894641680569D8
:102C50008A4681688DB08B464169806907930690EA
:102C600050681368926805910A90291C30680B928D
:102C7000099308950EF011FA0599039070680EF00B
:102C80000CFA0699051CB0680EF007FA80268046FB
:102C9000360607980EF0B4FAB446039B00900191F3
:102CA0006344180051460EF012FA5946061C281CBF
:102CB0000EF00DFA011C301C0EF0EFF9391C061C49
:102CC000404604970EF003FA011C301C0EF0E5F9A3
:102CD0000EF096FA0022684B0DF0ADF9009A019BB8
:102CE0000DF0A9F9060048460F000EF089FA02001F
:102CF0000B0030003900169C0DF076F90DF0A0FAAB
:102D00004946206003980EF0E2F95946061C4046F9
:102D10000EF0DDF9011C301C0EF0C2F90499061CFE
:102D2000281C0EF0D4F9011C301C0EF0B6F90EF080
:102D300067FA0022504B0DF07EF9009A019B0DF0CE
:102D40007AF9060050460F000EF05AFA02000B0006
:102D5000300039000DF048F90DF072FA4946606014
:102D6000281C0EF0B4F95146061C40460EF0AFF98F
:102D7000011C301C0EF091F90499061C03980EF00A
:102D8000A6F9011C301C0EF08BF90EF039FA002266
:102D9000394B0DF050F9009A019B0DF04CF90600EB
:102DA00058460F000EF02CFA02000B0030003900DC
:102DB0000DF01AF90DF044FA4946A06040460EF0B5
:102DC00086F95146061C281C0EF081F9011C301CA6
:102DD0000EF066F95946051C03980EF078F9011CAF
:102DE000281C0EF05AF90EF00BFA0022224B0DF0BF
:102DF00022F9009A019B0DF01EF9060004980F00BD
:102E00000EF0FEF902000B00300039000DF0ECF876
:102E10000DF016FA089B0999E060181C98460EF010
:102E200056F9079D291C0EF052F9011C40460EF080
:102E300034F9059F0A992061381C0EF048F9291CC5
:102E40000EF045F9011C381C0EF027F9069E0B996F
:102E50006061301C0EF03BF9291C0EF038F9011CA2
:102E6000301C0EF01AF9A06100200DB0F0BCBB467A
:102E7000B246A946A046F0BD0000E03FF0B5DE46F0
:102E800057464E4645468A464168E0B58846C7687B
:102E9000816891B0066889464046391C141C049329
:102EA0000EF015F94946051C301C0EF010F90A9079
:102EB000011C281C09950EF0F0F80EF0A1F9020093
:102EC0000B000DF091F806900791201C02940EF073
:102ED00097F90B00020004000D00069807990DF009
:102EE000AAF80DF0ADF95246391C106048460EF0B4
:102EF000EEF883464146301C0EF0E9F85A460E9033
:102F0000011C58460B920EF0CBF80EF079F9020036
:102F10000B000DF069F802000B00200029000C9254
:102F20000D930DF088F80DF08BF95446311C60605C
:102F3000301C0EF0CCF84146041C40460EF0C7F899
:102F4000051C011C201C0EF0A8F8494608904846B4
:102F50000EF0BDF8391C8346381C0EF0B8F85946FF
:102F6000019008980EF099F801990EF099F80299DD
:102F70000F900EF0ACF853464946986040460EF06C
:102F8000A6F8391C8046301C0EF0A1F881461A982C
:102F90000EF036F906001B980F000EF031F9029082
:102FA0000391291C201C0EF07BF859460EF075F891
:102FB00001990EF072F804990EF089F80EF020F9DC
:102FC00004000D00404649460EF06AF80EF018F96C
:102FD00002000B000DF008F832003B000DF02BF85A
:102FE00002000B00200029000CF0FEFF029A039B58
:102FF00004000D00069807990DF01DF802000B0063
:10300000200029000CF0F0FF0DF01AF95346D860AB
:1030100004980EF0F5F804000D00404649460EF005
:103020003CF80EF0EDF802000B000CF0DDFF220082
:103030002B00049405950CF0FEFF04000D00089889
:1030400059460EF02DF801990EF027F81A990EF056
:103050003EF80EF0D5F802000B00200029000CF01D
:10306000C3FF029A039B04000D000C980D990CF00D
:10307000E2FF02000B00200029000CF0B5FF0DF06C
:10308000DFF853460A99186109980EF009F80EF016
:10309000B7F802000B000CF0A7FF049A059B0CF098
:1030A000CAFF04000D000B980E990DF0F6FF0EF00C
:1030B000A7F802000B000CF097FF32003B000CF069
:1030C000BAFF02000B00200029000CF08DFF040065
:1030D0000D000F981B990DF0FAFF0EF091F8020009
:1030E0000B00200029000CF07FFF0DF0A9F85346DB
:1030F0005861002011B0F0BCBB46B246A946A046BC
:10310000F0BDC046F0B50400DE4657464E46454683
:103110000800E0B545680968AA46856895B0AB46E1
:10312000C5684669876910910E95016955681068F0
:103130009268049690461A68069711925A689B689E
:1031400012921393FE239B05236099460DF0A5FF71
:103150000EF056F8009001911E980EF051F80600FE
:103160000F00009801990022924B0CF064FF32008E
:103170003B000CF060FF0DF063F804990390E061F0
:10318000281C0DF08AFF0EF03BF80022894B0490BA
:1031900005910CF050FF32003B000CF04CFF0DF09D
:1031A0004FF80699051CA06340460DF076FF0EF01F
:1031B00027F800227F4B069007910CF03CFF32006D
:1031C0003B000CF038FF0DF03BF80A90606550466C
:1031D0000EF016F80022784B089009910CF02BFFA6
:1031E00032003B000CF027FF0DF02AF80B9020670F
:1031F00058460EF005F800226F4B0C900D910CF024
:103200001AFF32003B000CF016FF0DF019F88C236A
:103210008246E0500E980DF0F3FF0022664B0E90B0
:103220000F910CF008FF32003B000CF004FF0DF092
:1032300007F8A8238346E0500022009801995E4BCE
:103240000CF0F9FE32003B000CF0F5FE0CF0F8FF3C
:103250004946009060602162002206980799564B0B
:103260000CF0E9FE32003B000CF0E5FE0CF0E8FF4C
:10327000A5658046E06310980DF0C2FF00224D4B1B
:103280000CF0D9FE32003B000CF0D5FE0CF0D8FF5C
:1032900059469023051C60670022E1500C980D9957
:1032A000444B0CF0C8FE32003B000CF0C4FE0CF0A6
:1032B000C7FFAC230022E050049805993E4B0CF068
:1032C000BAFE32003B000CF0B6FE0CF0B9FF4946E6
:1032D0000A9A83466262009AA0602164E2650E98B1
:1032E0000F990022334B0CF0A6FE32003B000CF08D
:1032F000A2FE0CF0A5FF94230B99A067E5501C33A8
:10330000E1504146E1605946A16249462166514675
:10331000039BE1676364089809990022254B0CF030
:103320008AFE32003B000CF086FE0CF089FF9823E9
:10333000E0501C33E55000251E9911982561E56287
:10334000A56465660DF0C3FE011C48460DF0A5FEA0
:103350008023E0501C33E5501C33E550343B1E996C
:10336000129865612563E564A566E5500DF0AFFE32
:10337000011C48460DF091FEA023E0501C33E5509F
:10338000343BA56165632565E566E5501C33E55072
:103390001E9913980DF09BFE011C48460DF07DFE12
:1033A000C023E050002015B0F0BCBB46B246A94691
:1033B000A046F0BD0000E0BF0000E03FF0B5DE46F3
:1033C00057464E464546E0B59A460B68141C8A6837
:1033D0009B464B68C9688BB00500101C884600935B
:1033E00001920DF00DFF02900391201C0DF008FFDB
:1033F000C02306000F000298039900221B060CF060
:103400001AFE32003B000CF016FE0CF019FF08907B
:10341000286040460DF0F4FE02000B000CF0E4FDC5
:1034200032003B000CF007FE0CF00AFF041CA86100
:1034300058460DF0E5FEC02300221B0604900591BE
:103440000CF0F9FD32003B000CF0F5FD0CF0F8FE3D
:10345000286300980DF0D4FE02000B00069007913F
:103460000CF0C2FD32003B000CF0E5FD0CF0E8FE74
:10347000002190238946A8642966A967E9506860FD
:103480000498059902000B000CF0AEFD32003B00E1
:103490000CF0D1FD0CF0D4FE6C630490E86102984E
:1034A000039902000B000CF09FFD32003B000CF072
:1034B000C2FD0CF0C5FE49469423E8646966E967DD
:1034C000E950C02306980799049A1B06AA600022B7
:1034D0000CF0B1FD32003B000CF0ADFD0CF0B0FE85
:1034E000089B4946AB63802328622C65A966E95096
:1034F0001833E950404614990DF0E9FD019F1599E4
:10350000061C381C0DF0E3FD5146041C58460DF016
:10351000DEFD311C0DF0C4FD211C06940DF0BDFD37
:10352000011C0DF0BDFD51460990E86000980DF0BA
:10353000CEFD1499041C381C0DF0C9FD011C201C83
:103540000DF0AEFD1599041C40460DF0C0FD011CA8
:10355000201C0DF0A5FD011C0DF0A2FD1499029098
:10356000686200980DF0B3FD1599089058460DF06B
:10357000AEFD019A8024944624066444071C5146FB
:1035800020000DF0A4FD08990DF08AFD391C0DF006
:1035900084FD011C0DF084FD1499E86358460DF07C
:1035A00096FD1599049000980DF091FD8022120669
:1035B0004244041C514610000DF089FD04990DF0A1
:1035C0006FFD211C0DF06CFD011C0DF069FD4A46DC
:1035D0008423EA666865EA501833EA505146286148
:1035E00001980DF074FD08990DF057FD391C0DF090
:1035F00057FD011C0DF054FD071CA8628020029BA2
:1036000000062B64514658440DF061FD311C0DF04D
:1036100044FD06990DF044FD011C0DF041FD882389
:10362000A86548462867E8501833E8505146404698
:103630006F610DF04CFD04990DF02FFD211C0DF074
:103640002CFD011C0DF02CFD099AE8626A64029BB6
:103650004A46EB654B466B678C230020EA501833D3
:10366000EA500BB0F0BCBB46B246A946A046F0BD3E
:103670000123F0B5E3214746CE469C46294B8046C0
:1036800005009946284E80B58900076846444144A4
:10369000FA0F6F68D2077B005B08346813435A083F
:1036A000624064461C4201D04B465A4004C5043671
:1036B000A942EDD1E32342469B00C626D458194BBC
:1036C00001259C46F6004644E20F4C68D207630091
:1036D0005B08076813435A087A401D4201D06346CD
:1036E0005A40043004C1B042EED14246C6214046A1
:1036F0000E4BC900D3581268DB0F52005208DB078B
:10370000415813435A084A40DB0701D5054B5A403C
:103710004146064BCA5000220433CA50C0BCB946C9
:10372000B046F0BDDFB0089934060000BC090000C7
:10373000F0B54546DE4657464E46E0B53B4CD723EE
:10374000A54434AA944663441B091B018A68059367
:103750000B68019237921A68049006929A69339125
:1037600007921A6B38AC08929A6C09921A6E0B92F7
:103770009A6F0C9290229A580D925A680E92DA69BA
:103780000F925A6B1092DA6C11925A6E1292DA6F93
:10379000139294229A5814929A6815921A6A169261
:1037A0009A6B17921A6D18929A6E199280229A58F3
:1037B0001A9298229A581B92DA681C925A6A1D92A1
:1037C000DA6B1E925A6D1F92DA6E209284229A58FA
:1037D00021929C229A5822921A6923929A6A2492E0
:1037E0001A6C25929A6D26921A6F279288229A58FF
:1037F0002892A0229A5829925A692A92DA6A2B9220
:103800005A6C2C92DA6D2D925A6F2E928C229A5805
:103810002F92A4229B5830934B68984638AB329332
:10382000C423454643440A9302E0C0469CFDFFFF83
:10383000EA68A96991462A69AB6890466A6909985D
:1038400003914946019302920DF041FC41468246A4
:103850000B980DF03CFC011C50460DF021FC029928
:1038600082460C980DF033FC039983460D980DF0B9
:103870002EFC011C58460DF013FC011C50460DF0A7
:103880000FFC6F688246391C07980DF020FC0199E7
:10389000834608980DF01BFC011C58460DF000FCF7
:1038A0002E688346311C06980DF011FC011C584609
:1038B0000DF0F6FB011C50460DF0F2FB494620606E
:1038C00011980DF004FC4146824612980DF0FFFB62
:1038D000011C50460DF0E4FB0299824613980DF04E
:1038E000F6FB0399834614980DF0F1FB011C584632
:1038F0000DF0D6FB011C50460DF0D2FB391C824660
:103900000F980DF0E4FB0199834610980DF0DFFB52
:10391000011C58460DF0C4FB311C83460E980DF077
:10392000D6FB011C58460DF0BBFB011C50460DF0A8
:10393000B7FB4946606018980DF0C9FB41468246C6
:1039400019980DF0C4FB011C50460DF0A9FB02991B
:1039500082461A980DF0BBFB039983461B980DF025
:10396000B6FB011C58460DF09BFB011C50460DF0A8
:1039700097FB391C824616980DF0A9FB01998346E6
:1039800017980DF0A4FB011C58460DF089FB311C63
:10399000834615980DF09BFB011C58460DF080FBEB
:1039A000011C50460DF07CFB4946A0601F980DF0AD
:1039B0008EFB4146824620980DF089FB011C504643
:1039C0000DF06EFB0299824621980DF080FB039961
:1039D000834622980DF07BFB011C58460DF060FBDE
:1039E000011C50460DF05CFB391C82461D980DF001
:1039F0006EFB019983461E980DF069FB011C584629
:103A00000DF04EFB311C83461C980DF060FB011C31
:103A100058460DF045FB011C50460DF041FB494650
:103A2000E06026980DF053FB4146824627980DF042
:103A30004EFB011C50460DF033FB0299824628983C
:103A40000DF045FB0399834629980DF040FB011CBE
:103A500058460DF025FB011C50460DF021FB391C8A
:103A6000824624980DF033FB0199834625980DF08A
:103A70002EFB011C58460DF013FB311C8346239886
:103A80000DF025FB011C58460DF00AFB011C5046A9
:103A90000DF006FB2D99206148460DF018FB2E997C
:103AA000814640460DF013FB011C48460DF0F8FA24
:103AB0002F99804602980DF00AFB309981460398B1
:103AC0000DF005FB011C48460DF0EAFA011C4046CA
:103AD0000DF0E6FA391C80462B980DF0F8FA2C9977
:103AE000071C01980DF0F3FA011C381C0DF0D8FAF0
:103AF000311C071C2A980DF0EAFA011C381C0DF045
:103B0000CFFA011C40460DF0CBFA0A9B1C356061D0
:103B10001834AB4200D08BE6379B1A686293089248
:103B20009A6909921A6B0A929A6C0B921A6E0C920D
:103B30009A6F0D9290229A580E925A680F92DA69F3
:103B400010925A6B1192DA6C12925A6E1392DA6FCB
:103B5000149294229A5815929A6816921A6A179299
:103B60009A6B18921A6D19929A6E1A9280229A582C
:103B70001B9298229A581C92DA681D925A6A1E92D9
:103B8000DA6B1F925A6D2092DA6E219284229A5833
:103B900022929C229A5823921A6924929A6A259218
:103BA0001A6C26929A6D059C27921A6F20342892DF
:103BB00088229A58A1462992A0229A582A925A6994
:103BC0002B92DA6A2C925A6C2D92DA6D2E925A6FE1
:103BD0002F928C229A583092A4229B5831935CAB3E
:103BE00006933EAB0793329B984643464246414676
:103BF00040461B6895690193069B146B096E926C95
:103C000040CB876F0291101C0B99039206930DF025
:103C10005EFA0C99824602980DF059FA011C504642
:103C20000DF03EFA0D998246381C0DF050FA0E99AF
:103C30008346301C0DF04BFA011C58460DF030FA4B
:103C4000011C50460DF02CFA09998246281C0DF0F3
:103C50003EFA0A998346201C0DF039FA011C584699
:103C60000DF01EFA0899834601980DF030FA011CF8
:103C700058460DF015FA011C50460DF011FA4B464E
:103C80001299186003980DF022FA1399824602984F
:103C90000DF01DFA011C50460DF002FA14998246EF
:103CA000381C0DF014FA15998346301C0DF00FFAEC
:103CB000011C58460DF0F4F9011C50460DF0F0F9C6
:103CC00010998246281C0DF002FA11998346201C97
:103CD0000DF0FDF9011C58460DF0E2F90F998346ED
:103CE00001980DF0F4F9011C58460DF0D9F9011CAA
:103CF00050460DF0D5F94B461999586003980DF0D0
:103D0000E6F91A99824602980DF0E1F9011C504635
:103D10000DF0C6F91B998246381C0DF0D8F91C9994
:103D20008346301C0DF0D3F9011C58460DF0B8F94C
:103D3000011C50460DF0B4F917998246281C0DF06D
:103D4000C6F918998346201C0DF0C1F9011C58468C
:103D50000DF0A6F91699834601980DF0B8F9011CEB
:103D600058460DF09DF9011C50460DF099F94B464F
:103D70002099986003980DF0AAF92199824602983B
:103D80000DF0A5F9011C50460DF08AF922998246E2
:103D9000381C0DF09CF923998346301C0DF097F9DF
:103DA000011C58460DF07CF9011C50460DF078F9C5
:103DB0001E998246281C0DF08AF91F998346201C03
:103DC0000DF085F9011C58460DF06AF91D998346DE
:103DD00001980DF07CF9011C58460DF061F9011CA9
:103DE00050460DF05DF94B462799D86003980DF0C9
:103DF0006EF92899824602980DF069F9011C504627
:103E00000DF04EF929998246381C0DF060F92A9977
:103E10008346301C0DF05BF9011C58460DF040F94B
:103E2000011C50460DF03CF925998246281C0DF0E6
:103E30004EF926998346201C0DF049F9011C58467D
:103E40000DF02EF92499834601980DF040F9011CDC
:103E500058460DF025F9011C50460DF021F94B464E
:103E60002E99186103980DF032F92F998246029825
:103E70000DF02DF9011C50460DF012F930998246D3
:103E8000381C0DF024F93199071C301C0DF01FF976
:103E9000011C381C0DF004F9011C50460DF000F90E
:103EA0002C99061C281C0DF012F92D99051C201CBC
:103EB0000DF00DF9011C281C0DF0F2F82B99041CD3
:103EC00001980DF004F9011C201C0DF0E9F8011C0B
:103ED000301C0DF0E5F84B46586104239C46143322
:103EE000E0449C46079BE144984500D07DE6339B27
:103EF000059DDC68296A20680DF0D2F8049EA96B44
:103F0000306060680DF0CCF87060A068296D0DF02D
:103F1000C7F8B060E068A96E0DF0C2F88023F060C9
:103F20002069E95898460DF0BBF898233061E958AC
:103F300060690DF0B5F87061A069696A0DF0B0F8BC
:103F4000B061E069E96B0DF0ABF8F061206A696D72
:103F50000DF0A6F83062E96E606A0DF0A1F88427D2
:103F60007062A06AE9590DF09BF89C23B062E95891
:103F7000E06A0DF095F8F062206BA96A0DF090F8F8
:103F80003063606B296C0DF08BF87063A06BA96DCA
:103F90000DF086F8B063E06B296F0DF081F8F063E7
:103FA0008826206CA9590DF07BF8049B1864A02387
:103FB000606CE9580DF074F8049BE96A5864A06CD1
:103FC0000DF06EF8049B696C9864E06C0DF068F875
:103FD000049BE96DD864206D0DF062F8049B696F55
:103FE0001865606D0DF05CF88C25049A059B506592
:103FF000A06D59590DF054F8A423049A9065059AC0
:10400000E06DD1580DF04CF8049B059AD865116B02
:10401000206E0DF045F8049B059A1866916C606E51
:104020000DF03EF8049B059A5866A06E116E0DF0D7
:1040300037F8049B059A9866E06E916F0DF030F8A2
:10404000049B059AD8669023206FD1580DF028F86C
:10405000049B059A1867A823606FD1580DF020F8CB
:10406000049B059A5867A16F506B0DF019F8049BDB
:10407000059A9867E16FD06C0DF012F84146049BE9
:10408000059AD8676158506E0DF00AF84146049BB6
:10409000059A5850E159D06F0DF002F8049BD851A1
:1040A0009423059FA159F8580CF0FAFF049B9851EE
:1040B000AC236159F8580CF0F3FF049B5851992335
:1040C0009B009D44F0BCBB46B246A946A046F0BD4D
:1040D000F0B5DE4657464E4645460400E0B5036956
:1040E00087B0580063694008590049080CF0D8FFB0
:1040F000E368590049080CF0D3FF6368051C5800B9
:10410000A3684008590049080CF0CAFF2368590009
:1041100049080CF0C5FF011C281C0CF0C1FFA36A64
:10412000051C5800E36A4008590049080CF0B8FF24
:10413000636A590049080CF0B3FFE369061C580094
:10414000236A4008590049080CF0AAFFA3695900E6
:1041500049080CF0A5FF011C301C0CF0A1FF236CDA
:10416000071C5800636C4008590049080CF098FF80
:10417000E36B590049080CF093FF636B061C580071
:10418000A36B4008590049080CF08AFF236B5900C3
:1041900049080CF085FF011C301C0CF081FF061C47
:1041A000011C381C0CF0CAFF002800D13E1C311C39
:1041B000281C0CF0C3FF002800D12E1CA36D580052
:1041C000E36D4008590049080CF06AFF636D59001F
:1041D00049080CF065FFE36C051C5800236D40088E
:1041E000590049080CF05CFFA36C590049080CF019
:1041F00057FF011C281C0CF053FF236F071C5800AD
:10420000636F4008590049080CF04AFFE36E5900FB
:1042100049080CF045FF636E051C5800A36E40086A
:10422000590049080CF03CFF236E590049080CF076
:1042300037FF011C281C0CF033FF88238046E05810
:104240000433E15840004900490840080CF028FFB9
:104250008423E158490049080CF022FFE36F051C54
:1042600058008023E1584008490049080CF018FF25
:10427000A36F590049080CF013FF011C281C0CF017
:104280000FFF051C011C40460CF058FF002800D110
:104290004546291C381C0CF051FF002800D13D1C5C
:1042A000291C301C0CF04AFF002800D1351CC0230B
:1042B0002100E55001AABA3B02A8A8310493029458
:1042C000FCF7A8FA0121C422019B98260B405B420F
:1042D0008B430133A354343A9246002250469C2724
:1042E00022509432A1509346923AA2510132E251A7
:1042F0009D32944660469C3A2250A03291469F3AA5
:1043000090464A4640462300A05048461832A258DC
:10431000903392009A181568255040461060604608
:10432000B8222058A2588046604692009A18156814
:10433000255040461060B422E059A25884469200AD
:104340009A1810685D46E05160461060B022A2588D
:10435000A75992009A181068A0511760AC225846CD
:10436000A258265892009A18106860511660A82228
:10437000A258554692009B1852461868A2586051A0
:104380001A60C523E15407B0F0BCBB46B246A9464B
:10439000A046F0BDC023002210B5C2500022043355
:1043A000C2520B68040003604B6843608B688360F3
:1043B000CB68C3600B6903614B6943618B6983619F
:1043C000CB69C3610B6A03624B6A43628B6A836287
:1043D000CB6AC3620B6B03634B6B43638B6B83636F
:1043E000CB6BC3630B6C03644B6C43648B6C836457
:1043F000CB6CC3640B6D03654B6D43658B6D83653F
:10440000CB6DC3650B6E03664B6E43668B6E836626
:10441000CB6EC3660B6F03674B6F43678B6F83670E
:10442000CB6FC3678023CA58C2500433CA58C250E6
:104430000433CA58C2500433CA58C250FFF748FE6A
:10444000200010BDF0B5DE464E4645465746E0B565
:10445000214C9146A5443AAA94460A0031931F4B39
:104460003B9063441B091B013A919846D3AB13CA96
:1044700013C313CA13C31268D3A91A60184B194A7D
:104480001B6847A80493184B47AC1B680193174B54
:104490001B6805930093049BFEF790FF47ABD393F3
:1044A0004B46D49347ABD5933AAA832394468620B0
:1044B0001B0163441B68C0004044A2AAD3A9D69341
:1044C0000990FFF735F96BAB089343460A934B46C7
:1044D0003094A1461C000BE014F7FFFF47030000D7
:1044E000F41603200AE81C41EC160320F016032002
:1044F0004B464E461B68B76F0493089B494640CB1A
:1045000048464A460893A823896C006E9569126B49
:1045100006910790E158301C05920CF0D8FD8C23D1
:104520008246E158381C0CF0D2FD011C50460CF0BC
:10453000B7FD216F824607980CF0C9FD616D834677
:1045400006980CF0C4FD011C58460CF0A9FD011C96
:1045500050460CF0A5FDA16B824605980CF0B7FD06
:10456000E1698346281C0CF0B2FD011C58460CF092
:1045700097FD2168834604980CF0A9FD011C58465C
:104580000CF08EFD011C50460CF08AFD434618606D
:10459000AC23301CE1580CF09AFD90238246E15880
:1045A000381C0CF094FD011C50460CF079FD616F35
:1045B000824607980CF08BFDA16D834606980CF09F
:1045C00086FD011C58460CF06BFD011C50460CF09A
:1045D00067FDE16B824605980CF079FD216A834600
:1045E000281C0CF074FD011C58460CF059FD616844
:1045F000834604980CF06BFD011C58460CF050FDEE
:10460000011C50460CF04CFD43465860B023301C52
:10461000E1580CF05CFD94238246E158381C0CF004
:1046200056FD011C50460CF03BFDA16F82460798D9
:104630000CF04DFDE16D834606980CF048FD011C21
:1046400058460CF02DFD011C50460CF029FD216C44
:10465000824605980CF03BFD616A8346281C0CF0ED
:1046600036FD011C58460CF01BFDA16883460498DA
:104670000CF02DFD011C58460CF012FD011C50469B
:104680000CF00EFD43469860B423301CE1580CF04A
:104690001EFD98238246E158381C0CF018FD011CC1
:1046A00050460CF0FDFCE16F824607980CF00FFDC0
:1046B000216E834606980CF00AFD011C58460CF04A
:1046C000EFFC011C50460CF0EBFC616C8246059837
:1046D0000CF0FDFCA16A8346281C0CF0F8FC011CC0
:1046E00058460CF0DDFCE168834604980CF0EFFCC2
:1046F000011C58460CF0D4FC011C50460CF0D0FCB8
:104700004346D860B823301CE1580CF0E0FC9C23F1
:104710008246E158381C0CF0DAFC011C50460CF0C3
:10472000BFFC80238246E15807980CF0D0FC616EF4
:10473000834606980CF0CBFC011C58460CF0B0FCEC
:10474000011C50460CF0ACFCA16C824605980CF0A4
:10475000BEFCE16A8346281C0CF0B9FC011C5846DB
:104760000CF09EFC2169834604980CF0B0FC011CFF
:1047700058460CF095FC011C50460CF091FC434649
:104780001861BC23301CE1580CF0A1FCA023824628
:10479000E158381C0CF09BFC011C50460CF080FCCE
:1047A00084238246E15807980CF091FCA16E834661
:1047B00006980CF08CFC011C58460CF071FC011C96
:1047C00050460CF06DFCE16C824605980CF07FFCC5
:1047D000216B8346281C0CF07AFC011C58460CF017
:1047E0005FFC6169834604980CF071FC011C58461B
:1047F0000CF056FC011C50460CF052FC4346E16E96
:10480000586106980CF063FC88238246E1580798AB
:104810000CF05DFC011C50460CF042FCA4238246C7
:10482000E158381C0CF053FCC023071CE158301C25
:104830000CF04DFC011C381C0CF032FC011C5046E5
:104840000CF02EFC616B061C281C0CF040FC216D4A
:10485000051C05980CF03BFC011C281C0CF020FCEE
:10486000A169051C04980CF032FC011C281C0CF0FA
:1048700017FC011C301C0CF013FC43469861042308
:104880009C461833E1449C464DABE0444B4500D078
:104890002EE60A9BA146D8249846A427A4004444A7
:1048A000BF00474420000999FFF774FD21009022C2
:1048B0003800C8240CF0E0FEFC21A4004444890028
:1048C0004144182220000CF0D7FECE208121800028
:1048D000C9004144182240440CF0CEFE8422D42367
:1048E000D200424412689B0043441A60D523874A91
:1048F0004546424412889B004344FE211A8000230F
:104900002268B0359200AA1889051160936113637B
:10491000936413669367C922920042441268444626
:104920009200AA18136091611363936413669367EE
:10493000CA2292004244126806269200AA18136006
:1049400093611163936413669367CB229200424490
:10495000126806209200AA18136093611363916491
:1049600013669367CC229200424412689200AA1800
:10497000136093611363936411669367CD22920071
:10498000424412689200AA181360936113639364FF
:104990001366A8235B009B46916742465946E4187C
:1049A00020334344A660E660266153508022920083
:1049B00042444B396260924604933A0006230294C3
:1049C000FF3901960095FCF70BFF42465946049BC0
:1049D000A660E6602661535053464B3963603A0047
:1049E00006230294062001960095FF39FCF75CFB34
:1049F00043461B688C2207934346DB69D3AC08937C
:104A000043469B6B099343465B6D0A9343461B6F7A
:104A10000B9343469B5804320C9343465B681793B1
:104A200043461B6A18934346DB6B0D9343469B6DCD
:104A30000E9343465B6F0F9343469B58043210938B
:104A400043469B68119343465B6A129343461B6C33
:104A500013934346DB6D149343469B6F1593434674
:104A60009B58043216934346DB68199343469B6A6E
:104A7000069343465B6C1A9343461B6E1B93434657
:104A8000DB6F1C9343469B58183A1D9343461B69A2
:104A90001E934346DB6A1F9343469B6C2093434619
:104AA0005B6E219343469B581C32229343469B588E
:104AB000183A239343465B69249343461B6B259323
:104AC0004346DB6C269343469B6E279343469B5895
:104AD0001C32289343469B58183A299343469B69B6
:104AE0002A9343465B6B2B9343461B6D2C934346A3
:104AF000DB6E2D9343469B581C322E9343469B58A6
:104B0000A8462F934B46329302E0C046240400008F
:104B100043461F685B6842469946434641469B6848
:104B2000D2680E694D6908984946049305920CF0C5
:104B3000CEFA0499824609980CF0C9FA011C504635
:104B40000CF0AEFA391C824607980CF0C0FA011C32
:104B500050460CF0A5FA311C82460B980CF0B7FABF
:104B6000291C83460C980CF0B2FA011C58460CF034
:104B700097FA059983460A980CF0A9FA011C584641
:104B80000CF08EFA011C50460CF08AFA494620605F
:104B900018980CF09CFA049982460D980CF097FA3C
:104BA000011C50460CF07CFA391C824617980CF018
:104BB0008EFA011C50460CF073FA311C82460F9895
:104BC0000CF085FA291C834610980CF080FA011C21
:104BD00058460CF065FA059983460E980CF077FA62
:104BE000011C58460CF05CFA011C50460CF058FAB7
:104BF0004946606012980CF06AFA0499824613984C
:104C00000CF065FA011C50460CF04AFA391C824639
:104C100011980CF05CFA011C50460CF041FA311C62
:104C2000824615980CF053FA291C834616980CF00E
:104C30004EFA011C58460CF033FA05998346149835
:104C40000CF045FA011C58460CF02AFA011C50469B
:104C50000CF026FA4946A06006980CF038FA049940
:104C600082461A980CF033FA011C50460CF018FAE0
:104C7000391C824619980CF02AFA011C50460CF097
:104C80000FFA311C82461C980CF021FA291C83462D
:104C90001D980CF01CFA011C58460CF001FA0599FD
:104CA00083461B980CF013FA011C58460CF0F8F9D7
:104CB000011C50460CF0F4F94946E0601F980CF0D6
:104CC00006FA0499824620980CF001FA011C50461D
:104CD0000CF0E6F9391C82461E980CF0F8F9011C1C
:104CE00050460CF0DDF9311C824622980CF0EFF9A9
:104CF000291C834623980CF0EAF9011C58460CF055
:104D0000CFF90599834621980CF0E1F9011C58462A
:104D10000CF0C6F9011C50460CF0C2F9494620615E
:104D200025980CF0D4F90499824626980CF0CFF916
:104D3000011C50460CF0B4F9391C824624980CF042
:104D4000C6F9011C50460CF0ABF9311C824628987C
:104D50000CF0BDF9291C834629980CF0B8F9011C08
:104D600058460CF09DF90599834627980CF0AFF949
:104D7000011C58460CF094F9011C50460CF090F9B7
:104D8000494660612B980CF0A2F9049981462C9851
:104D90000CF09DF9011C48460CF082F9391C814643
:104DA0002A980CF094F9011C48460CF079F9311C52
:104DB000071C2E980CF08BF9291C061C2F980CF060
:104DC00086F9011C301C0CF06BF90599051C2D9817
:104DD0000CF07DF9011C281C0CF062F9011C381C38
:104DE0000CF05EF918239C46A061FDAB1C34E04436
:104DF000A34200D08CE6329BD49A9946D39BD59996
:104E0000D69CD79DD89ED99F06930792DA9BDB9AB2
:104E100008910994DC99DD9C0A950B96DE9DDF9E36
:104E20000C970D93E09FE19B0E92E29A0F911094E4
:104E300011951296139714931592E399E49CE59DAE
:104E4000E69EE79FE89BE99A16911794EA99EB9CF6
:104E500018951996EC9DED9E1A971B93EE9FEF9B6C
:104E60001C921D91F09AF1991E94F29C2096219724
:104E700022932392249125941F95F39DF49EF59FF0
:104E8000F79AF69BF899F99C26952796FA9DFB9E32
:104E90002897FC9F2A923A9A29932B912C942D952E
:104EA0002E962F97D3AB32CA32C332CA32C311689F
:104EB000D3AC1960FD49FE4B09681B680191FD499F
:104EC000FD4A09682000009141A9FDF7D7FF319FF5
:104ED000419938680CF0E1F84299834678680CF003
:104EE000DCF843998246B8680CF0D7F84499041C62
:104EF000F8680CF0D2F84599051C38690CF0CDF82B
:104F00004699061C78690CF0C8F8071C011C2A9801
:104F10000CF0DDF8311C804623980CF0D8F8011C09
:104F200040460CF0BDF8291C80461C980CF0CFF8C8
:104F3000011C40460CF0B4F8211C804615980CF07A
:104F4000C6F8514604900E980CF0C1F8011C049864
:104F50000CF0A6F85946049007980CF0B8F8011C1C
:104F600004980CF09DF8011C40460CF099F83A9A10
:104F700051680CF095F8391C04902B980CF0A7F8A8
:104F8000311C804624980CF0A2F8011C40460CF01D
:104F900087F8291C80461D980CF099F8011C4046A2
:104FA0000CF07EF8211C804616980CF090F85146C3
:104FB00005900F980CF08BF8011C05980CF070F818
:104FC0005946059008980CF082F8011C05980CF0E1
:104FD00067F8011C40460CF063F83A9A91680CF0AF
:104FE0005FF8391C05902C980CF071F8311C804644
:104FF00025980CF06CF8011C40460CF051F8291C67
:1050000080461E980CF063F8011C40460CF048F8EE
:10501000211C804617980CF05AF851463190109890
:105020000CF055F8011C31980CF03AF859463190C3
:1050300009980CF04CF8011C31980CF031F8011C67
:1050400040460CF02DF83A9AD1680CF029F8391C3A
:1050500031902D980CF03BF8311C804626980CF0CE
:1050600036F8011C40460CF01BF8291C80461F989E
:105070000CF02DF8011C40460CF012F8211C804663
:1050800018980CF024F85146329011980CF01FF843
:10509000011C32980CF004F8594632900A980CF032
:1050A00016F8011C32980BF0FBFF011C40460BF078
:1050B000F7FF3A9A11690BF0F3FF391C32902E98E2
:1050C0000CF005F8311C804627980CF000F8011C04
:1050D00040460BF0E5FF291C804620980BF0F7FFB7
:1050E000011C40460BF0DCFF211C804619980BF098
:1050F000EEFF5146339012980BF0E9FF011C3398F4
:105100000BF0CEFF594633900B980BF0E0FF011CDB
:1051100033980BF0C5FF011C40460BF0C1FF3A9AD3
:1051200051690BF0BDFF5146339013980BF0CFFF40
:10513000211C80461A980BF0CAFF011C40460BF058
:10514000AFFF594680460C980BF0C1FF011C40464A
:105150000BF0A6FF311C804628980BF0B8FF391CD5
:1051600034902F980BF0B3FF011C34980BF098FF8C
:10517000291C349021980BF0AAFF011C34980BF0E5
:105180008FFF011C40460BF08BFF3A9A91690BF0A0
:1051900087FF391C804629980BF099FF311C071CAA
:1051A00022980BF094FF011C381C0BF079FF291C8E
:1051B000061C1B980BF08BFF011C301C0BF070FFC2
:1051C000211C051C14980BF082FF5146041C0D98FD
:1051D0000BF07DFF011C201C0BF062FF5946041CE4
:1051E00006980BF074FF011C201C0BF059FF011CEA
:1051F000281C0BF055FF3A9AD3AC11680BF050FF06
:105200003B9B049A18605A60059A9A60319ADA605A
:10521000329A1A61339A5A6142469A614B461B6828
:105220004A46A2934B465B68A3934B469B68A49364
:105230004B46DB68A5934B461B69A6934B465B69BF
:10524000A7934B469B69A8934B46DB69A9934B46B2
:105250001B6AAA934B465B6AAB934B469B6AAC9323
:105260004B46DB6AAD934B461B6BAE934B465B6B79
:10527000AF934B469B6BB0934B46DB6BB1934B4666
:105280001B6CB2934B465B6CB3934B469B6CB493D5
:105290004B46DB6CB5934B461B6DB6934B465B6D33
:1052A000B7934B469B6DB8934B4607E0EC16032033
:1052B000F4160320F01603200AE81C41DB6DB993B5
:1052C0004B461B6EBA934B465B6EBB934B469B6E35
:1052D000BC934B46DB6EBD934B461B6FBE934B4658
:1052E0005B6FBF934B469B6FC0934B46DB6FC19385
:1052F0008023D358C2938423D358C3938823D3588D
:10530000C4938C23D358C5939023D358C693942326
:10531000D358C7939823D358C8939C23D358C99381
:10532000A023D358CA93A423D358CB93A823D358EC
:10533000CC93AC23D358CD93B023D358CE93B4237E
:10534000D358CF93B823D358D093BC23D358D193F9
:10535000C023D358D293309B3092984643461F685F
:105360005B6842469946434641469B68D2680E694F
:105370004D690D984946049305920BF0A8FE0499D7
:10538000824614980BF0A3FE011C50460BF088FED9
:10539000391C824606980BF09AFE011C50460BF011
:1053A0007FFE311C824622980BF091FE291C834619
:1053B00029980BF08CFE011C58460BF071FE0599E4
:1053C00083461B980BF083FE011C58460BF068FEC9
:1053D000011C50460BF064FE494620600E980BF00D
:1053E00076FE0499824615980BF071FE011C50461A
:1053F0000BF056FE391C824607980BF068FE011C24
:1054000050460BF04DFE311C824623980BF05FFE98
:10541000291C83462A980BF05AFE011C58460BF0B3
:105420003FFE059983461C980BF051FE011C58461F
:105430000BF036FE011C50460BF032FE4946606010
:105440000F980BF044FE0499824616980BF03FFE2D
:10545000011C50460BF024FE391C824608980BF0C4
:1054600036FE011C50460BF01BFE311C8246249870
:105470000BF02DFE291C83462B980BF028FE011CF7
:1054800058460BF00DFE059983461D980BF01FFE44
:10549000011C58460BF004FE011C50460BF000FEA8
:1054A0004946A06010980BF012FE049982461798A6
:1054B0000BF00DFE011C50460BF0F2FD391C82462C
:1054C00009980BF004FE011C50460BF0E9FD311C5D
:1054D000824625980BF0FBFD291C83462C980BF087
:1054E000F6FD011C58460BF0DBFD059983461E981E
:1054F0000BF0EDFD011C58460BF0D2FD011C50468F
:105500000BF0CEFD4946E06011980BF0E0FD0499E8
:10551000824618980BF0DBFD011C50460BF0C0FDD5
:10552000391C82460A980BF0D2FD011C50460BF044
:10553000B7FD311C824626980BF0C9FD291C834615
:105540002D980BF0C4FD011C58460BF0A9FD0599E0
:1055500083461F980BF0BBFD011C58460BF0A0FDC5
:10556000011C50460BF09CFD4946206112980BF03F
:10557000AEFD0499824619980BF0A9FD011C504616
:105580000BF08EFD391C82460B980BF0A0FD011C20
:1055900050460BF085FD311C824627980BF097FD95
:1055A000291C83462E980BF092FD011C58460BF0E7
:1055B00077FD0599834620980BF089FD011C58461C
:1055C0000BF06EFD011C50460BF06AFD4946606110
:1055D00013980BF07CFD049981461A980BF077FD27
:1055E000011C48460BF05CFD391C81460C980BF001
:1055F0006EFD011C48460BF053FD311C071C28981A
:105600000BF065FD291C061C2F980BF060FD011C9A
:10561000301C0BF045FD0599051C21980BF057FD3A
:10562000011C281C0BF03CFD011C381C0BF038FD44
:1056300018239C46FFABA06114331C34E044A34202
:1056400000D08BE6309BA2AD99463C93C4234C46D8
:10565000C8464B44089307944246D26843464146A5
:10566000914642469E694C68096892685F691B6969
:105670000491301CFD99069305920BF028FDF699D4
:105680008246381C0BF023FD011C50460BF008FD30
:10569000EF99824606980BF01AFDE8998346484632
:1056A0000BF015FD011C58460BF0FAFC011C50468E
:1056B0000BF0F6FCE199824605980BF008FDDA99AB
:1056C0008346201C0BF003FD011C58460BF0E8FC40
:1056D000D399834604980BF0FAFC011C58460BF052
:1056E000DFFC011C50460BF0DBFC011C28680BF0B2
:1056F000D4FC2860FE99301C0BF0E9FCF799824637
:10570000381C0BF0E4FC011C50460BF0C9FCF0996E
:10571000824606980BF0DBFCE999834648460BF07D
:10572000D6FC011C58460BF0BBFC011C50460BF08C
:10573000B7FCE299824605980BF0C9FCDB998346D9
:10574000201C0BF0C4FC011C58460BF0A9FCD4999A
:10575000834604980BF0BBFC011C58460BF0A0FCE0
:10576000011C50460BF09CFC011C68680BF095FC7A
:10577000FF996860301C0BF0AAFCF8998246381C2F
:105780000BF0A5FC011C50460BF08AFCF1998246F7
:1057900006980BF09CFCEA99834648460BF097FC70
:1057A000011C58460BF07CFC011C50460BF078FCA9
:1057B000E399824605980BF08AFCDC998346201C0D
:1057C0000BF085FC011C58460BF06AFCD59983460A
:1057D00004980BF07CFC011C58460BF061FC011C8A
:1057E00050460BF05DFC011CA8680BF056FCFFABAB
:1057F0005968A860301C04330BF069FCF9998246A3
:10580000381C0BF064FC011C50460BF049FCF2996B
:10581000824606980BF05BFCEB99834648460BF0FA
:1058200056FC011C58460BF03BFC011C50460BF08B
:1058300037FCE499824605980BF049FCDD998346D4
:10584000201C0BF044FC011C58460BF029FCD69997
:10585000834604980BF03BFC011C58460BF020FCDF
:10586000011C50460BF01CFC011CE8680BF015FCF9
:10587000FFAB9968E860301C08330BF028FCFA99FC
:105880008246381C0BF023FC011C50460BF008FC30
:10589000F399824606980BF01AFCEC998346484629
:1058A0000BF015FC011C58460BF0FAFB011C50468E
:1058B0000BF0F6FBE599824605980BF008FCDE99A3
:1058C0008346201C0BF003FC011C58460BF0E8FB40
:1058D000D799834604980BF0FAFB011C58460BF04D
:1058E000DFFB011C50460BF0DBFB011C28690BF0B1
:1058F000D4FBFFABD9682861301C0C330BF0E7FBFD
:10590000FB998246381C0BF0E2FB011C50460BF061
:10591000C7FBF499824606980BF0D9FBED998346B4
:1059200048460BF0D4FB011C58460BF0B9FB011C98
:1059300050460BF0B5FBE699824605980BF0C7FB85
:10594000DF998346201C0BF0C2FB011C58460BF06C
:10595000A7FBD899834604980BF0B9FB011C584665
:105960000BF09EFB011C50460BF09AFB011C686972
:105970000BF093FBEE99686148460BF0A8FBF59994
:10598000814606980BF0A3FB011C48460BF088FBF0
:10599000FC998146381C0BF09AFBFFAB1969071C78
:1059A000301C10330BF093FB011C381C0BF078FB00
:1059B000011C48460BF074FBE099061C201C0BF000
:1059C00086FBE799041C05980BF081FB011C201C49
:1059D0000BF066FBD999041C04980BF078FB011CB2
:1059E000201C0BF05DFB011C301C0BF059FB011C53
:1059F000A8690BF052FB1C239C46089BE044A8615D
:105A00001C35984500D027E6079BA29A99461A6054
:105A1000A39A5A60A49A9A60A59ADA60A69A1A6123
:105A2000A79A5A61A89A9A61A99ADA61AA9A1A62FF
:105A3000AB9A5A62AC9A9A62AD9ADA62AE9A1A63DB
:105A4000AF9A5A63B09A9A63B19ADA63B29A1A64B7
:105A5000B39A5A64B49A9A64B59ADA64B69A1A6593
:105A6000B79A5A65B89A9A65B99ADA65BA9A1A666F
:105A7000BB9A5A66BC9A9A66BD9ADA66BE9A1A674B
:105A8000BF9A5A67C09A9A67C19ADA674A468023D2
:105A9000C299D150C3990433D150C4990433D15021
:105AA000C5990433D150C6990433D150C7990433F2
:105AB000D150C8990433D150C9990433D150CA99EF
:105AC0000433D150CB990433D150CC990433D15005
:105AD000CD990433D150CE990433D150CF990433AA
