:020000041000EA
:1000000000B5324B212058609868022188439860DF
:10001000D860186158612E4B002199600221596106
:100020000121F02299502B49196001219960352056
:1000300000F044F80222904214D00621196600F024
:1000400034F8196E01211966002018661A6600F04E
:100050002CF8196E196E196E052000F02FF8012189
:100060000842F9D1002199601B49196000215960AB
:100070001A491B48016001219960EB211966A021F2
:10008000196600F012F800219960164914480160C1
:100090000121996001BC002800D000471248134993
:1000A000086003C880F30888084703B5996A0420EC
:1000B0000142FBD001200142F8D103BD02B5186610
:1000C0001866FFF7F2FF186E186E02BD00000240BE
:1000D000000000180000070000035F00212200005C
:1000E000F4000018222000A00001001008ED00E03C
:1000F00000000000000000000000000074B24E7A12
:1001000000200420F7010010C3010010C5010010F9
:10011000C1010010C1010010C1010010C101001097
:10012000C1010010C1010010C1010010C701001081
:10013000C1010010C1010010C9010010CB01001065
:10014000CD010010CD010010CD010010CD01001037
:10015000CD010010CD010010CD010010CD01001027
:10016000CD010010CD010010CD010010CD01001017
:10017000CD010010CD010010CD010010CD01001007
:10018000CD010010CD010010CD010010CD010010F7
:10019000CD010010CD010010CD010010CD010010E7
:1001A000CD010010CD010010CD010010CD010010D7
:1001B000CD010010CD010010CD010010CD010010C7
:1001C00000BE00BE00BE00BE00BE00BE00F04BF888
:1001D000103800BEF2EB8871540706107407061041
:1001E0003402001090A31AE700202149086006C8D5
:1001F00081F3088810471F48006800282FD10DA4FC
:100200000ECC002902D000F012F8F9E71A491B4A77
:10021000002000E001C19142FCD1194988471949E9
:1002200088471949884700BEFDE701C901C29A42C3
:10023000FBD3704774070610C00000206422002022
:1002400018290610000004200000042018290610B8
:1002500000100420001004200000000070470B482C
:100260000FF012FC0047EFF30580C0B270470000AA
:1002700008ED00E0000000D070220020A052032012
:1002800045DE00100D0300106DDF00105756000012
:1002900006005250ABB36053204805100600525080
:1002A000861C030230480510060052505422A29DBD
:1002B0003C48051005005250DE65F4681829061008
:1002C000F8B5C04610B5064C2378002B07D1054B76
:1002D000002B02D0044800E000BF0123237010BDB2
:1002E000782700200000000060420510044B10B584
:1002F000002B03D00349044800E000BF10BDC046F6
:10030000000000007C2700206042051070B5192015
:100310000CF08EF8D02380221B0692045A6211F052
:100320006DFC00F04BF807F0C9FE09F0D9FC07F0AE
:100330007BFF02F031FC00F03DF90BF045F80022A4
:100340000524144B1A7007F0B7FA134D013C210035
:10035000280011F047FCFA2080000CF0D7FE002C9A
:10036000F4D10A2011F0AAFA012200210B480CF066
:100370003BFB0B4814F05AF901220A4B0A4C1A7045
:100380002378012BFCD109F067FE2378012BFAD0EA
:10039000F6E7C046825203206042051078510320E0
:1003A0009DA20010815203208652032010B50248FE
:1003B00014F064FC10BDC04650300320092370B512
:1003C00086B0059304330493023B0393013B0293ED
:1003D000023B324D324C0193324B220032493348BA
:1003E00000932B0006F026FF142006F01FFFFA20D2
:1003F00080000CF08BFE2E4E21003200280007F00A
:1004000031F93378682B08D02A4C200011F0A6FA75
:10041000FA2080000CF07AFEF7E773783D2BF3D1D9
:1004200001222100280007F041F9234E320021006B
:10043000280007F075F93378002BF7D1012221004D
:10044000280006F0F1FF0121200006F0CFFF032174
:10045000200006F061FF0321280007F08BF813212C
:10046000200007F0CBF91221200007F005FA002147
:10047000200007F0E3F90321200007F06DF90221C5
:10048000200007F085F95521200006F063FF1821B0
:10049000280007F009F806B070BDC046F816032022
:1004A0009828002040420F00D4150020CC150020D1
:1004B00034520320744205109B520320F0B5C64607
:1004C000334C344D344E22002900300000B507F083
:1004D000DBF86378DB439B0720D023781B0702D42B
:1004E00080BCB846F0BD2D4C06220021200011F042
:1004F000B3F82100300007F097F80023E05E06F023
:1005000001FF274D28600223E05E06F0FBFE6860D5
:100510000423E05E06F0F6FEA860E1E7214B062228
:1005200098461800002111F097F81F4F062200216D
:10053000380011F091F84146280007F057F83900CB
:10054000280007F035F843460020185E06F0C6FE86
:100550004346164D28600220185E06F0BFFE434653
:1005600068600420185E06F0B9FEA8600023F85EFB
:1005700006F0BEFE0E4D28600223F85E06F0B8FEBF
:1005800068600423F85E06F0B3FEA860A5E7C046E5
:100590006C47032098280020F8160320D836032043
:1005A000483C0320C8360320D036032048350320BA
:1005B00068350320F0B5C64600B511F01FFB24498D
:1005C00024480DF077FB03211A200BF001FF0321D3
:1005D0001B200BF0FDFE002201211A200BF010FF62
:1005E000002201211B200BF00BFF1B480CF08EFD9D
:1005F0001A4C1B4E23781B4DDB070ED41A4B0127D8
:100600009846210030880BF0E7FB434628701868B5
:100610000CF07CFD23781F42F3D030880BF0BAF940
:100620000221287030880BF00BFB142128703088D1
:100630000BF03EFA1421287030880BF0A7FB2870CD
:1006400030880BF00BFA287080BCB846F0BDC0466D
:10065000801A0600EC160020B80B00009C52032004
:10066000DC15002089520320E0150020F0B5574624
:10067000DE464E464546E0B58BB0089192461900DD
:1006800005900993DA1703238C46134063449B10AB
:100690009B009846002B00DC90E05246159B0024FE
:1006A0009B000193149B9B1A159A9B1A089A9B0016
:1006B00002935368126819019446049106925146B8
:1006C0009A00039252468D000021013A920007924F
:1006D000002289465900DE00CB189B009B46130080
:1006E000424665440092019A94469C44039B1A1921
:1006F0009F195346002B1EDD069B0598191963466A
:10070000804600989B004344804600940868186027
:100710000098081A845804315C6084599C60C05960
:10072000D86010338D42F1D1434607990093634658
:100730008C4604339C440421029B5A4463448C46F7
:100740001400049A3E00E1449446009A5E446544D5
:100750004A45C8DC1A00009B9846099B434526DDA4
:100760001499159C089B0D1B514609CB6D1A002945
:100770001DDD41469E004B439B00C01853469C0024
:10078000059B47469C46099BAB469846159B994658
:1007900000234A4491006144C558CD5004339C4223
:1007A000FAD1524401375A448019B845F0D10BB000
:1007B000F0BCBB46B246A946A046F0BD0022CCE73D
:1007C000F0B54746CE4680B51F00002B1DDD002A40
:1007D0001BDD9300C0180B68002498464B689100FD
:1007E000D200494252428C4691469B0061464518D0
:1007F0002900A20042441668D21840C18142FAD1B1
:100800004A460134A81AA742F0D1C0BCB946B04646
:10081000F0BDC046F0B5DE464E465746454600237D
:10082000E0B5136083688BB0049305239B460023D7
:100830005E46099202680293013B0790069103927B
:1008400008930523049C9B1B5C439846029BA400D1
:100850009C46039B64449C46644423685D00636833
:100860006D085F007F08291C381C10F06BFC002805
:1008700000D1CCE03D1C0127731C9A46022B37D9CE
:10088000A368291C5B005B08181C994610F05AFCF1
:10089000002801D04D4602275346032B28D0E36899
:1008A000291C5B005B08181C994610F04BFC0028C3
:1008B00001D04D4603275346042B19D02369281C29
:1008C0005B005B08191C994610F02EFC002801D033
:1008D0004D4604275346062B0AD16469281C640040
:1008E0006408211C10F020FC002801D00527251CDD
:1008F000069B029A474400219F50281C10F00CFCD4
:10090000002800D185E0089B013300D1FEE00623DA
:1009100047469B1B9C46079A05939268574367443A
:100920000492BF000599049B0C009A005C43029B53
:1009300000929C46039BA5001A0065448C46914694
:100940009B46924690463B1D6444A4009944043360
:100950005D445C449A44BB44043310379446984445
:100960003B000027634401935B462968186810F038
:10097000A4FB011C206810F086FB2060012E2DD9FD
:100980004B462868196810F098FB011C606810F04D
:100990007AFB6060022E21D053462868196810F057
:1009A0008CFB011CA06810F06EFBA060032E15D01C
:1009B00043462868196810F080FB011CE06810F0BD
:1009C00062FBE060052E09D1019B2968186810F0D0
:1009D00074FB011C206910F056FB2061009B01375D
:1009E0009C4665446444BE42BED1029B013E043332
:1009F0000293059B052B00D023E71A00069B5A6142
:100A00000BB0F0BCBB46B246A946A046F0BD0027DD
:100A100032E7474530D0039902988C46BF006744BF
:100A20008446079A3C6892680B5892000C506144C7
:100A30003B608918BB1808681C680C60186089182E
:100A40009B1808681C680C60186089189B18086857
:100A50001C680C60186089189B1808681C680C607A
:100A6000186089189B1818680A6808601A60099A43
:100A700013680093013313604746079B039A9B68F2
:100A80005F4304930623991B43468C46FB189B0047
:100A900067449C58BF00D51928680591211C10F0A7
:100AA000F8FA2860012E00D83CE7039B3D1D9C46C8
:100AB00065442868211C10F0ECFA2860022E00D151
:100AC00030E7039B3D009C46083565442868211C9F
:100AD00010F0DFFA2860032E00D123E7039B3D00CE
:100AE0009C460C3565442868211C10F0D2FA286019
:100AF000042E00D116E7039A3D0094461035654454
:100B00002868211C10F0C5FA28600BE70623474629
:100B10009B1B9C4605934346079A0893926857434C
:100B200067440492BF00FDE6F0B55746DE464E46E8
:100B30004546E0B599B01493249B8246259C26989F
:100B40005D1C00D1229B651C00D1229C239DEE17C9
:100B500003253540239EB4466544AD10AF000725FC
:100B6000229E0E97AE4335000096149E002E00DCA8
:100B700088E29B001693230110930301D318179367
:100B80006B1EDB0801330391D9015B010F93A300B6
:100B90007C43201880001193131815930023D3462B
:100BA000139108930E9B002B00DCC2E10F9A039B6C
:100BB000944663441293179BD846019300230293F3
:100BC0000298434601000CCB089C5943A44661445B
:100BD000890051180991411C5943614489005118F9
:100BE0000A91811C59436144890051180B91C11C21
:100BF0004B4363449B00D318019E0C93009B34002D
:100C0000002B00DC45E2039B0025994600234C465F
:100C1000AA46AB46A946069504952F1C059507954F
:100C20000D9325683168281C10F047FA594610F0DA
:100C30002DFA71688346281C10F03FFA514610F0D7
:100C400025FAB1688246281C10F037FA079910F08F
:100C50001DFAF1680790281C10F02FFA059910F082
:100C600015FA059065683169281C10F026FA391CC0
:100C700010F00CFA7169071C281C10F01EFA049978
:100C800010F004FAB1690490281C10F016FA0699C5
:100C900010F0FCF9F1690690281C10F00EFA494694
:100CA00010F0F4F98146A568316A281C10F005FAA5
:100CB000594610F0EBF9716A8346281C10F0FDF9D3
:100CC000514610F0E3F9B16A8246281C10F0F5F99C
:100CD000079910F0DBF9F16A0790281C10F0EDF984
:100CE000059910F0D3F90590E568316B281C10F0D8
:100CF000E4F9391C10F0CAF9716B071C281C10F0BC
:100D0000DCF9049910F0C2F9B16B0490281C10F0C2
:100D1000D4F9069910F0BAF9F16B0690281C10F07E
:100D2000CCF9494610F0B2F981462569316C281C8E
:100D300010F0C3F9594610F0A9F9716C8346281CCC
:100D400010F0BBF9514610F0A1F9B16C8246281C95
:100D500010F0B3F9079910F099F9F16C0790281C7D
:100D600010F0ABF9059910F091F905906569316DB6
:100D7000281C10F0A2F9391C10F088F9716D071CBD
:100D8000281C10F09AF9049910F080F9B16D0490C4
:100D9000281C10F092F9069910F078F9F16D069080
:100DA000281C10F08AF9494610F070F98146A569AF
:100DB000316E281C10F081F9594610F067F9716EF8
:100DC0008346281C10F079F9514610F05FF9B16E96
:100DD0008246281C10F071F9079910F057F9F16E4E
:100DE0000790281C10F069F9059910F04FF905904B
:100DF000E569316F281C10F060F9391C10F046F9D4
:100E0000716F071C281C10F058F9049910F03EF976
:100E1000B16F0490281C10F050F9069910F036F9C3
:100E2000F16F0690281C10F048F9494610F02EF991
:100E30008146803620340D9B009A08330D939A42E8
:100E400000DDEEE6139B019C9C46051C5946381CB0
:100E5000644410F01BF95146071C049810F016F971
:100E60000799061C069810F011F905998146281C6F
:100E700010F00CF9129B051C9A46229A009B9A428C
:100E800030DDAB460493534620CB2168281C9A469C
:100E900010F013F9011C381C10F0F8F86168071CF9
:100EA000281C10F00AF9011C301C10F0EFF8A168A2
:100EB000061C281C10F001F9011C484610F0E6F849
:100EC000E1688146281C10F0F8F8011C584610F023
:100ED000DDF88346049B229A0133103404939A422E
:100EE000D1D1051C311C0A9E306810F0CCF8391C99
:100EF000099F041C386810F0C6F8291C0C9D386046
:100F00003460286810F0BFF80B9E4946041C306816
:100F100010F0B9F81099019A8C46029B6244019234
:100F20000E9A0433306002932C609A4200DD47E64B
:100F3000C3460F9A039B944663440E9A0293239BE5
:100F40009246159D934200DC90E05B465C685346F8
:100F50005C43089B2F009C465B461B6864449C4690
:100F6000009BA4006444002B00DC99E00023039F55
:100F700099463B00A04600262F001C0039682068D7
:100F800010F09BF8311C10F081F8061C796860683D
:100F900010F093F8311C10F079F8061CB968A068BD
:100FA00010F08BF8311C10F071F8061CF968E0683D
:100FB00010F083F8311C10F069F8061C39692069BB
:100FC00010F07BF8311C10F061F8061C796960693B
:100FD00010F073F8311C10F059F8061CB969A069BB
:100FE00010F06BF8311C10F051F8061CF969E0693B
:100FF00010F063F8311C10F049F8061C203720343B
:1010000008239C46009BE1444B45B7DC44460F9BBC
:10101000EF18029B0193229A009B9A4217DD994692
:101020000023984643464246F958019B985810F0D1
:1010300044F8011C301C10F029F8061C01239C46C2
:101040000333E1449C46229BE0444B45EAD12068AF
:10105000311C10F018F801239C46119BE2449C4679
:10106000239B20606544534500D06EE71699039A90
:101070008C46089B62440392149A013308939A4267
:1010800000D08FE519B0F0BCBB46B246A946A046D9
:10109000F0BD0025039BA9469A462E1C2F1CECE6AA
:1010A000039B00260193B6E7F0B55746DE464E4651
:1010B00045469C24E0B5BDB006AF3C19FB638423D4
:1010C00020609824BA6694225B003C19FB182160CA
:1010D0001C68BA182369FB67A3681360834202DDAA
:1010E0009423FB18186094239821FB187918FA6F41
:1010F0001B680D68534355432268002A00D1DBE288
:101100009B007B668C23FB181A6090220023BA1880
:1011100013606368AA003A66002B00D1ECE28822D3
:10112000BB670023BA181360C84D2B78BFF35B8FE1
:10113000DB0700D4FDE2C64CA4220423BA181360D6
:101140009433FB181B686068002B18DD9C237A1D04
:10115000FB18FF321B6812681900934200DAFFE2A5
:1011600009010EF0EBFC0323C2171340A4221B1845
:101170009B109B00BA181360042B00DAEBE29C234F
:10118000FB181C68002C00DC72E2FB6BFD6F180082
:101190006A425043F86118008021661B7043F8666C
:1011A000180001335A4392007918BA61621E0E602A
:1011B0001100594389008846B96E1B018C46E044F2
:1011C00041467964A90049423961A1007C1CFF3481
:1011D00024685B42A446A42461443964791DFF312C
:1011E0003C1909682468FB606143B962B02183003F
:1011F0005B4279180B600300921B5043DB43AC2227
:101200009B00BA181360C4227B1DFF331B68BA18F9
:101210009B0078611360A022FB6FBA1813609C22B8
:10122000BA181268934202DDA023FB181A609823B3
:10123000FB181B68002B00DC9FE1A023FB181A6839
:10124000002A00DC99E19823FB181B68396C3B6588
:10125000A423FB181B6853439B00FB62BB6FFB641A
:101260009300CB1A79697B628C46FB6EB82163448C
:101270007B63002379180B60D021BB643B679C33F0
:10128000FB181B6879189B1ABB6013007960032157
:10129000013B043A8B43D31A3B63A422BA183B6D3B
:1012A0001268FB65934200DDFA65B822BA1812682D
:1012B000FB6D9446C8226344BA1813609C237A6A73
:1012C000FB1894461B6884227B673B6FBA189B000F
:1012D00063443B627B6B7B657B6CBB65A023FB1827
:1012E0001B6813608423B422FB181B68BA181360B0
:1012F000042B03DDB4220423BA1813608423FB18E3
:101300001B68002B00DCA5E0B422C820B824BA1862
:101310007B6F116838183C19006824685A1ABA6340
:10132000A04200DC9CE094464E1EB96E9B008A46AB
:10133000043B9B467B6D791C63449B00FF3109682D
:101340009A44BB6C63448C46A8219B006344791883
:101350000B609300C0225B42BA181360BC22BB6DC5
:10136000BA181360BC23FE20FB181B68800519689F
:101370000FF08FFECC23FB181860A823FB181C6805
:10138000B823FB181B68B1461E00C023FB181B685E
:101390005A469846A04443469958CC23FB181868EF
:1013A0000FF08BFE43465A4698504B46051C002BC7
:1013B00022DD534619680FF080FE011C20680FF0F3
:1013C00062FE4B462060012B16D05346281C5968FC
:1013D0000FF073FE011C60680FF055FE4B46606015
:1013E000022B09D05346281C99680FF066FE011C99
:1013F000A0680FF048FEA060C423FB181B680136EC
:101400009C46C823FB181B6864449E42BDD1AC2295
:10141000BC23BA181268FB189446BC221B68BA1881
:10142000634413600423B0225B429C46BA181268DE
:10143000E3449446B4224E46BA181268731EE2443E
:10144000961BB2420CDD1E008CE7C046A01A03209A
:1014500064300320B422BA187B6F12689B1ABB63F6
:101460008423B422BD6BBA18AC46FB1810681B6805
:101470007A1CFF3212681C1A3B6F796863449446E9
:101480009B0063440B607B1DFF331B6880464B60F1
:10149000A0230194FB181E6802000096FB6DF86CF7
:1014A0009B4689468246FFF7E1F8002C2ADD2B0097
:1014B000BA6849469446FD6BBA6E6B438C20634410
:1014C00094464D604D469B003818006863440B609D
:1014D000424623008146FFF773F929007B1DFF3345
:1014E0003D6A1B680D604B600D005B4603964646E7
:1014F0000193524623004946280004940296009620
:10150000FFF712FB84238422F968FB188C46B02174
:101510001B68BA18043B13607A6F7918043A09689B
:101520007A67BA6D62448C46BA657A6D62447A65B0
:101530003A6B934200D0D5E6A422B823BA181268B9
:10154000B8219446FB181B68791863440B60396D09
:101550008A1AF96A3A658C46FA6CB96A62448C4612
:10156000FA643A6F62443A67BA6C6244BA64982289
:10157000BA1812689A4200DD8FE680239C22FB187D
:101580001B68BA181360002B72DD9423FB181B68CC
:10159000002B00DCFEE78023BA6EFB1892461D6824
:1015A000FB6E00249B009A44D023FE1800239B4628
:1015B000013B99469423FB181B68A8469D4200DD19
:1015C0009846CC22A300BA181360FA6B8C20726084
:1015D000A0225344BA1838183100126800683360EA
:1015E0004346FFF7EDF87A1CCC23FF321268FB1854
:1015F00094461B688C21634433607B1DFF331B685A
:10160000791873605B4604934B46039302939823C7
:10161000FB181B6830000193A023FB181B68009384
:10162000BA6F43460968FFF77FFA9423FB181B68DB
:101630009C46ED1A8023FB181B686444A342B9DC66
:10164000FA69FB6E9446BA6963449446FB663A694C
:101650007B6C634494467B643B6CFA6F63443B64ED
:101660008023FB181B689B1A8022BA181360D2E5EE
:1016700080233A6E9B029A4208D98823FB181B6884
:10168000002B03D0043B18680FF0CEFF80237A6E46
:101690009B029A4208D99023FB181B68002B03D0A9
:1016A000043B18680FF0C0FFBD4637B0F0BCBB4626
:1016B000B246A946A046F0BD9A0080237A669B02F6
:1016C0009A424FD813006A461633DB08DB00D31A60
:1016D0009D4627200F23684498438133FB181860E8
:1016E00090238C22FB181B68BA1813606368AA0049
:1016F0003A66002B00D012E580239B029A424FD815
:1017000013006A461633DB08DB00D31A9D462720F8
:101710000F23684498437933FB1818608823FB181B
:101720001B682D4DBB672B78BFF35B8FDB0700D5A4
:1017300001E5280012F0A0FF284C002800D1FBE4AE
:101740008023DB01236080231B0328006360A360E8
:1017500012F0AEFFF0E4A4220423BA1813600EE5E1
:101760001100FDE4100010300FF020FF9023FB1853
:10177000021E1860B4D00F23010099430B00102102
:101780008C468C209C446146DA60236838180160DE
:1017900058425841902340420140FB181960B8E478
:1017A000100010300FF002FF8823FB18186000288B
:1017B000B4D00F23010099430B0010218C46D86050
:1017C00060689C4443425841614688234042B9675F
:1017D000FB1801401960A7E4A01A0320643003201D
:1017E000F0B55746DE464E464546E0B5B3B006AFC7
:1017F0008C24BB62E023FA6288223C19FB1821602A
:101800001C68BA182369786513608422A368BA1823
:101810001360834202DD8423FB181860842388222E
:101820008C21FB18BA18791812681B680D6853438D
:1018300055432268002A00D150E29B00FA678022BB
:101840003B650023BA1813606368AA00FA64002B92
:1018500000D161E2FB660023BB67E74D2B78BFF345
:101860005B8FDB0700D470E2E44C90220423BA18AB
:1018700013608833FB181B686068002B16DDDC22C0
:10188000BA187B6D12681900934200DA74E20901FC
:101890000EF054F90323C217134090221B189B101B
:1018A0009B00BA181360042B00DA60E27B6D002BFA
:1018B00000DCF1E18822B96ABA1808001268BB633B
:1018C00050439B1AB86098207B634B1C99001B0106
:1018D000FB61DC234A43381801607A609020DC22E7
:1018E000FB181B68BA189B009B46FB6A38183B63C1
:1018F000002312680068BB6542437A610A1F3A629E
:101900007B679422BB6BBA1813608822BA181268DE
:10191000934202DD9423FB181A608C23FB181B688A
:10192000002B00DC45E19423FB181A68002A00DC38
:101930003FE18C239021FB181B687918BB641300CE
:101940000968DA464B43D821791809689B008C4610
:101950003B61FB6E9C21FB657B6F79189B006344A8
:10196000FB6000230B60A8213B66791813003960E7
:101970000321013B043A8B43D31ABB619022BA186E
:10198000BB6C1268BB66934200DDBA669C22BA1833
:101990001268BB6E9446FA68634494469B463B6E5D
:1019A0009B006344FB633B6B3B647B6F7B66BB6D5F
:1019B0007B649423FB181B683B679423FB181A680D
:1019C0003B6FD21A7A62A022BA181360042B03DD8F
:1019D000A0220423BA1813603B6F002B58DD9C2310
:1019E000FB181B689B4553DDA023A422FB181B6832
:1019F000BA18013B9946FB6B13603B6C98464B460B
:101A0000002B2EDDA423FB181C689C23FB181E68EA
:101A1000434625685968281C0FF04FFB011C60687D
:101A20000FF031FB4B466060012B16D04346281C5B
:101A300099680FF042FB011CA0680FF024FB4B4695
:101A4000A060022B09D04346281CD9680FF035FB53
:101A5000011CE0680FF017FBE060013654445E455E
:101A6000D6D14B465A1E9823FB181B68A4219C46CE
:101A7000A423FB181B68791804330B60A023FB1800
:101A800019684B46E044CB1A994201DD9146B6E70E
:101A9000A022BA181468D8223B6F796E3E6E8C462D
:101AA0001D1B3300BA1810686344844639689B00D4
:101AB00063440B60DC23FB181B6822004B607B6ACD
:101AC000884601939423FB1818680090BB6EF86D4C
:101AD000FEF7CCFD002D36DD7B6E41469C46786CD2
:101AE000220064440319F86A9B008446B86A634480
:101AF0004860A02038180260F86F0B602B00C146C8
:101B00008046FEF75DFED822BA18331914689B0090
:101B1000A4464C4663442360DC23FB1819687B6AA7
:101B2000616004939423FB181E68A0230396FB189E
:101B30001A6841460292BB6E0092019348462B0000
:101B4000FA6DFEF7F1FF396A7A6C8C46F9696244E6
:101B50008C467A647A6E3B6F04327A663A6C043B48
:101B600062443A64FA6B3B671032FA63BA69934293
:101B700000D022E790229C23BA1812689C21944638
:101B8000FB181B68791863440B60B96C8A1A796971
:101B9000BA648C463A6E396962448C463A66FA6D8C
:101BA0006244FA658C22BA1812689A4200DDE5E6B2
:101BB000D3468822BA1812687B6F94467A6D6344C4
:101BC0007B67934268DA8423FB181B68002B17DCC1
:101BD0008823B968FB188C46BA6B1B68D21ABA63A3
:101BE000BA6D6244BA657A6BD31A7A687B6394469D
:101BF0003B6B63443B6384E6A01A032064300320FC
:101C0000FA6ABB6D92469B009A44A823FE18A93B32
:101C100099467D6B7C6F8423FB181B68A8469D4208
:101C200000DD9846A422A300BA181360BA6A534490
:101C300072609422BA1831001268F86F336043461C
:101C4000FEF7BEFDD822A423BA181268FB189446EA
:101C50001B68300063443360DC23FB181B6873602F
:101C6000002304934B46039302938C23FB181B68B9
:101C700001939423FB181B680093FA6E4346F96F97
:101C8000FEF752FF8423FB181B689C46ED1A7B6D00
:101C90006444A342BFDC9BE78023FA6C9B029A4218
:101CA00006D9BB6F002B03D0043B18680FF0BCFCB7
:101CB00080233A6D9B029A4208D98023FB181B6847
:101CC000002B03D0043B18680FF0AEFCBD462DB0CE
:101CD000F0BCBB46B246A946A046F0BD9A008023A0
:101CE0003A659B029A4249D813006A461633DB08CC
:101CF000DB00D31A9D4627200F2368449843713395
:101D0000FB1818608023FB181B68AA00FB67636838
:101D1000FA64002B00D09DE580239B029A4249D8AB
:101D200013006A461633DB08DB00D31A9D462720D2
:101D30000F2368449843B867BB6F2A4DFB662B7826
:101D4000BFF35B8FDB0700D58EE5280012F094FC13
:101D5000254C002800D188E58023DB012360802307
:101D60001B0328006360A36012F0A2FC7DE59022B3
:101D70000423BA18136099E5110088E510001030AB
:101D80000FF014FC8023FB1818600028BAD00F2332
:101D9000010099430B0010218C46D8609C442368B5
:101DA00061465842584180234042F967FB18014080
:101DB000196049E5100010300FF0F8FBB8670028F3
:101DC000BAD00F23010099430B0010218C46D86034
:101DD00060689C444342584161464042F966014074
:101DE000B9673AE5A01A03206430032030B587B004
:101DF0000D4B02AD00951A68694602929A8804005C
:101E0000AA809B796A46AB71072301930023D373A1
:101E10002FF0C4FB0098A84203D0029901310FF0C3
:101E200037FC200007B030BD88420510F0B5DE4613
:101E300057464E464546E0B51F1CFE4B8FB01D6809
:101E4000FD4B079018680A91011C00920FF01EF9D3
:101E5000FA4B19680FF031F9291C0FF02EF9F84BE5
:101E600019680FF016F9011CFE2080050FF00BF920
:101E7000F44B81461860F44B1E68301C0FF0D0F90B
:101E8000F24B041C1B68301C98460FF0DBF9F04B3A
:101E90008346211C40461E680FF00FF959468246C2
:101EA000301C0FF00AF9011C50460FF0EFF8291C06
:101EB0000FF003F9E74B8246186080231B0643446A
:101EC0001800391C0FF0F9F800998046301C0FF00B
:101ED000F4F8011C40460FF0D9F8DF4B8046196832
:101EE000201C0FF0EAF818990FF0E7F8011C4046A3
:101EF0000FF0CCF8291C0FF0E0F8D84B18991860B7
:101F000080231B068046F0180FF0D7F8291C0FF02D
:101F1000D4F8D34B00901860391C281C0FF0CDF872
:101F2000211C0FF0B6F8CF4CCF4B2668CF4C186071
:101F30002768CF4B83461968381C0FF0BEF8CD4C8C
:101F4000311C2568041C48460FF0B7F8011C201C02
:101F50000FF09CF8C84B041C1968281C0FF0ADF852
:101F6000011C201C0FF092F841460FF08FF8C34B74
:101F70000C901860C24B381C1C68C24B19680FF0DB
:101F80009CF8211C8046301C0FF097F8011C40463D
:101F90000FF07CF8291C804650460FF08EF8011C8B
:101FA00040460FF073F800990FF070F8B64B0890A8
:101FB0001860B64B301C19680FF07FF8B44B061C44
:101FC0001968381C0FF079F8011C301C0FF05EF80E
:101FD000B04B061C1968281C0FF06FF8011C301C50
:101FE0000FF054F859460FF051F8AB4EAB4B356833
:101FF00018604946099048460FF05FF8291C0FF019
:102000005CF8A74B19680FF041F8A64BA64A186078
:1020100012680D90211C484690460FF04EF8291C7E
:102020000FF04BF8A14F061C3F684846391C00973B
:102030000FF043F8011C301C0FF028F85146061C25
:1020400048460FF03AF841460FF037F8011C301CB3
:102050000FF01CF8964B41460190186048460FF06F
:102060002CF8944B02901860291C201C0FF025F8C6
:10207000914D924E29680FF009F83768051C391CFC
:1020800050460FF01AF8011C281C0EF0FFFF061C2A
:10209000011C48460FF011F8894B8A4A18608A4B98
:1020A00012681B68039005930492884D50462D6872
:1020B000291C06950FF001F84146051C201C0EF066
:1020C000FCFF834B19680EF0E1FF291C0EF0DEFFC8
:1020D000311C8346201C0EF0F0FF0099061C201CCA
:1020E0000EF0EBFF011C301C0EF0D0FF05990EF036
:1020F000CDFF049B061C191C504698460EF0DDFFD0
:10210000011C301C0EF0C2FF5946061C50460EF052
:10211000D4FF011C301C0EF0B9FF6E4B5E461968EF
:102120000EF0B4FF6C4B009018606C4B391C1E60B5
:1021300048460EF0C2FF6A4B04901860391C201C00
:102140000EF0BBFF41460EF0A1FF291C0EF09EFFD2
:10215000644B041C1860644B196806980EF096FFD7
:10216000624B0899071C186007980EF08CFF604BB3
:102170000999069018600A980EF085FF5D4B07904C
:1021800018605D4B059819680EF080FF5B4B061CCC
:10219000186058465A4B059718605A4B381C1C60FB
:1021A000594B19680EF072FF584B071C1860011C40
:1021B000301C0EF082FF211C051C58460EF07DFFDE
:1021C000011C281C0EF05FFF051C011C381C0EF0C2
:1021D00060FF4F4B071C186080231B065B44291CC3
:1021E00018000EF056FF4B4B8146186080231B06EB
:1021F000E018291C0EF04DFF474B82461860291C41
:10220000301C0EF046FF454B80461860391C019883
:102210000A970EF052FF029E5146051C301C0EF02C
:102220004CFF011C281C0EF031FF3D4B071C1860B1
:10223000494677E008160020E415002080180320A6
:1022400010160020803703204C1600205016002066
:10225000541600209037032004160020D851032084
:10226000DC510320AC180320E0510320B0180320F8
:1022700084370320B418032088370320B8180320BC
:102280008C370320FC150020BC1803209437032052
:10229000983703200016002014160020C0180320D1
:1022A0002C16002018160020644603205C460320EC
:1022B00060460320684603206C4603207C460320CA
:1022C00070460320844603201C160020241600209C
:1022D0007446032030160020201600207846032084
:1022E000804603208846032034160020281600204C
:1022F0006C37032070370320381600203C51032030
:1023000040510320445103203C1600204851032033
:102310004C510320505103205451032058510320A5
:10232000AC28002001980EF0C8FE4146051C301C68
:102330000EF0C3FE011C281C0EF0A8FE914B061CDB
:102340000A99186000980EF0B8FE5146051C5846D0
:102350000EF0B3FE011C281C0EF098FE8A4B494675
:1023600018600B9000980EF0A8FE4146051C5846D8
:102370000EF0A3FE011C281C0EF088FE834B051CEA
:102380000A991860201C0EF098FE51460A90059894
:102390000EF093FE011C0A980EF078FE7C4B8246EC
:1023A00018604946201C0EF088FE4146814605987B
:1023B0000EF083FE011C48460EF068FE754B814608
:1023C0001860391C06980EF078FE0C990EF05EFE2F
:1023D000311C804607980EF070FE011C40460EF03E
:1023E00055FE6D4B0B99186006980EF066FE089925
:1023F0000EF04CFE291C804607980EF05EFE011C74
:1024000040460EF043FE654B5146186006980EF0AC
:1024100054FE09990EF03AFE4946804607980EF0A0
:102420004CFE011C40460EF031FE5D4B391C18601D
:1024300003980EF042FE011C0D980EF024FE311C94
:10244000804604980EF039FE011C40460EF01BFE3B
:10245000544B391C186000980EF02FFE011C019897
:102460000EF011FE311C8046201C0EF026FE011CD1
:1024700040460EF008FE4C4B391C186058460EF0D2
:102480001CFE011C02980EF0FEFD059B071C311C72
:10249000181C98460EF011FE011C381C0EF0F3FDBE
:1024A000424B0B991860FE2080050EF0ECFD061CD7
:1024B000011C03980EF001FE291C071C04980EF065
:1024C000FCFD011C381C0EF0DEFD394B311C186080
:1024D00000980EF0F2FD291C071C201C0EF0EDFDEB
:1024E000011C381C0EF0CFFD324B311C18605846D1
:1024F0000EF0E3FD291C061C40460EF0DEFD011C1B
:10250000301C0EF0C0FD2C4B49461860FE208005A3
:102510000EF0B9FD051C011C04980EF0CEFD5146CD
:10252000061C03980EF0C9FD011C301C0EF0ABFD1B
:10253000224B291C1860201C0EF0BFFD5146041CC4
:1025400000980EF0BAFD011C201C0EF09CFD1C4BE7
:10255000291C186040460EF0B0FD5146041C584638
:102560000EF0ABFD011C201C0EF08DFD154B18600C
:10257000FE2080050FB0F0BCBB46B246A946A0467F
:10258000F0BDC046B0280020B4280020B8280020A4
:10259000BC280020C0280020AC180320B01803205D
:1025A000B4180320141600205C4603206446032060
:1025B0006C4603201C160020744603207C46032032
:1025C0008446032024160020F0B5DE4657464E46CA
:1025D0004546E24BE0B51860E14B0D1C1B68E14C31
:1025E00098464146E04BE4681960DD4989B0496886
:1025F000069059608946DB4BDA491F684E68DB4B11
:1026000089681F605E609960DC60D94B05949A68A8
:1026100058681C68029204910190DB68211C4046B6
:1026200003930EF04AFD0299824648460EF045FD9E
:10263000011C50460EF02AFDCE4B82461968281C1C
:102640009B460EF03AFD011C50460EF01FFDCA4B92
:1026500001991860079040469A460EF02EFD0399A6
:10266000804648460EF029FD011C40460EF00EFD46
:102670005B4680465968281C0EF01FFD011C404631
:102680000EF004FD554683466860211C381C0EF090
:1026900014FD029A051C111C301C90460EF00DFD15
:1026A000011C281C0EF0F2FC01998146381C0EF02A
:1026B00004FD039F051C391C301C0EF0FEFC011CA0
:1026C000281C0EF0E3FC211C824604980EF0F5FC59
:1026D0004146051C05980EF0F0FC011C281C0EF06C
:1026E000D5FC46460199804604980EF0E6FC391C5C
:1026F000051C05980EF0E1FC011C281C0EF0C6FC20
:102700004946071C201C0EF0D8FC4146051C301C15
:102710000EF0D3FC011C281C0EF0B8FC974E31685B
:102720000EF0B4FC964D514604902860201C0EF02B
:10273000C4FC391C041C02980EF0BFFC011C201CB8
:102740000EF0A4FC71680EF0A1FC4946029068608E
:1027500001980EF0B2FC039A4146041C101C9146ED
:102760000EF0ABFC011C201C0EF090FCB1680EF0CA
:102770008DFC5146041CA86001980EF09EFC391C8B
:10278000804648460EF099FC011C40460EF07EFC47
:10279000F1680EF07BFCE8607A4D071C2E68049807
:1027A000311C0EF08AFC6D688046291C381C01978C
:1027B0000EF083FC291C824602980EF07EFC4146F6
:1027C0000EF064FC311C0EF078FC311C071C201C40
:1027D0000EF073FC51460EF059FC291C0EF06DFCF6
:1027E000011C381C0EF052FC674B19680EF04EFCB1
:1027F000664B071C1860291C201C0EF05EFC41462D
:102800000EF044FC391C0EF044FC614980468946B8
:1028100008600298311C0EF050FC51460EF036FC58
:10282000391C0EF036FC4946079B071C4860181CF3
:10283000311C9A460EF041FC291C814658460EF088
:102840003CFC011C48460EF021FC011C06980EF0D1
:102850001AFC414681460EF030FC51460EF016FC43
:102860003F4A391C106048460EF027FC59460EF0CE
:102870000DFC3B4A81465060464A311C9346404617
:102880000EF01BFC5A46011C10680EF0FCFB311CBC
:102890008246381C0EF011FC5A46011C50680EF09E
:1028A000F2FB291C061C40460EF007FC5A46011C90
:1028B00090680EF0E8FB291C8046381C0EF0FDFBEA
:1028C0005A46011CD0680EF0DEFB5146051C0498E8
:1028D0000EF0F3FB029B4146071C181C9B460EF0B2
:1028E000ECFB011C381C0EF0D1FB1E4A311C1060A1
:1028F00004980EF0E2FB291C071C58460EF0DDFB85
:10290000011C381C0EF0C2FB164B51465860201CAF
:102910000EF0D3FB019B4146071C181C98460EF095
:10292000CCFB011C381C0EF0B1FB0E4B311C986027
:10293000201C0EF0C2FB291C041C40460EF0BDFBFF
:10294000011C201C0EF0A2FB064BD860484609B0C3
:10295000F0BCBB46B246A946A046F0BD6852032073
:1029600018460320B0230020E83B0320F02300207A
:1029700010240020B4360320284603200023002022
:10298000D02300203C4603203C180320D43B0320E6
:10299000A428002030240020F0B5DE4657464E46DD
:1029A0004546E0B5674B83B059689A460EF06BFB1D
:1029B000654B051C1860654B1B689B46644B59466C
:1029C0001C680EF063FB211C0EF077FB614B061CAC
:1029D0001868011C0EF05AFB011C301C0EF059FB4C
:1029E0005D4E31680EF052FB5C4B00903060186811
:1029F000011C0EF04BFB5A4B061C1A68111C914629
:102A00000EF05BFB8046011C201C0EF03FFB211CDE
:102A1000071C40460EF037FB524A116890460EF0F4
:102A20004CFB391C0EF035FB4946019048460EF030
:102A30002DFB59468146281C0EF025FB011C4846FB
:102A40000EF03BFB391C0EF024FB011C01980EF02C
:102A50001DFB424600991060071C281C0EF016FB57
:102A6000391C0EF013FB404B19680EF026FB3F4B50
:102A700018603F4B1860534619680EF004FB3D4B3D
:102A8000051C18603C4B1B68191C9A460EF0FEFA98
:102A9000211C0EF012FB394B80461868011C0EF009
:102AA000F5FA011C40460EF0F4FA354B99461968C8
:102AB0000EF0ECFA4B461860324B80461B68301C17
:102AC000191C99460EF0F9FA8346011C201C0EF0E1
:102AD000DDFA4946061C48460EF0D8FA51468146B2
:102AE000281C0EF0D0FA011C48460EF0E6FA311C04
:102AF0000EF0CFFA211C814658460EF0C4FA391C5C
:102B00000EF0DBFA311C0EF0C4FA011C48460EF040
:102B1000BDFA1D4B41461860041C281C0EF0B6FA85
:102B2000211C0EF0B3FA194B19680EF0C6FA184BB7
:102B30001860184B186003B0F0BCBB46B246A946FB
:102B4000A046F0BD1846032078370320E03B032061
:102B50000C160020E8150020CC3B0320F8150020BF
:102B6000D428002054370320F0150020E45103201E
:102B7000D45103207C370320E43B0320EC150020D4
:102B8000D03B0320D828002058370320F41500201C
:102B9000E8510320EC510320F8B5FE250024194B21
:102BA000AD051D60DD609C605C60174B174F1D60BC
:102BB000DD609C605C60164B1E68164B301C19680B
:102BC0000EF067FA144B38601D605C60DD609C603D
:102BD000124B7C601D605E60DD609C60104B1C6071
:102BE0005D60104B1868011C0EF067FA0E4B0F4A1F
:102BF000186012680E4B1A600E4A9C6012685C6086
:102C0000DA60F8BDB0230020D0230020B4360320C2
:102C10000C16002010160020302400201024002064
:102C20003C460320481600203C18032024180320AB
:102C30000023002020180320F0B5DE4657464E46FC
:102C40004546E0B50E000168C768894641680569D8
:102C50008A4681688DB08B464169806907930690EA
:102C600050681368926805910A90291C30680B928D
:102C7000099308950EF007FA0599039070680EF015
:102C800002FA0699051CB0680EF0FDF98026804610
:102C9000360607980EF0AAFAB446039B00900191FD
:102CA0006344180051460EF008FA5946061C281CC9
:102CB0000EF003FA011C301C0EF0E5F9391C061C5D
:102CC000404604970EF0F9F9011C301C0EF0DBF9B8
:102CD0000EF08CFA0022684B0DF0AFF9009A019BC0
:102CE0000DF0ABF9060048460F000EF07FFA020027
:102CF0000B0030003900169C0DF078F90DF0A2FAA7
:102D00004946206003980EF0D8F95946061C404603
:102D10000EF0D3F9011C301C0EF0B8F90499061C12
:102D2000281C0EF0CAF9011C301C0EF0ACF90EF094
:102D30005DFA0022504B0DF080F9009A019B0DF0D6
:102D40007CF9060050460F000EF050FA02000B000E
:102D5000300039000DF04AF90DF074FA4946606010
:102D6000281C0EF0AAF95146061C40460EF0A5F9A3
:102D7000011C301C0EF087F90499061C03980EF014
:102D80009CF9011C301C0EF081F90EF02FFA002284
:102D9000394B0DF052F9009A019B0DF04EF90600E7
:102DA00058460F000EF022FA02000B0030003900E6
:102DB0000DF01CF90DF046FA4946A06040460EF0B1
:102DC0007CF95146061C281C0EF077F9011C301CBA
:102DD0000EF05CF95946051C03980EF06EF9011CC3
:102DE000281C0EF050F90EF001FA0022224B0DF0D3
:102DF00024F9009A019B0DF020F9060004980F00B9
:102E00000EF0F4F902000B00300039000DF0EEF87E
:102E10000DF018FA089B0999E060181C98460EF00E
:102E20004CF9079D291C0EF048F9011C40460EF094
:102E30002AF9059F0A992061381C0EF03EF9291CD9
:102E40000EF03BF9011C381C0EF01DF9069E0B9983
:102E50006061301C0EF031F9291C0EF02EF9011CB6
:102E6000301C0EF010F9A06100200DB0F0BCBB4684
:102E7000B246A946A046F0BD0000E03FF0B5DE46F0
:102E800057464E4645468A464168E0B58846C7687B
:102E9000816891B0066889464046391C141C049329
:102EA0000EF00BF94946051C301C0EF006F90A908D
:102EB000011C281C09950EF0E6F80EF097F90200A7
:102EC0000B000DF093F806900791201C02940EF071
:102ED0008DF90B00020004000D00069807990DF013
:102EE000ACF80DF0AFF95246391C106048460EF0B0
:102EF000E4F883464146301C0EF0DFF85A460E9047
:102F0000011C58460B920EF0C1F80EF06FF902004A
:102F10000B000DF06BF802000B00200029000C9252
:102F20000D930DF08AF80DF08DF95446311C606058
:102F3000301C0EF0C2F84146041C40460EF0BDF8AD
:102F4000051C011C201C0EF09EF8494608904846BE
:102F50000EF0B3F8391C8346381C0EF0AEF8594613
:102F6000019008980EF08FF801990EF08FF80299F1
:102F70000F900EF0A2F853464946986040460EF076
:102F80009CF8391C8046301C0EF097F881461A9840
:102F90000EF02CF906001B980F000EF027F9029096
:102FA0000391291C201C0EF071F859460EF06BF8A5
:102FB00001990EF068F804990EF07FF80EF016F9FA
:102FC00004000D00404649460EF060F80EF00EF980
:102FD00002000B000DF00AF832003B000DF02DF856
:102FE00002000B00200029000DF000F8029A039B5C
:102FF00004000D00069807990DF01FF802000B0061
:10300000200029000CF0F2FF0DF01CF95346D860A7
:1030100004980EF0EBF804000D00404649460EF00F
:1030200032F80EF0E3F802000B000CF0DFFF220094
:103030002B00049405950DF000F804000D0008988D
:1030400059460EF023F801990EF01DF81A990EF06A
:1030500034F80EF0CBF802000B00200029000CF031
:10306000C5FF029A039B04000D000C980D990CF00B
:10307000E4FF02000B00200029000CF0B7FF0DF068
:10308000E1F853460A99186109980DF0FFFF0EF018
:10309000ADF802000B000CF0A9FF049A059B0CF0A0
:1030A000CCFF04000D000B980E990DF0ECFF0EF014
:1030B0009DF802000B000CF099FF32003B000CF071
:1030C000BCFF02000B00200029000CF08FFF040061
:1030D0000D000F981B990DF0F0FF0EF087F802001D
:1030E0000B00200029000CF081FF0DF0ABF85346D7
:1030F0005861002011B0F0BCBB46B246A946A046BC
:10310000F0BDC046F0B50400DE4657464E46454683
:103110000800E0B545680968AA46856895B0AB46E1
:10312000C5684669876910910E95016955681068F0
:103130009268049690461A68069711925A689B689E
:1031400012921393FE239B05236099460DF09BFF7B
:103150000EF04CF8009001911E980EF047F8060012
:103160000F00009801990022924B0CF066FF32008C
:103170003B000CF062FF0DF065F804990390E061EC
:10318000281C0DF080FF0EF031F80022894B0490CE
:1031900005910CF052FF32003B000CF04EFF0DF099
:1031A00051F80699051CA06340460DF06CFF0EF027
:1031B0001DF800227F4B069007910CF03EFF320075
:1031C0003B000CF03AFF0DF03DF80A906065504668
:1031D0000EF00CF80022784B089009910CF02DFFAE
:1031E00032003B000CF029FF0DF02CF80B9020670B
:1031F00058460DF0FBFF00226F4B0C900D910CF028
:103200001CFF32003B000CF018FF0DF01BF88C2364
:103210008246E0500E980DF0E9FF0022664B0E90BA
:103220000F910CF00AFF32003B000CF006FF0DF08E
:1032300009F8A8238346E0500022009801995E4BCC
:103240000CF0FBFE32003B000CF0F7FE0CF0FAFF36
:103250004946009060602162002206980799564B0B
:103260000CF0EBFE32003B000CF0E7FE0CF0EAFF46
:10327000A5658046E06310980DF0B8FF00224D4B25
:103280000CF0DBFE32003B000CF0D7FE0CF0DAFF56
:1032900059469023051C60670022E1500C980D9957
:1032A000444B0CF0CAFE32003B000CF0C6FE0CF0A2
:1032B000C9FFAC230022E050049805993E4B0CF066
:1032C000BCFE32003B000CF0B8FE0CF0BBFF4946E0
:1032D0000A9A83466262009AA0602164E2650E98B1
:1032E0000F990022334B0CF0A8FE32003B000CF08B
:1032F000A4FE0CF0A7FF94230B99A067E5501C33A4
:10330000E1504146E1605946A16249462166514675
:10331000039BE1676364089809990022254B0CF030
:103320008CFE32003B000CF088FE0CF08BFF9823E3
:10333000E0501C33E55000251E9911982561E56287
:10334000A56465660DF0B9FE011C48460DF09BFEB4
:103350008023E0501C33E5501C33E550343B1E996C
:10336000129865612563E564A566E5500DF0A5FE3C
:10337000011C48460DF087FEA023E0501C33E550A9
:10338000343BA56165632565E566E5501C33E55072
:103390001E9913980DF091FE011C48460DF073FE26
:1033A000C023E050002015B0F0BCBB46B246A94691
:1033B000A046F0BD0000E0BF0000E03FF0B5DE46F3
:1033C00057464E464546E0B59A460B68141C8A6837
:1033D0009B464B68C9688BB00500101C884600935B
:1033E00001920DF003FF02900391201C0DF0FEFEF0
:1033F000C02306000F000298039900221B060CF060
:103400001CFE32003B000CF018FE0CF01BFF089075
:10341000286040460DF0EAFE02000B000CF0E6FDCD
:1034200032003B000CF009FE0CF00CFF041CA861FC
:1034300058460DF0DBFEC02300221B0604900591C8
:103440000CF0FBFD32003B000CF0F7FD0CF0FAFE37
:10345000286300980DF0CAFE02000B000690079149
:103460000CF0C4FD32003B000CF0E7FD0CF0EAFE6E
:10347000002190238946A8642966A967E9506860FD
:103480000498059902000B000CF0B0FD32003B00DF
:103490000CF0D3FD0CF0D6FE6C630490E86102984A
:1034A000039902000B000CF0A1FD32003B000CF070
:1034B000C4FD0CF0C7FE49469423E8646966E967D9
:1034C000E950C02306980799049A1B06AA600022B7
:1034D0000CF0B3FD32003B000CF0AFFD0CF0B2FE7F
:1034E000089B4946AB63802328622C65A966E95096
:1034F0001833E950404614990DF0DFFD019F1599EE
:10350000061C381C0DF0D9FD5146041C58460DF020
:10351000D4FD311C0DF0BAFD211C06940DF0B3FD55
:10352000011C0DF0B3FD51460990E86000980DF0C4
:10353000C4FD1499041C381C0DF0BFFD011C201C97
:103540000DF0A4FD1599041C40460DF0B6FD011CBC
:10355000201C0DF09BFD011C0DF098FD14990290AC
:10356000686200980DF0A9FD1599089058460DF075
:10357000A4FD019A8024944624066444071C514605
:1035800020000DF09AFD08990DF080FD391C0DF01A
:103590007AFD011C0DF07AFD1499E86358460DF090
:1035A0008CFD1599049000980DF087FD802212067D
:1035B0004244041C514610000DF07FFD04990DF0AB
:1035C00065FD211C0DF062FD011C0DF05FFD4A46FA
:1035D0008423EA666865EA501833EA505146286148
:1035E00001980DF06AFD08990DF04DFD391C0DF0A4
:1035F0004DFD011C0DF04AFD071CA8628020029BB6
:1036000000062B64514658440DF057FD311C0DF057
:103610003AFD06990DF03AFD011C0DF037FD8823A7
:10362000A86548462867E8501833E8505146404698
:103630006F610DF042FD04990DF025FD211C0DF088
:1036400022FD011C0DF022FD099AE8626A64029BCA
:103650004A46EB654B466B678C230020EA501833D3
:10366000EA500BB0F0BCBB46B246A946A046F0BD3E
:103670000123F0B5E3214746CE469C46294B8046C0
:1036800005009946284E80B58900076846444144A4
:10369000FA0F6F68D2077B005B08346813435A083F
:1036A000624064461C4201D04B465A4004C5043671
:1036B000A942EDD1E32342469B00C626D458194BBC
:1036C00001259C46F6004644E20F4C68D207630091
:1036D0005B08076813435A087A401D4201D06346CD
:1036E0005A40043004C1B042EED14246C6214046A1
:1036F0000E4BC900D3581268DB0F52005208DB078B
:10370000415813435A084A40DB0701D5054B5A403C
:103710004146064BCA5000220433CA50C0BCB946C9
:10372000B046F0BDDFB0089934060000BC090000C7
:10373000F0B54546DE4657464E46E0B53B4CD723EE
:10374000A54434AA944663441B091B018A68059367
:103750000B68019237921A68049006929A69339125
:1037600007921A6B38AC08929A6C09921A6E0B92F7
:103770009A6F0C9290229A580D925A680E92DA69BA
:103780000F925A6B1092DA6C11925A6E1292DA6F93
:10379000139294229A5814929A6815921A6A169261
:1037A0009A6B17921A6D18929A6E199280229A58F3
:1037B0001A9298229A581B92DA681C925A6A1D92A1
:1037C000DA6B1E925A6D1F92DA6E209284229A58FA
:1037D00021929C229A5822921A6923929A6A2492E0
:1037E0001A6C25929A6D26921A6F279288229A58FF
:1037F0002892A0229A5829925A692A92DA6A2B9220
:103800005A6C2C92DA6D2D925A6F2E928C229A5805
:103810002F92A4229B5830934B68984638AB329332
:10382000C423454643440A9302E0C0469CFDFFFF83
:10383000EA68A96991462A69AB6890466A6909985D
:1038400003914946019302920DF037FC41468246AE
:103850000B980DF032FC011C50460DF017FC02993C
:1038600082460C980DF029FC039983460D980DF0C3
:1038700024FC011C58460DF009FC011C50460DF0BB
:1038800005FC6F688246391C07980DF016FC0199FB
:10389000834608980DF011FC011C58460DF0F6FB0C
:1038A0002E688346311C06980DF007FC011C584613
:1038B0000DF0ECFB011C50460DF0E8FB4946206082
:1038C00011980DF0FAFB4146824612980DF0F5FB77
:1038D000011C50460DF0DAFB0299824613980DF058
:1038E000ECFB0399834614980DF0E7FB011C584646
:1038F0000DF0CCFB011C50460DF0C8FB391C824674
:103900000F980DF0DAFB0199834610980DF0D5FB66
:10391000011C58460DF0BAFB311C83460E980DF081
:10392000CCFB011C58460DF0B1FB011C50460DF0BC
:10393000ADFB4946606018980DF0BFFB41468246DA
:1039400019980DF0BAFB011C50460DF09FFB02992F
:1039500082461A980DF0B1FB039983461B980DF02F
:10396000ACFB011C58460DF091FB011C50460DF0BC
:103970008DFB391C824616980DF09FFB01998346FA
:1039800017980DF09AFB011C58460DF07FFB311C77
:10399000834615980DF091FB011C58460DF076FBFF
:1039A000011C50460DF072FB4946A0601F980DF0B7
:1039B00084FB4146824620980DF07FFB011C504657
:1039C0000DF064FB0299824621980DF076FB039975
:1039D000834622980DF071FB011C58460DF056FBF2
:1039E000011C50460DF052FB391C82461D980DF00B
:1039F00064FB019983461E980DF05FFB011C58463D
:103A00000DF044FB311C83461C980DF056FB011C45
:103A100058460DF03BFB011C50460DF037FB494664
:103A2000E06026980DF049FB4146824627980DF04C
:103A300044FB011C50460DF029FB02998246289850
:103A40000DF03BFB0399834629980DF036FB011CD2
:103A500058460DF01BFB011C50460DF017FB391C9E
:103A6000824624980DF029FB0199834625980DF094
:103A700024FB011C58460DF009FB311C834623989A
:103A80000DF01BFB011C58460DF000FB011C5046BD
:103A90000DF0FCFA2D99206148460DF00EFB2E9991
:103AA000814640460DF009FB011C48460DF0EEFA38
:103AB0002F99804602980DF000FB309981460398BB
:103AC0000DF0FBFA011C48460DF0E0FA011C4046DF
:103AD0000DF0DCFA391C80462B980DF0EEFA2C998B
:103AE000071C01980DF0E9FA011C381C0DF0CEFA04
:103AF000311C071C2A980DF0E0FA011C381C0DF04F
:103B0000C5FA011C40460DF0C1FA0A9B1C356061E4
:103B10001834AB4200D08BE6379B1A686293089248
:103B20009A6909921A6B0A929A6C0B921A6E0C920D
:103B30009A6F0D9290229A580E925A680F92DA69F3
:103B400010925A6B1192DA6C12925A6E1392DA6FCB
:103B5000149294229A5815929A6816921A6A179299
:103B60009A6B18921A6D19929A6E1A9280229A582C
:103B70001B9298229A581C92DA681D925A6A1E92D9
:103B8000DA6B1F925A6D2092DA6E219284229A5833
:103B900022929C229A5823921A6924929A6A259218
:103BA0001A6C26929A6D059C27921A6F20342892DF
:103BB00088229A58A1462992A0229A582A925A6994
:103BC0002B92DA6A2C925A6C2D92DA6D2E925A6FE1
:103BD0002F928C229A583092A4229B5831935CAB3E
:103BE00006933EAB0793329B984643464246414676
:103BF00040461B6895690193069B146B096E926C95
:103C000040CB876F0291101C0B99039206930DF025
:103C100054FA0C99824602980DF04FFA011C504656
:103C20000DF034FA0D998246381C0DF046FA0E99C3
:103C30008346301C0DF041FA011C58460DF026FA5F
:103C4000011C50460DF022FA09998246281C0DF0FD
:103C500034FA0A998346201C0DF02FFA011C5846AD
:103C60000DF014FA0899834601980DF026FA011C0C
:103C700058460DF00BFA011C50460DF007FA4B4662
:103C80001299186003980DF018FA13998246029859
:103C90000DF013FA011C50460DF0F8F91499824604
:103CA000381C0DF00AFA15998346301C0DF005FA00
:103CB000011C58460DF0EAF9011C50460DF0E6F9DA
:103CC00010998246281C0DF0F8F911998346201CA2
:103CD0000DF0F3F9011C58460DF0D8F90F99834601
:103CE00001980DF0EAF9011C58460DF0CFF9011CBE
:103CF00050460DF0CBF94B461999586003980DF0DA
:103D0000DCF91A99824602980DF0D7F9011C504649
:103D10000DF0BCF91B998246381C0DF0CEF91C99A8
:103D20008346301C0DF0C9F9011C58460DF0AEF960
:103D3000011C50460DF0AAF917998246281C0DF077
:103D4000BCF918998346201C0DF0B7F9011C5846A0
:103D50000DF09CF91699834601980DF0AEF9011CFF
:103D600058460DF093F9011C50460DF08FF94B4663
:103D70002099986003980DF0A0F921998246029845
:103D80000DF09BF9011C50460DF080F922998246F6
:103D9000381C0DF092F923998346301C0DF08DF9F3
:103DA000011C58460DF072F9011C50460DF06EF9D9
:103DB0001E998246281C0DF080F91F998346201C0D
:103DC0000DF07BF9011C58460DF060F91D998346F2
:103DD00001980DF072F9011C58460DF057F9011CBD
:103DE00050460DF053F94B462799D86003980DF0D3
:103DF00064F92899824602980DF05FF9011C50463B
:103E00000DF044F929998246381C0DF056F92A998B
:103E10008346301C0DF051F9011C58460DF036F95F
:103E2000011C50460DF032F925998246281C0DF0F0
:103E300044F926998346201C0DF03FF9011C584691
:103E40000DF024F92499834601980DF036F9011CF0
:103E500058460DF01BF9011C50460DF017F94B4662
:103E60002E99186103980DF028F92F99824602982F
:103E70000DF023F9011C50460DF008F930998246E7
:103E8000381C0DF01AF93199071C301C0DF015F98A
:103E9000011C381C0DF0FAF8011C50460DF0F6F824
:103EA0002C99061C281C0DF008F92D99051C201CC6
:103EB0000DF003F9011C281C0DF0E8F82B99041CE7
:103EC00001980DF0FAF8011C201C0DF0DFF8011C20
:103ED000301C0DF0DBF84B46586104239C4614332C
:103EE000E0449C46079BE144984500D07DE6339B27
:103EF000059DDC68296A20680DF0C8F8049EA96B4E
:103F0000306060680DF0C2F87060A068296D0DF037
:103F1000BDF8B060E068A96E0DF0B8F88023F060DD
:103F20002069E95898460DF0B1F898233061E958B6
:103F300060690DF0ABF87061A069696A0DF0A6F8D0
:103F4000B061E069E96B0DF0A1F8F061206A696D7C
:103F50000DF09CF83062E96E606A0DF097F88427E6
:103F60007062A06AE9590DF091F89C23B062E9589B
:103F7000E06A0DF08BF8F062206BA96A0DF086F80C
:103F80003063606B296C0DF081F87063A06BA96DD4
:103F90000DF07CF8B063E06B296F0DF077F8F063FB
:103FA0008826206CA9590DF071F8049B1864A02391
:103FB000606CE9580DF06AF8049BE96A5864A06CDB
:103FC0000DF064F8049B696C9864E06C0DF05EF889
:103FD000049BE96DD864206D0DF058F8049B696F5F
:103FE0001865606D0DF052F88C25049A059B50659C
:103FF000A06D59590DF04AF8A423049A9065059ACA
:10400000E06DD1580DF042F8049B059AD865116B0C
:10401000206E0DF03BF8049B059A1866916C606E5B
:104020000DF034F8049B059A5866A06E116E0DF0E1
:104030002DF8049B059A9866E06E916F0DF026F8B6
:10404000049B059AD8669023206FD1580DF01EF876
:10405000049B059A1867A823606FD1580DF016F8D5
:10406000049B059A5867A16F506B0DF00FF8049BE5
:10407000059A9867E16FD06C0DF008F84146049BF3
:10408000059AD8676158506E0DF000F84146049BC0
:10409000059A5850E159D06F0CF0F8FF049BD851A5
:1040A0009423059FA159F8580CF0F0FF049B9851F8
:1040B000AC236159F8580CF0E9FF049B585199233F
:1040C0009B009D44F0BCBB46B246A946A046F0BD4D
:1040D000F0B5DE4657464E4645460400E0B5036956
:1040E00087B0580063694008590049080CF0CEFFBA
:1040F000E368590049080CF0C9FF6368051C5800C3
:10410000A3684008590049080CF0C0FF2368590013
:1041100049080CF0BBFF011C281C0CF0B7FFA36A78
:10412000051C5800E36A4008590049080CF0AEFF2E
:10413000636A590049080CF0A9FFE369061C58009E
:10414000236A4008590049080CF0A0FFA3695900F0
:1041500049080CF09BFF011C301C0CF097FF236CEE
:10416000071C5800636C4008590049080CF08EFF8A
:10417000E36B590049080CF089FF636B061C58007B
:10418000A36B4008590049080CF080FF236B5900CD
:1041900049080CF07BFF011C301C0CF077FF061C5B
:1041A000011C381C0CF0C0FF002800D13E1C311C43
:1041B000281C0CF0B9FF002800D12E1CA36D58005C
:1041C000E36D4008590049080CF060FF636D590029
:1041D00049080CF05BFFE36C051C5800236D400898
:1041E000590049080CF052FFA36C590049080CF023
:1041F0004DFF011C281C0CF049FF236F071C5800C1
:10420000636F4008590049080CF040FFE36E590005
:1042100049080CF03BFF636E051C5800A36E400874
:10422000590049080CF032FF236E590049080CF080
:104230002DFF011C281C0CF029FF88238046E05824
:104240000433E15840004900490840080CF01EFFC3
:104250008423E158490049080CF018FFE36F051C5E
:1042600058008023E1584008490049080CF00EFF2F
:10427000A36F590049080CF009FF011C281C0CF021
:1042800005FF051C011C40460CF04EFF002800D124
:104290004546291C381C0CF047FF002800D13D1C66
:1042A000291C301C0CF040FF002800D1351CC02315
:1042B0002100E55001AABA3B02A8A8310493029458
:1042C000FCF7A8FA0121C422019B98260B405B420F
:1042D0008B430133A354343A9246002250469C2724
:1042E00022509432A1509346923AA2510132E251A7
:1042F0009D32944660469C3A2250A03291469F3AA5
:1043000090464A4640462300A05048461832A258DC
:10431000903392009A181568255040461060604608
:10432000B8222058A2588046604692009A18156814
:10433000255040461060B422E059A25884469200AD
:104340009A1810685D46E05160461060B022A2588D
:10435000A75992009A181068A0511760AC225846CD
:10436000A258265892009A18106860511660A82228
:10437000A258554692009B1852461868A2586051A0
:104380001A60C523E15407B0F0BCBB46B246A9464B
:10439000A046F0BDC023002210B5C2500022043355
:1043A000C2520B68040003604B6843608B688360F3
:1043B000CB68C3600B6903614B6943618B6983619F
:1043C000CB69C3610B6A03624B6A43628B6A836287
:1043D000CB6AC3620B6B03634B6B43638B6B83636F
:1043E000CB6BC3630B6C03644B6C43648B6C836457
:1043F000CB6CC3640B6D03654B6D43658B6D83653F
:10440000CB6DC3650B6E03664B6E43668B6E836626
:10441000CB6EC3660B6F03674B6F43678B6F83670E
:10442000CB6FC3678023CA58C2500433CA58C250E6
:104430000433CA58C2500433CA58C250FFF748FE6A
:10444000200010BDF0B5DE464E4645465746E0B565
:10445000214C9146A5443AAA94460A0031931F4B39
:104460003B9063441B091B013A919846D3AB13CA96
:1044700013C313CA13C31268D3A91A60184B194A7D
:104480001B6847A80493184B47AC1B680193174B54
:104490001B6805930093049BFEF790FF47ABD393F3
:1044A0004B46D49347ABD5933AAA832394468620B0
:1044B0001B0163441B68C0004044A2AAD3A9D69341
:1044C0000990FFF735F96BAB089343460A934B46C7
:1044D0003094A1461C000BE014F7FFFF47030000D7
:1044E000F41603200AE81C41EC160320F016032002
:1044F0004B464E461B68B76F0493089B494640CB1A
:1045000048464A460893A823896C006E9569126B49
:1045100006910790E158301C05920CF0CEFD8C23DB
:104520008246E158381C0CF0C8FD011C50460CF0C6
:10453000ADFD216F824607980CF0BFFD616D83468B
:1045400006980CF0BAFD011C58460CF09FFD011CAA
:1045500050460CF09BFDA16B824605980CF0ADFD1A
:10456000E1698346281C0CF0A8FD011C58460CF09C
:104570008DFD2168834604980CF09FFD011C584670
:104580000CF084FD011C50460CF080FD4346186081
:10459000AC23301CE1580CF090FD90238246E1588A
:1045A000381C0CF08AFD011C50460CF06FFD616F49
:1045B000824607980CF081FDA16D834606980CF0A9
:1045C0007CFD011C58460CF061FD011C50460CF0AE
:1045D0005DFDE16B824605980CF06FFD216A834614
:1045E000281C0CF06AFD011C58460CF04FFD616858
:1045F000834604980CF061FD011C58460CF046FD02
:10460000011C50460CF042FD43465860B023301C5C
:10461000E1580CF052FD94238246E158381C0CF00E
:104620004CFD011C50460CF031FDA16F82460798ED
:104630000CF043FDE16D834606980CF03EFD011C35
:1046400058460CF023FD011C50460CF01FFD216C58
:10465000824605980CF031FD616A8346281C0CF0F7
:104660002CFD011C58460CF011FDA16883460498EE
:104670000CF023FD011C58460CF008FD011C5046AF
:104680000CF004FD43469860B423301CE1580CF054
:1046900014FD98238246E158381C0CF00EFD011CD5
:1046A00050460CF0F3FCE16F824607980CF005FDD4
:1046B000216E834606980CF000FD011C58460CF054
:1046C000E5FC011C50460CF0E1FC616C824605984B
:1046D0000CF0F3FCA16A8346281C0CF0EEFC011CD4
:1046E00058460CF0D3FCE168834604980CF0E5FCD6
:1046F000011C58460CF0CAFC011C50460CF0C6FCCC
:104700004346D860B823301CE1580CF0D6FC9C23FB
:104710008246E158381C0CF0D0FC011C50460CF0CD
:10472000B5FC80238246E15807980CF0C6FC616E08
:10473000834606980CF0C1FC011C58460CF0A6FC00
:10474000011C50460CF0A2FCA16C824605980CF0AE
:10475000B4FCE16A8346281C0CF0AFFC011C5846EF
:104760000CF094FC2169834604980CF0A6FC011C13
:1047700058460CF08BFC011C50460CF087FC43465D
:104780001861BC23301CE1580CF097FCA023824632
:10479000E158381C0CF091FC011C50460CF076FCE2
:1047A00084238246E15807980CF087FCA16E83466B
:1047B00006980CF082FC011C58460CF067FC011CAA
:1047C00050460CF063FCE16C824605980CF075FCD9
:1047D000216B8346281C0CF070FC011C58460CF021
:1047E00055FC6169834604980CF067FC011C58462F
:1047F0000CF04CFC011C50460CF048FC4346E16EAA
:10480000586106980CF059FC88238246E1580798B5
:104810000CF053FC011C50460CF038FCA4238246DB
:10482000E158381C0CF049FCC023071CE158301C2F
:104830000CF043FC011C381C0CF028FC011C5046F9
:104840000CF024FC616B061C281C0CF036FC216D5E
:10485000051C05980CF031FC011C281C0CF016FC02
:10486000A169051C04980CF028FC011C281C0CF004
:104870000DFC011C301C0CF009FC4346986104231C
:104880009C461833E1449C464DABE0444B4500D078
:104890002EE60A9BA146D8249846A427A4004444A7
:1048A000BF00474420000999FFF774FD21009022C2
:1048B0003800C8240CF0D6FEFC21A4004444890032
:1048C0004144182220000CF0CDFECE208121800032
:1048D000C9004144182240440CF0C4FE8422D42371
:1048E000D200424412689B0043441A60D523874A91
:1048F0004546424412889B004344FE211A8000230F
:104900002268B0359200AA1889051160936113637B
:10491000936413669367C922920042441268444626
:104920009200AA18136091611363936413669367EE
:10493000CA2292004244126806269200AA18136006
:1049400093611163936413669367CB229200424490
:10495000126806209200AA18136093611363916491
:1049600013669367CC229200424412689200AA1800
:10497000136093611363936411669367CD22920071
:10498000424412689200AA181360936113639364FF
:104990001366A8235B009B46916742465946E4187C
:1049A00020334344A660E660266153508022920083
:1049B00042444B396260924604933A0006230294C3
:1049C000FF3901960095FCF70BFF42465946049BC0
:1049D000A660E6602661535053464B3963603A0047
:1049E00006230294062001960095FF39FCF75CFB34
:1049F00043461B688C2207934346DB69D3AC08937C
:104A000043469B6B099343465B6D0A9343461B6F7A
:104A10000B9343469B5804320C9343465B681793B1
:104A200043461B6A18934346DB6B0D9343469B6DCD
:104A30000E9343465B6F0F9343469B58043210938B
:104A400043469B68119343465B6A129343461B6C33
:104A500013934346DB6D149343469B6F1593434674
:104A60009B58043216934346DB68199343469B6A6E
:104A7000069343465B6C1A9343461B6E1B93434657
:104A8000DB6F1C9343469B58183A1D9343461B69A2
:104A90001E934346DB6A1F9343469B6C2093434619
:104AA0005B6E219343469B581C32229343469B588E
:104AB000183A239343465B69249343461B6B259323
:104AC0004346DB6C269343469B6E279343469B5895
:104AD0001C32289343469B58183A299343469B69B6
:104AE0002A9343465B6B2B9343461B6D2C934346A3
:104AF000DB6E2D9343469B581C322E9343469B58A6
:104B0000A8462F934B46329302E0C046240400008F
:104B100043461F685B6842469946434641469B6848
:104B2000D2680E694D6908984946049305920CF0C5
:104B3000C4FA0499824609980CF0BFFA011C504649
:104B40000CF0A4FA391C824607980CF0B6FA011C46
:104B500050460CF09BFA311C82460B980CF0ADFAD3
:104B6000291C83460C980CF0A8FA011C58460CF03E
:104B70008DFA059983460A980CF09FFA011C584655
:104B80000CF084FA011C50460CF080FA4946206073
:104B900018980CF092FA049982460D980CF08DFA50
:104BA000011C50460CF072FA391C824617980CF022
:104BB00084FA011C50460CF069FA311C82460F98A9
:104BC0000CF07BFA291C834610980CF076FA011C35
:104BD00058460CF05BFA059983460E980CF06DFA76
:104BE000011C58460CF052FA011C50460CF04EFACB
:104BF0004946606012980CF060FA04998246139856
:104C00000CF05BFA011C50460CF040FA391C82464D
:104C100011980CF052FA011C50460CF037FA311C76
:104C2000824615980CF049FA291C834616980CF018
:104C300044FA011C58460CF029FA05998346149849
:104C40000CF03BFA011C58460CF020FA011C5046AF
:104C50000CF01CFA4946A06006980CF02EFA049954
:104C600082461A980CF029FA011C50460CF00EFAF4
:104C7000391C824619980CF020FA011C50460CF0A1
:104C800005FA311C82461C980CF017FA291C834641
:104C90001D980CF012FA011C58460CF0F7F9059912
:104CA00083461B980CF009FA011C58460CF0EEF9EB
:104CB000011C50460CF0EAF94946E0601F980CF0E0
:104CC000FCF90499824620980CF0F7F9011C504633
:104CD0000CF0DCF9391C82461E980CF0EEF9011C30
:104CE00050460CF0D3F9311C824622980CF0E5F9BD
:104CF000291C834623980CF0E0F9011C58460CF05F
:104D0000C5F90599834621980CF0D7F9011C58463E
:104D10000CF0BCF9011C50460CF0B8F94946206172
:104D200025980CF0CAF90499824626980CF0C5F92A
:104D3000011C50460CF0AAF9391C824624980CF04C
:104D4000BCF9011C50460CF0A1F9311C8246289890
:104D50000CF0B3F9291C834629980CF0AEF9011C1C
:104D600058460CF093F90599834627980CF0A5F95D
:104D7000011C58460CF08AF9011C50460CF086F9CB
:104D8000494660612B980CF098F9049981462C985B
:104D90000CF093F9011C48460CF078F9391C814657
:104DA0002A980CF08AF9011C48460CF06FF9311C66
:104DB000071C2E980CF081F9291C061C2F980CF06A
:104DC0007CF9011C301C0CF061F90599051C2D982B
:104DD0000CF073F9011C281C0CF058F9011C381C4C
:104DE0000CF054F918239C46A061FDAB1C34E04440
:104DF000A34200D08CE6329BD49A9946D39BD59996
:104E0000D69CD79DD89ED99F06930792DA9BDB9AB2
:104E100008910994DC99DD9C0A950B96DE9DDF9E36
:104E20000C970D93E09FE19B0E92E29A0F911094E4
:104E300011951296139714931592E399E49CE59DAE
:104E4000E69EE79FE89BE99A16911794EA99EB9CF6
:104E500018951996EC9DED9E1A971B93EE9FEF9B6C
:104E60001C921D91F09AF1991E94F29C2096219724
:104E700022932392249125941F95F39DF49EF59FF0
:104E8000F79AF69BF899F99C26952796FA9DFB9E32
:104E90002897FC9F2A923A9A29932B912C942D952E
:104EA0002E962F97D3AB32CA32C332CA32C311689F
:104EB000D3AC1960FD49FE4B09681B680191FD499F
:104EC000FD4A09682000009141A9FDF7D7FF319FF5
:104ED000419938680CF0D7F84299834678680CF00D
:104EE000D2F843998246B8680CF0CDF84499041C76
:104EF000F8680CF0C8F84599051C38690CF0C3F83F
:104F00004699061C78690CF0BEF8071C011C2A980B
:104F10000CF0D3F8311C804623980CF0CEF8011C1D
:104F200040460CF0B3F8291C80461C980CF0C5F8DC
:104F3000011C40460CF0AAF8211C804615980CF084
:104F4000BCF8514604900E980CF0B7F8011C049878
:104F50000CF09CF85946049007980CF0AEF8011C30
:104F600004980CF093F8011C40460CF08FF83A9A24
:104F700051680CF08BF8391C04902B980CF09DF8BC
:104F8000311C804624980CF098F8011C40460CF027
:104F90007DF8291C80461D980CF08FF8011C4046B6
:104FA0000CF074F8211C804616980CF086F85146D7
:104FB00005900F980CF081F8011C05980CF066F82C
:104FC0005946059008980CF078F8011C05980CF0EB
:104FD0005DF8011C40460CF059F83A9A91680CF0C3
:104FE00055F8391C05902C980CF067F8311C804658
:104FF00025980CF062F8011C40460CF047F8291C7B
:1050000080461E980CF059F8011C40460CF03EF802
:10501000211C804617980CF050F85146319010989A
:105020000CF04BF8011C31980CF030F859463190D7
:1050300009980CF042F8011C31980CF027F8011C7B
:1050400040460CF023F83A9AD1680CF01FF8391C4E
:1050500031902D980CF031F8311C804626980CF0D8
:105060002CF8011C40460CF011F8291C80461F98B2
:105070000CF023F8011C40460CF008F8211C804677
:1050800018980CF01AF85146329011980CF015F857
:10509000011C32980BF0FAFF594632900A980CF036
:1050A0000CF8011C32980BF0F1FF011C40460BF08C
:1050B000EDFF3A9A11690BF0E9FF391C32902E98F6
:1050C0000BF0FBFF311C804627980BF0F6FF011C0C
:1050D00040460BF0DBFF291C804620980BF0EDFFCB
:1050E000011C40460BF0D2FF211C804619980BF0A2
:1050F000E4FF5146339012980BF0DFFF011C339808
:105100000BF0C4FF594633900B980BF0D6FF011CEF
:1051100033980BF0BBFF011C40460BF0B7FF3A9AE7
:1051200051690BF0B3FF5146339013980BF0C5FF54
:10513000211C80461A980BF0C0FF011C40460BF062
:10514000A5FF594680460C980BF0B7FF011C40465E
:105150000BF09CFF311C804628980BF0AEFF391CE9
:1051600034902F980BF0A9FF011C34980BF08EFFA0
:10517000291C349021980BF0A0FF011C34980BF0EF
:1051800085FF011C40460BF081FF3A9A91690BF0B4
:105190007DFF391C804629980BF08FFF311C071CBE
:1051A00022980BF08AFF011C381C0BF06FFF291CA2
:1051B000061C1B980BF081FF011C301C0BF066FFD6
:1051C000211C051C14980BF078FF5146041C0D9807
:1051D0000BF073FF011C201C0BF058FF5946041CF8
:1051E00006980BF06AFF011C201C0BF04FFF011CFE
:1051F000281C0BF04BFF3A9AD3AC11680BF046FF1A
:105200003B9B049A18605A60059A9A60319ADA605A
:10521000329A1A61339A5A6142469A614B461B6828
:105220004A46A2934B465B68A3934B469B68A49364
:105230004B46DB68A5934B461B69A6934B465B69BF
:10524000A7934B469B69A8934B46DB69A9934B46B2
:105250001B6AAA934B465B6AAB934B469B6AAC9323
:105260004B46DB6AAD934B461B6BAE934B465B6B79
:10527000AF934B469B6BB0934B46DB6BB1934B4666
:105280001B6CB2934B465B6CB3934B469B6CB493D5
:105290004B46DB6CB5934B461B6DB6934B465B6D33
:1052A000B7934B469B6DB8934B4607E0EC16032033
:1052B000F4160320F01603200AE81C41DB6DB993B5
:1052C0004B461B6EBA934B465B6EBB934B469B6E35
:1052D000BC934B46DB6EBD934B461B6FBE934B4658
:1052E0005B6FBF934B469B6FC0934B46DB6FC19385
:1052F0008023D358C2938423D358C3938823D3588D
:10530000C4938C23D358C5939023D358C693942326
:10531000D358C7939823D358C8939C23D358C99381
:10532000A023D358CA93A423D358CB93A823D358EC
:10533000CC93AC23D358CD93B023D358CE93B4237E
:10534000D358CF93B823D358D093BC23D358D193F9
:10535000C023D358D293309B3092984643461F685F
:105360005B6842469946434641469B68D2680E694F
:105370004D690D984946049305920BF09EFE0499E1
:10538000824614980BF099FE011C50460BF07EFEED
:10539000391C824606980BF090FE011C50460BF01B
:1053A00075FE311C824622980BF087FE291C83462D
:1053B00029980BF082FE011C58460BF067FE0599F8
:1053C00083461B980BF079FE011C58460BF05EFEDD
:1053D000011C50460BF05AFE494620600E980BF017
:1053E0006CFE0499824615980BF067FE011C50462E
:1053F0000BF04CFE391C824607980BF05EFE011C38
:1054000050460BF043FE311C824623980BF055FEAC
:10541000291C83462A980BF050FE011C58460BF0BD
:1054200035FE059983461C980BF047FE011C584633
:105430000BF02CFE011C50460BF028FE4946606024
:105440000F980BF03AFE0499824616980BF035FE41
:10545000011C50460BF01AFE391C824608980BF0CE
:105460002CFE011C50460BF011FE311C8246249884
:105470000BF023FE291C83462B980BF01EFE011C0B
:1054800058460BF003FE059983461D980BF015FE58
:10549000011C58460BF0FAFD011C50460BF0F6FDBE
:1054A0004946A06010980BF008FE049982461798B0
:1054B0000BF003FE011C50460BF0E8FD391C824640
:1054C00009980BF0FAFD011C50460BF0DFFD311C72
:1054D000824625980BF0F1FD291C83462C980BF091
:1054E000ECFD011C58460BF0D1FD059983461E9832
:1054F0000BF0E3FD011C58460BF0C8FD011C5046A3
:105500000BF0C4FD4946E06011980BF0D6FD0499FC
:10551000824618980BF0D1FD011C50460BF0B6FDE9
:10552000391C82460A980BF0C8FD011C50460BF04E
:10553000ADFD311C824626980BF0BFFD291C834629
:105540002D980BF0BAFD011C58460BF09FFD0599F4
:1055500083461F980BF0B1FD011C58460BF096FDD9
:10556000011C50460BF092FD4946206112980BF049
:10557000A4FD0499824619980BF09FFD011C50462A
:105580000BF084FD391C82460B980BF096FD011C34
:1055900050460BF07BFD311C824627980BF08DFDA9
:1055A000291C83462E980BF088FD011C58460BF0F1
:1055B0006DFD0599834620980BF07FFD011C584630
:1055C0000BF064FD011C50460BF060FD4946606124
:1055D00013980BF072FD049981461A980BF06DFD3B
:1055E000011C48460BF052FD391C81460C980BF00B
:1055F00064FD011C48460BF049FD311C071C28982E
:105600000BF05BFD291C061C2F980BF056FD011CAE
:10561000301C0BF03BFD0599051C21980BF04DFD4E
:10562000011C281C0BF032FD011C381C0BF02EFD58
:1056300018239C46FFABA06114331C34E044A34202
:1056400000D08BE6309BA2AD99463C93C4234C46D8
:10565000C8464B44089307944246D26843464146A5
:10566000914642469E694C68096892685F691B6969
:105670000491301CFD99069305920BF01EFDF699DE
:105680008246381C0BF019FD011C50460BF0FEFC45
:10569000EF99824606980BF010FDE899834648463C
:1056A0000BF00BFD011C58460BF0F0FC011C5046A2
:1056B0000BF0ECFCE199824605980BF0FEFCDA99C0
:1056C0008346201C0BF0F9FC011C58460BF0DEFC55
:1056D000D399834604980BF0F0FC011C58460BF05C
:1056E000D5FC011C50460BF0D1FC011C28680BF0C6
:1056F000CAFC2860FE99301C0BF0DFFCF79982464B
:10570000381C0BF0DAFC011C50460BF0BFFCF09982
:10571000824606980BF0D1FCE999834648460BF087
:10572000CCFC011C58460BF0B1FC011C50460BF0A0
:10573000ADFCE299824605980BF0BFFCDB998346ED
:10574000201C0BF0BAFC011C58460BF09FFCD499AE
:10575000834604980BF0B1FC011C58460BF096FCF4
:10576000011C50460BF092FC011C68680BF08BFC8E
:10577000FF996860301C0BF0A0FCF8998246381C39
:105780000BF09BFC011C50460BF080FCF19982460B
:1057900006980BF092FCEA99834648460BF08DFC84
:1057A000011C58460BF072FC011C50460BF06EFCBD
:1057B000E399824605980BF080FCDC998346201C17
:1057C0000BF07BFC011C58460BF060FCD59983461E
:1057D00004980BF072FC011C58460BF057FC011C9E
:1057E00050460BF053FC011CA8680BF04CFCFFABBF
:1057F0005968A860301C04330BF05FFCF9998246AD
:10580000381C0BF05AFC011C50460BF03FFCF2997F
:10581000824606980BF051FCEB99834648460BF004
:105820004CFC011C58460BF031FC011C50460BF09F
:105830002DFCE499824605980BF03FFCDD998346E8
:10584000201C0BF03AFC011C58460BF01FFCD699AB
:10585000834604980BF031FC011C58460BF016FCF3
:10586000011C50460BF012FC011CE8680BF00BFC0D
:10587000FFAB9968E860301C08330BF01EFCFA9906
:105880008246381C0BF019FC011C50460BF0FEFB45
:10589000F399824606980BF010FCEC998346484633
:1058A0000BF00BFC011C58460BF0F0FB011C5046A2
:1058B0000BF0ECFBE599824605980BF0FEFBDE99B8
:1058C0008346201C0BF0F9FB011C58460BF0DEFB55
:1058D000D799834604980BF0F0FB011C58460BF057
:1058E000D5FB011C50460BF0D1FB011C28690BF0C5
:1058F000CAFBFFABD9682861301C0C330BF0DDFB11
:10590000FB998246381C0BF0D8FB011C50460BF06B
:10591000BDFBF499824606980BF0CFFBED998346C8
:1059200048460BF0CAFB011C58460BF0AFFB011CAC
:1059300050460BF0ABFBE699824605980BF0BDFB99
:10594000DF998346201C0BF0B8FB011C58460BF076
:105950009DFBD899834604980BF0AFFB011C584679
:105960000BF094FB011C50460BF090FB011C686986
:105970000BF089FBEE99686148460BF09EFBF599A8
:10598000814606980BF099FB011C48460BF07EFB04
:10599000FC998146381C0BF090FBFFAB1969071C82
:1059A000301C10330BF089FB011C381C0BF06EFB14
:1059B000011C48460BF06AFBE099061C201C0BF00A
:1059C0007CFBE799041C05980BF077FB011C201C5D
:1059D0000BF05CFBD999041C04980BF06EFB011CC6
:1059E000201C0BF053FB011C301C0BF04FFB011C67
:1059F000A8690BF048FB1C239C46089BE044A86167
:105A00001C35984500D027E6079BA29A99461A6054
:105A1000A39A5A60A49A9A60A59ADA60A69A1A6123
:105A2000A79A5A61A89A9A61A99ADA61AA9A1A62FF
:105A3000AB9A5A62AC9A9A62AD9ADA62AE9A1A63DB
:105A4000AF9A5A63B09A9A63B19ADA63B29A1A64B7
:105A5000B39A5A64B49A9A64B59ADA64B69A1A6593
:105A6000B79A5A65B89A9A65B99ADA65BA9A1A666F
:105A7000BB9A5A66BC9A9A66BD9ADA66BE9A1A674B
:105A8000BF9A5A67C09A9A67C19ADA674A468023D2
:105A9000C299D150C3990433D150C4990433D15021
:105AA000C5990433D150C6990433D150C7990433F2
:105AB000D150C8990433D150C9990433D150CA99EF
:105AC0000433D150CB990433D150CC990433D15005
:105AD000CD990433D150CE990433D150CF990433AA
