:020000041000EA
:1000000000B5324B212058609868022188439860DF
:10001000D860186158612E4B002199600221596106
:100020000121F02299502B49196001219960352056
:1000300000F044F80222904214D00621196600F024
:1000400034F8196E01211966002018661A6600F04E
:100050002CF8196E196E196E052000F02FF8012189
:100060000842F9D1002199601B49196000215960AB
:100070001A491B48016001219960EB211966A021F2
:10008000196600F012F800219960164914480160C1
:100090000121996001BC002800D000471248134993
:1000A000086003C880F30888084703B5996A0420EC
:1000B0000142FBD001200142F8D103BD02B5186610
:1000C0001866FFF7F2FF186E186E02BD00000240BE
:1000D000000000180000070000035F00212200005C
:1000E000F4000018222000A00001001008ED00E03C
:1000F00000000000000000000000000074B24E7A12
:1001000000200420F7010010C3010010C5010010F9
:10011000C1010010C1010010C1010010C101001097
:10012000C1010010C1010010C1010010C701001081
:10013000C1010010C1010010C9010010CB01001065
:10014000CD010010CD010010CD010010CD01001037
:10015000CD010010CD010010CD010010CD01001027
:10016000CD010010CD010010CD010010CD01001017
:10017000CD010010CD010010CD010010CD01001007
:10018000CD010010CD010010CD010010CD010010F7
:10019000CD010010CD010010CD010010CD010010E7
:1001A000CD010010CD010010CD010010CD010010D7
:1001B000CD010010CD010010CD010010CD010010C7
:1001C00000BE00BE00BE00BE00BE00BE00F04BF888
:1001D000103800BEF2EB88712407061044070610A1
:1001E0003402001090A31AE700202149086006C8D5
:1001F00081F3088810471F48006800282FD10DA4FC
:100200000ECC002902D000F012F8F9E71A491B4A77
:10021000002000E001C19142FCD1194988471949E9
:1002200088471949884700BEFDE701C901C29A42C3
:10023000FBD3704744070610C00000206422002052
:10024000E82806100000042000000420E82806101A
:1002500000100420001004200000000070470B482C
:100260000FF04AFC0047EFF30580C0B27047000072
:1002700008ED00E0000000D070220020145303209D
:10028000B5DE00100D030010DDDF00105756000032
:1002900006005250ABB36053F047051006005250B1
:1002A000861C030200480510060052505422A29DED
:1002B0000C48051005005250DE65F468E828061069
:1002C000F8B5C04610B5064C2378002B07D1054B76
:1002D000002B02D0044800E000BF0123237010BDB2
:1002E000782700200000000088420510044B10B55C
:1002F000002B03D00349044800E000BF10BDC046F6
:10030000000000007C2700208842051070B51920ED
:100310000CF0C6F8D02380221B0692045A6211F01A
:100320007FFC00F04BF807F0C9FE09F04DFD07F027
:100330007BFF02F031FC00F03DF90BF057F8002292
:100340000524144B1A7007F0B7FA134D013C210035
:10035000280011F059FCFA2080000CF00FFF002C4F
:10036000F4D10A2011F0BCFA012200210B480CF054
:1003700073FB0B4814F06CF901220A4B0A4C1A70FB
:100380002378012BFCD109F0DBFE2378012BFAD076
:10039000F6E7C046F652032088420510F0510320CC
:1003A00085A30010F5520320FA52032010B502482D
:1003B00014F076FC10BDC046CC300320092370B584
:1003C00086B0059304330493023B0393013B0293ED
:1003D000023B324D324C0193324B220032493348BA
:1003E00000932B0006F026FF142006F01FFFFA20D2
:1003F00080000CF0C3FE2E4E21003200280007F0D2
:1004000031F93378682B08D02A4C200011F0B8FA63
:10041000FA2080000CF0B2FEF7E773783D2BF3D1A1
:1004200001222100280007F041F9234E320021006B
:10043000280007F075F93378002BF7D1012221004D
:10044000280006F0F1FF0121200006F0CFFF032174
:10045000200006F061FF0321280007F08BF813212C
:10046000200007F0CBF91221200007F005FA002147
:10047000200007F0E3F90321200007F06DF90221C5
:10048000200007F085F95521200006F063FF1821B0
:10049000280007F009F806B070BDC046FC1603201E
:1004A0009C28002040420F00D4150020CC150020CD
:1004B000AC5203209C4205100F530320F0B5C646F2
:1004C000334C344D344E22002900300000B507F083
:1004D000DBF86378DB439B0720D023781B0702D42B
:1004E00080BCB846F0BD2D4C06220021200011F042
:1004F000C5F82100300007F097F80023E05E06F011
:1005000001FF274D28600223E05E06F0FBFE6860D5
:100510000423E05E06F0F6FEA860E1E7214B062228
:1005200098461800002111F0A9F81F4F062200215B
:10053000380011F0A3F84146280007F057F83900B9
:10054000280007F035F843460020185E06F0C6FE86
:100550004346164D28600220185E06F0BFFE434653
:1005600068600420185E06F0B9FEA8600023F85EFB
:1005700006F0BEFE0E4D28600223F85E06F0B8FEBF
:1005800068600423F85E06F0B3FEA860A5E7C046E5
:10059000E44703209C280020FC1603205437032046
:1005A000C43C0320443703204C370320C4350320C8
:1005B000E4350320F0B5C64600B511F031FB2449FF
:1005C00024480DF0AFFB03211A200BF039FF032163
:1005D0001B200BF035FF002201211A200BF048FFF1
:1005E000002201211B200BF043FF1B480CF0C6FD2D
:1005F0001A4C1B4E23781B4DDB070ED41A4B0127D8
:100600009846210030880BF01FFC4346287018687C
:100610000CF0B4FD23781F42F3D030880BF0F2F9D0
:100620000221287030880BF043FB14212870308899
:100630000BF076FA1421287030880BF0DFFB28705D
:1006400030880BF043FA287080BCB846F0BDC04635
:10065000801A0600F0160020B80B0000105303208B
:10066000DC150020FD520320E0150020F0B55746B0
:10067000DE464E464546E0B58BB0089192461900DD
:1006800005900993DA1703238C46134063449B10AB
:100690009B009846002B00DC90E05246159B0024FE
:1006A0009B000193149B9B1A159A9B1A089A9B0016
:1006B00002935368126819019446049106925146B8
:1006C0009A00039252468D000021013A920007924F
:1006D000002289465900DE00CB189B009B46130080
:1006E000424665440092019A94469C44039B1A1921
:1006F0009F195346002B1EDD069B0598191963466A
:10070000804600989B004344804600940868186027
:100710000098081A845804315C6084599C60C05960
:10072000D86010338D42F1D1434607990093634658
:100730008C4604339C440421029B5A4463448C46F7
:100740001400049A3E00E1449446009A5E446544D5
:100750004A45C8DC1A00009B9846099B434526DDA4
:100760001499159C089B0D1B514609CB6D1A002945
:100770001DDD41469E004B439B00C01853469C0024
:10078000059B47469C46099BAB469846159B994658
:1007900000234A4491006144C558CD5004339C4223
:1007A000FAD1524401375A448019B845F0D10BB000
:1007B000F0BCBB46B246A946A046F0BD0022CCE73D
:1007C000F0B54746CE4680B51F00002B1DDD002A40
:1007D0001BDD9300C0180B68002498464B689100FD
:1007E000D200494252428C4691469B0061464518D0
:1007F0002900A20042441668D21840C18142FAD1B1
:100800004A460134A81AA742F0D1C0BCB946B04646
:10081000F0BDC046F0B5DE464E465746454600237D
:10082000E0B5136083688BB0049305239B460023D7
:100830005E46099202680293013B0790069103927B
:1008400008930523049C9B1B5C439846029BA400D1
:100850009C46039B64449C46644423685D00636833
:100860006D085F007F08291C381C10F0A3FC0028CD
:1008700000D1CCE03D1C0127731C9A46022B37D9CE
:10088000A368291C5B005B08181C994610F092FCB9
:10089000002801D04D4602275346032B28D0E36899
:1008A000291C5B005B08181C994610F083FC00288B
:1008B00001D04D4603275346042B19D02369281C29
:1008C0005B005B08191C994610F066FC002801D0FB
:1008D0004D4604275346062B0AD16469281C640040
:1008E0006408211C10F058FC002801D00527251CA5
:1008F000069B029A474400219F50281C10F044FC9C
:10090000002800D185E0089B013300D1FEE00623DA
:1009100047469B1B9C46079A05939268574367443A
:100920000492BF000599049B0C009A005C43029B53
:1009300000929C46039BA5001A0065448C46914694
:100940009B46924690463B1D6444A4009944043360
:100950005D445C449A44BB44043310379446984445
:100960003B000027634401935B462968186810F038
:10097000DCFB011C206810F0BEFB2060012E2DD98D
:100980004B462868196810F0D0FB011C606810F015
:10099000B2FB6060022E21D053462868196810F01F
:1009A000C4FB011CA06810F0A6FBA060032E15D0AC
:1009B00043462868196810F0B8FB011CE06810F085
:1009C0009AFBE060052E09D1019B2968186810F098
:1009D000ACFB011C206910F08EFB2061009B0137ED
:1009E0009C4665446444BE42BED1029B013E043332
:1009F0000293059B052B00D023E71A00069B5A6142
:100A00000BB0F0BCBB46B246A946A046F0BD0027DD
:100A100032E7474530D0039902988C46BF006744BF
:100A20008446079A3C6892680B5892000C506144C7
:100A30003B608918BB1808681C680C60186089182E
:100A40009B1808681C680C60186089189B18086857
:100A50001C680C60186089189B1808681C680C607A
:100A6000186089189B1818680A6808601A60099A43
:100A700013680093013313604746079B039A9B68F2
:100A80005F4304930623991B43468C46FB189B0047
:100A900067449C58BF00D51928680591211C10F0A7
:100AA00030FB2860012E00D83CE7039B3D1D9C468F
:100AB00065442868211C10F024FB2860022E00D118
:100AC00030E7039B3D009C46083565442868211C9F
:100AD00010F017FB2860032E00D123E7039B3D0095
:100AE0009C460C3565442868211C10F00AFB2860E0
:100AF000042E00D116E7039A3D0094461035654454
:100B00002868211C10F0FDFA28600BE706234746F1
:100B10009B1B9C4605934346079A0893926857434C
:100B200067440492BF00FDE6F0B55746DE464E46E8
:100B30004546E0B599B01493249B8246259C26989F
:100B40005D1C00D1229B651C00D1229C239DEE17C9
:100B500003253540239EB4466544AD10AF000725FC
:100B6000229E0E97AE4335000096149E002E00DCA8
:100B700088E29B001693230110930301D318179367
:100B80006B1EDB0801330391D9015B010F93A300B6
:100B90007C43201880001193131815930023D3462B
:100BA000139108930E9B002B00DCC2E10F9A039B6C
:100BB000944663441293179BD846019300230293F3
:100BC0000298434601000CCB089C5943A44661445B
:100BD000890051180991411C5943614489005118F9
:100BE0000A91811C59436144890051180B91C11C21
:100BF0004B4363449B00D318019E0C93009B34002D
:100C0000002B00DC45E2039B0025994600234C465F
:100C1000AA46AB46A946069504952F1C059507954F
:100C20000D9325683168281C10F07FFA594610F0A2
:100C300065FA71688346281C10F077FA514610F067
:100C40005DFAB1688246281C10F06FFA079910F01F
:100C500055FAF1680790281C10F067FA059910F012
:100C60004DFA059065683169281C10F05EFA391C50
:100C700010F044FA7169071C281C10F056FA049908
:100C800010F03CFAB1690490281C10F04EFA069955
:100C900010F034FAF1690690281C10F046FA494623
:100CA00010F02CFA8146A568316A281C10F03DFA34
:100CB000594610F023FA716A8346281C10F035FA61
:100CC000514610F01BFAB16A8246281C10F02DFA2A
:100CD000079910F013FAF16A0790281C10F025FA12
:100CE000059910F00BFA0590E568316B281C10F09F
:100CF0001CFA391C10F002FA716B071C281C10F04A
:100D000014FA049910F0FAF9B16B0490281C10F051
:100D10000CFA069910F0F2F9F16B0690281C10F00D
:100D200004FA494610F0EAF981462569316C281C1D
:100D300010F0FBF9594610F0E1F9716C8346281C5C
:100D400010F0F3F9514610F0D9F9B16C8246281C25
:100D500010F0EBF9079910F0D1F9F16C0790281C0D
:100D600010F0E3F9059910F0C9F905906569316D46
:100D7000281C10F0DAF9391C10F0C0F9716D071C4D
:100D8000281C10F0D2F9049910F0B8F9B16D049054
:100D9000281C10F0CAF9069910F0B0F9F16D069010
:100DA000281C10F0C2F9494610F0A8F98146A5693F
:100DB000316E281C10F0B9F9594610F09FF9716E88
:100DC0008346281C10F0B1F9514610F097F9B16E26
:100DD0008246281C10F0A9F9079910F08FF9F16EDE
:100DE0000790281C10F0A1F9059910F087F90590DB
:100DF000E569316F281C10F098F9391C10F07EF964
:100E0000716F071C281C10F090F9049910F076F906
:100E1000B16F0490281C10F088F9069910F06EF953
:100E2000F16F0690281C10F080F9494610F066F921
:100E30008146803620340D9B009A08330D939A42E8
:100E400000DDEEE6139B019C9C46051C5946381CB0
:100E5000644410F053F95146071C049810F04EF901
:100E60000799061C069810F049F905998146281C37
:100E700010F044F9129B051C9A46229A009B9A4254
:100E800030DDAB460493534620CB2168281C9A469C
:100E900010F04BF9011C381C10F030F96168071C88
:100EA000281C10F042F9011C301C10F027F9A16831
:100EB000061C281C10F039F9011C484610F01EF9D8
:100EC000E1688146281C10F030F9011C584610F0EA
:100ED00015F98346049B229A0133103404939A42F5
:100EE000D1D1051C311C0A9E306810F004F9391C60
:100EF000099F041C386810F0FEF8291C0C9D38600E
:100F00003460286810F0F7F80B9E4946041C3068DE
:100F100010F0F1F81099019A8C46029B62440192FC
:100F20000E9A0433306002932C609A4200DD47E64B
:100F3000C3460F9A039B944663440E9A0293239BE5
:100F40009246159D934200DC90E05B465C685346F8
:100F50005C43089B2F009C465B461B6864449C4690
:100F6000009BA4006444002B00DC99E00023039F55
:100F700099463B00A04600262F001C0039682068D7
:100F800010F0D3F8311C10F0B9F8061C79686068CD
:100F900010F0CBF8311C10F0B1F8061CB968A0684D
:100FA00010F0C3F8311C10F0A9F8061CF968E068CD
:100FB00010F0BBF8311C10F0A1F8061C396920694B
:100FC00010F0B3F8311C10F099F8061C79696069CB
:100FD00010F0ABF8311C10F091F8061CB969A0694B
:100FE00010F0A3F8311C10F089F8061CF969E069CB
:100FF00010F09BF8311C10F081F8061C20372034CB
:1010000008239C46009BE1444B45B7DC44460F9BBC
:10101000EF18029B0193229A009B9A4217DD994692
:101020000023984643464246F958019B985810F0D1
:101030007CF8011C301C10F061F8061C01239C4652
:101040000333E1449C46229BE0444B45EAD12068AF
:10105000311C10F050F801239C46119BE2449C4641
:10106000239B20606544534500D06EE71699039A90
:101070008C46089B62440392149A013308939A4267
:1010800000D08FE519B0F0BCBB46B246A946A046D9
:10109000F0BD0025039BA9469A462E1C2F1CECE6AA
:1010A000039B00260193B6E7F0B55746DE464E4651
:1010B00045469C24E0B5BDB006AF3C19FB638423D4
:1010C00020609824BA6694225B003C19FB182160CA
:1010D0001C68BA182369FB67A3681360834202DDAA
:1010E0009423FB18186094239821FB187918FA6F41
:1010F0001B680D68534355432268002A00D1DBE288
:101100009B007B668C23FB181A6090220023BA1880
:1011100013606368AA003A66002B00D1ECE28822D3
:10112000BB670023BA181360C84D2B78BFF35B8FE1
:10113000DB0700D4FDE2C64CA4220423BA181360D6
:101140009433FB181B686068002B18DD9C237A1D04
:10115000FB18FF321B6812681900934200DAFFE2A5
:1011600009010EF023FD0323C2171340A4221B180C
:101170009B109B00BA181360042B00DAEBE29C234F
:10118000FB181C68002C00DC72E2FB6BFD6F180082
:101190006A425043F86118008021661B7043F8666C
:1011A000180001335A4392007918BA61621E0E602A
:1011B0001100594389008846B96E1B018C46E044F2
:1011C00041467964A90049423961A1007C1CFF3481
:1011D00024685B42A446A42461443964791DFF312C
:1011E0003C1909682468FB606143B962B02183003F
:1011F0005B4279180B600300921B5043DB43AC2227
:101200009B00BA181360C4227B1DFF331B68BA18F9
:101210009B0078611360A022FB6FBA1813609C22B8
:10122000BA181268934202DDA023FB181A609823B3
:10123000FB181B68002B00DC9FE1A023FB181A6839
:10124000002A00DC99E19823FB181B68396C3B6588
:10125000A423FB181B6853439B00FB62BB6FFB641A
:101260009300CB1A79697B628C46FB6EB82163448C
:101270007B63002379180B60D021BB643B679C33F0
:10128000FB181B6879189B1ABB6013007960032157
:10129000013B043A8B43D31A3B63A422BA183B6D3B
:1012A0001268FB65934200DDFA65B822BA1812682D
:1012B000FB6D9446C8226344BA1813609C237A6A73
:1012C000FB1894461B6884227B673B6FBA189B000F
:1012D00063443B627B6B7B657B6CBB65A023FB1827
:1012E0001B6813608423B422FB181B68BA181360B0
:1012F000042B03DDB4220423BA1813608423FB18E3
:101300001B68002B00DCA5E0B422C820B824BA1862
:101310007B6F116838183C19006824685A1ABA6340
:10132000A04200DC9CE094464E1EB96E9B008A46AB
:10133000043B9B467B6D791C63449B00FF3109682D
:101340009A44BB6C63448C46A8219B006344791883
:101350000B609300C0225B42BA181360BC22BB6DC5
:10136000BA181360BC23FE20FB181B68800519689F
:101370000FF0C7FECC23FB181860A823FB181C68CD
:10138000B823FB181B68B1461E00C023FB181B685E
:101390005A469846A04443469958CC23FB181868EF
:1013A0000FF0C3FE43465A4698504B46051C002B8F
:1013B00022DD534619680FF0B8FE011C20680FF0BB
:1013C0009AFE4B462060012B16D05346281C5968C4
:1013D0000FF0ABFE011C60680FF08DFE4B466060A5
:1013E000022B09D05346281C99680FF09EFE011C61
:1013F000A0680FF080FEA060C423FB181B680136B4
:101400009C46C823FB181B6864449E42BDD1AC2295
:10141000BC23BA181268FB189446BC221B68BA1881
:10142000634413600423B0225B429C46BA181268DE
:10143000E3449446B4224E46BA181268731EE2443E
:10144000961BB2420CDD1E008CE7C0461C1B03201D
:10145000E0300320B422BA187B6F12689B1ABB637A
:101460008423B422BD6BBA18AC46FB1810681B6805
:101470007A1CFF3212681C1A3B6F796863449446E9
:101480009B0063440B607B1DFF331B6880464B60F1
:10149000A0230194FB181E6802000096FB6DF86CF7
:1014A0009B4689468246FFF7E1F8002C2ADD2B0097
:1014B000BA6849469446FD6BBA6E6B438C20634410
:1014C00094464D604D469B003818006863440B609D
:1014D000424623008146FFF773F929007B1DFF3345
:1014E0003D6A1B680D604B600D005B4603964646E7
:1014F0000193524623004946280004940296009620
:10150000FFF712FB84238422F968FB188C46B02174
:101510001B68BA18043B13607A6F7918043A09689B
:101520007A67BA6D62448C46BA657A6D62447A65B0
:101530003A6B934200D0D5E6A422B823BA181268B9
:10154000B8219446FB181B68791863440B60396D09
:101550008A1AF96A3A658C46FA6CB96A62448C4612
:10156000FA643A6F62443A67BA6C6244BA64982289
:10157000BA1812689A4200DD8FE680239C22FB187D
:101580001B68BA181360002B72DD9423FB181B68CC
:10159000002B00DCFEE78023BA6EFB1892461D6824
:1015A000FB6E00249B009A44D023FE1800239B4628
:1015B000013B99469423FB181B68A8469D4200DD19
:1015C0009846CC22A300BA181360FA6B8C20726084
:1015D000A0225344BA1838183100126800683360EA
:1015E0004346FFF7EDF87A1CCC23FF321268FB1854
:1015F00094461B688C21634433607B1DFF331B685A
:10160000791873605B4604934B46039302939823C7
:10161000FB181B6830000193A023FB181B68009384
:10162000BA6F43460968FFF77FFA9423FB181B68DB
:101630009C46ED1A8023FB181B686444A342B9DC66
:10164000FA69FB6E9446BA6963449446FB663A694C
:101650007B6C634494467B643B6CFA6F63443B64ED
:101660008023FB181B689B1A8022BA181360D2E5EE
:1016700080233A6E9B029A4208D98823FB181B6884
:10168000002B03D0043B18680FF0E0FF80237A6E34
:101690009B029A4208D99023FB181B68002B03D0A9
:1016A000043B18680FF0D2FFBD4637B0F0BCBB4614
:1016B000B246A946A046F0BD9A0080237A669B02F6
:1016C0009A424FD813006A461633DB08DB00D31A60
:1016D0009D4627200F23684498438133FB181860E8
:1016E00090238C22FB181B68BA1813606368AA0049
:1016F0003A66002B00D012E580239B029A424FD815
:1017000013006A461633DB08DB00D31A9D462720F8
:101710000F23684498437933FB1818608823FB181B
:101720001B682D4DBB672B78BFF35B8FDB0700D5A4
:1017300001E5280012F0B2FF284C002800D1FBE49C
:101740008023DB01236080231B0328006360A360E8
:1017500012F0C0FFF0E4A4220423BA1813600EE5CF
:101760001100FDE4100010300FF032FF9023FB1841
:10177000021E1860B4D00F23010099430B00102102
:101780008C468C209C446146DA60236838180160DE
:1017900058425841902340420140FB181960B8E478
:1017A000100010300FF014FF8823FB181860002879
:1017B000B4D00F23010099430B0010218C46D86050
:1017C00060689C4443425841614688234042B9675F
:1017D000FB1801401960A7E41C1B0320E030032024
:1017E000F0B55746DE464E464546E0B5B3B006AFC7
:1017F0008C24BB62E023FA6288223C19FB1821602A
:101800001C68BA182369786513608422A368BA1823
:101810001360834202DD8423FB181860842388222E
:101820008C21FB18BA18791812681B680D6853438D
:1018300055432268002A00D150E29B00FA678022BB
:101840003B650023BA1813606368AA00FA64002B92
:1018500000D161E2FB660023BB67E74D2B78BFF345
:101860005B8FDB0700D470E2E44C90220423BA18AB
:1018700013608833FB181B686068002B16DDDC22C0
:10188000BA187B6D12681900934200DA74E20901FC
:101890000EF08CF90323C217134090221B189B10E3
:1018A0009B00BA181360042B00DA60E27B6D002BFA
:1018B00000DCF1E18822B96ABA1808001268BB633B
:1018C00050439B1AB86098207B634B1C99001B0106
:1018D000FB61DC234A43381801607A609020DC22E7
:1018E000FB181B68BA189B009B46FB6A38183B63C1
:1018F000002312680068BB6542437A610A1F3A629E
:101900007B679422BB6BBA1813608822BA181268DE
:10191000934202DD9423FB181A608C23FB181B688A
:10192000002B00DC45E19423FB181A68002A00DC38
:101930003FE18C239021FB181B687918BB641300CE
:101940000968DA464B43D821791809689B008C4610
:101950003B61FB6E9C21FB657B6F79189B006344A8
:10196000FB6000230B60A8213B66791813003960E7
:101970000321013B043A8B43D31ABB619022BA186E
:10198000BB6C1268BB66934200DDBA669C22BA1833
:101990001268BB6E9446FA68634494469B463B6E5D
:1019A0009B006344FB633B6B3B647B6F7B66BB6D5F
:1019B0007B649423FB181B683B679423FB181A680D
:1019C0003B6FD21A7A62A022BA181360042B03DD8F
:1019D000A0220423BA1813603B6F002B58DD9C2310
:1019E000FB181B689B4553DDA023A422FB181B6832
:1019F000BA18013B9946FB6B13603B6C98464B460B
:101A0000002B2EDDA423FB181C689C23FB181E68EA
:101A1000434625685968281C0FF087FB011C606845
:101A20000FF069FB4B466060012B16D04346281C23
:101A300099680FF07AFB011CA0680FF05CFB4B4625
:101A4000A060022B09D04346281CD9680FF06DFB1B
:101A5000011CE0680FF04FFBE060013654445E4526
:101A6000D6D14B465A1E9823FB181B68A4219C46CE
:101A7000A423FB181B68791804330B60A023FB1800
:101A800019684B46E044CB1A994201DD9146B6E70E
:101A9000A022BA181468D8223B6F796E3E6E8C462D
:101AA0001D1B3300BA1810686344844639689B00D4
:101AB00063440B60DC23FB181B6822004B607B6ACD
:101AC000884601939423FB1818680090BB6EF86D4C
:101AD000FEF7CCFD002D36DD7B6E41469C46786CD2
:101AE000220064440319F86A9B008446B86A634480
:101AF0004860A02038180260F86F0B602B00C146C8
:101B00008046FEF75DFED822BA18331914689B0090
:101B1000A4464C4663442360DC23FB1819687B6AA7
:101B2000616004939423FB181E68A0230396FB189E
:101B30001A6841460292BB6E0092019348462B0000
:101B4000FA6DFEF7F1FF396A7A6C8C46F9696244E6
:101B50008C467A647A6E3B6F04327A663A6C043B48
:101B600062443A64FA6B3B671032FA63BA69934293
:101B700000D022E790229C23BA1812689C21944638
:101B8000FB181B68791863440B60B96C8A1A796971
:101B9000BA648C463A6E396962448C463A66FA6D8C
:101BA0006244FA658C22BA1812689A4200DDE5E6B2
:101BB000D3468822BA1812687B6F94467A6D6344C4
:101BC0007B67934268DA8423FB181B68002B17DCC1
:101BD0008823B968FB188C46BA6B1B68D21ABA63A3
:101BE000BA6D6244BA657A6BD31A7A687B6394469D
:101BF0003B6B63443B6384E61C1B0320E030032003
:101C0000FA6ABB6D92469B009A44A823FE18A93B32
:101C100099467D6B7C6F8423FB181B68A8469D4208
:101C200000DD9846A422A300BA181360BA6A534490
:101C300072609422BA1831001268F86F336043461C
:101C4000FEF7BEFDD822A423BA181268FB189446EA
:101C50001B68300063443360DC23FB181B6873602F
:101C6000002304934B46039302938C23FB181B68B9
:101C700001939423FB181B680093FA6E4346F96F97
:101C8000FEF752FF8423FB181B689C46ED1A7B6D00
:101C90006444A342BFDC9BE78023FA6C9B029A4218
:101CA00006D9BB6F002B03D0043B18680FF0CEFCA5
:101CB00080233A6D9B029A4208D98023FB181B6847
:101CC000002B03D0043B18680FF0C0FCBD462DB0BC
:101CD000F0BCBB46B246A946A046F0BD9A008023A0
:101CE0003A659B029A4249D813006A461633DB08CC
:101CF000DB00D31A9D4627200F2368449843713395
:101D0000FB1818608023FB181B68AA00FB67636838
:101D1000FA64002B00D09DE580239B029A4249D8AB
:101D200013006A461633DB08DB00D31A9D462720D2
:101D30000F2368449843B867BB6F2A4DFB662B7826
:101D4000BFF35B8FDB0700D58EE5280012F0A6FC01
:101D5000254C002800D188E58023DB012360802307
:101D60001B0328006360A36012F0B4FC7DE59022A1
:101D70000423BA18136099E5110088E510001030AB
:101D80000FF026FC8023FB1818600028BAD00F2320
:101D9000010099430B0010218C46D8609C442368B5
:101DA00061465842584180234042F967FB18014080
:101DB000196049E5100010300FF00AFCB8670028E0
:101DC000BAD00F23010099430B0010218C46D86034
:101DD00060689C444342584161464042F966014074
:101DE000B9673AE51C1B0320E030032030B587B00B
:101DF0000D4B02AD00951A68694602929A8804005C
:101E0000AA809B796A46AB71072301930023D373A1
:101E10002FF0D6FB0098A84203D0029901310FF0B1
:101E200049FC200007B030BDB0420510F0B5DE46D9
:101E300057464E464546E0B51F1CFE4B8FB01D6809
:101E4000FD4B079018680A91011C00920FF056F99B
:101E5000FA4B19680FF069F9291C0FF066F9F84B75
:101E600019680FF04EF9011CFE2080050FF043F9B0
:101E7000F44B81461860F44B1E68301C0FF008FAD2
:101E8000F24B041C1B68301C98460FF013FAF04B01
:101E90008346211C40461E680FF047F9594682468A
:101EA000301C0FF042F9011C50460FF027F9291C95
:101EB0000FF03BF9E74B8246186080231B06434432
:101EC0001800391C0FF031F900998046301C0FF0D2
:101ED0002CF9011C40460FF011F9DF4B80461968C0
:101EE000201C0FF022F918990FF01FF9011C404631
:101EF0000FF004F9291C0FF018F9D84B1899186045
:101F000080231B068046F0180FF00FF9291C0FF0F4
:101F10000CF9D34B00901860391C281C0FF005F900
:101F2000211C0FF0EEF8CF4CCF4B2668CF4C186039
:101F30002768CF4B83461968381C0FF0F6F8CD4C54
:101F4000311C2568041C48460FF0EFF8011C201CCA
:101F50000FF0D4F8C84B041C1968281C0FF0E5F8E2
:101F6000011C201C0FF0CAF841460FF0C7F8C34B04
:101F70000C901860C24B381C1C68C24B19680FF0DB
:101F8000D4F8211C8046301C0FF0CFF8011C4046CD
:101F90000FF0B4F8291C804650460FF0C6F8011C1B
:101FA00040460FF0ABF800990FF0A8F8B64B089038
:101FB0001860B64B301C19680FF0B7F8B44B061C0C
:101FC0001968381C0FF0B1F8011C301C0FF096F89E
:101FD000B04B061C1968281C0FF0A7F8011C301C18
:101FE0000FF08CF859460FF089F8AB4EAB4B3568C3
:101FF00018604946099048460FF097F8291C0FF0E1
:1020000094F8A74B19680FF079F8A64BA64A186008
:1020100012680D90211C484690460FF086F8291C46
:102020000FF083F8A14F061C3F684846391C009703
:102030000FF07BF8011C301C0FF060F85146061CB5
:1020400048460FF072F841460FF06FF8011C301C43
:102050000FF054F8964B41460190186048460FF037
:1020600064F8944B02901860291C201C0FF05DF856
:10207000914D924E29680FF041F83768051C391CC4
:1020800050460FF052F8011C281C0FF037F8061CC0
:10209000011C48460FF049F8894B8A4A18608A4B60
:1020A00012681B68039005930492884D50462D6872
:1020B000291C06950FF039F84146051C201C0FF02D
:1020C00034F8834B19680FF019F8291C0FF016F833
:1020D000311C8346201C0FF028F80099061C201C98
:1020E0000FF023F8011C301C0FF008F805990FF0D1
:1020F00005F8049B061C191C504698460FF015F86D
:10210000011C301C0EF0FAFF5946061C50460FF019
:102110000CF8011C301C0EF0F1FF6E4B5E46196886
:102120000EF0ECFF6C4B009018606C4B391C1E607D
:1021300048460EF0FAFF6A4B04901860391C201CC8
:102140000EF0F3FF41460EF0D9FF291C0EF0D6FF2A
:10215000644B041C1860644B196806980EF0CEFF9F
:10216000624B0899071C186007980EF0C4FF604B7B
:102170000999069018600A980EF0BDFF5D4B079014
:1021800018605D4B059819680EF0B8FF5B4B061C94
:10219000186058465A4B059718605A4B381C1C60FB
:1021A000594B19680EF0AAFF584B071C1860011C08
:1021B000301C0EF0BAFF211C051C58460EF0B5FF6E
:1021C000011C281C0EF097FF051C011C381C0EF08A
:1021D00098FF4F4B071C186080231B065B44291C8B
:1021E00018000EF08EFF4B4B8146186080231B06B3
:1021F000E018291C0EF085FF474B82461860291C09
:10220000301C0EF07EFF454B80461860391C01984B
:102210000A970EF08AFF029E5146051C301C0EF0F4
:1022200084FF011C281C0EF069FF3D4B071C186041
:10223000494677E008160020E4150020FC1803202A
:1022400010160020FC3703204C16002050160020EA
:10225000541600200C38032004160020505203208E
:102260005452032028190320585203202C1903200C
:1022700000380320301903200438032034190320C8
:1022800008380320FC1500203819032010380320DB
:102290001438032000160020141600203C190320D7
:1022A0002C16002018160020E0460320D8460320F4
:1022B000DC460320E4460320E8460320F8460320DA
:1022C000EC460320004703201C16002024160020A3
:1022D000F04603203016002020160020F44603208C
:1022E000FC46032004470320341600202816002053
:1022F000E8370320EC37032038160020B4510320C0
:10230000B8510320BC5103203C160020C0510320CB
:10231000C4510320C8510320CC510320D0510320C5
:10232000B028002001980EF000FF4146051C301C2B
:102330000EF0FBFE011C281C0EF0E0FE914B061C6B
:102340000A99186000980EF0F0FE5146051C584698
:102350000EF0EBFE011C281C0EF0D0FE8A4B494605
:1023600018600B9000980EF0E0FE4146051C5846A0
:102370000EF0DBFE011C281C0EF0C0FE834B051C7A
:102380000A991860201C0EF0D0FE51460A9005985C
:102390000EF0CBFE011C0A980EF0B0FE7C4B82467C
:1023A00018604946201C0EF0C0FE41468146059843
:1023B0000EF0BBFE011C48460EF0A0FE754B814698
:1023C0001860391C06980EF0B0FE0C990EF096FEBF
:1023D000311C804607980EF0A8FE011C40460EF006
:1023E0008DFE6D4B0B99186006980EF09EFE0899B5
:1023F0000EF084FE291C804607980EF096FE011C04
:1024000040460EF07BFE654B5146186006980EF074
:102410008CFE09990EF072FE4946804607980EF030
:1024200084FE011C40460EF069FE5D4B391C1860AD
:1024300003980EF07AFE011C0D980EF05CFE311C24
:10244000804604980EF071FE011C40460EF053FECB
:10245000544B391C186000980EF067FE011C01985F
:102460000EF049FE311C8046201C0EF05EFE011C61
:1024700040460EF040FE4C4B391C186058460EF09A
:1024800054FE011C02980EF036FE059B071C311C01
:10249000181C98460EF049FE011C381C0EF02BFE4D
:1024A000424B0B991860FE2080050EF024FE061C9E
:1024B000011C03980EF039FE291C071C04980EF02D
:1024C00034FE011C381C0EF016FE394B311C18600E
:1024D00000980EF02AFE291C071C201C0EF025FE79
:1024E000011C381C0EF007FE324B311C1860584698
:1024F0000EF01BFE291C061C40460EF016FE011CA9
:10250000301C0EF0F8FD2C4B49461860FE2080056B
:102510000EF0F1FD051C011C04980EF006FE51465C
:10252000061C03980EF001FE011C301C0EF0E3FDAA
:10253000224B291C1860201C0EF0F7FD5146041C8C
:1025400000980EF0F2FD011C201C0EF0D4FD1C4B77
:10255000291C186040460EF0E8FD5146041C584600
:102560000EF0E3FD011C201C0EF0C5FD154B18609C
:10257000FE2080050FB0F0BCBB46B246A946A0467F
:10258000F0BDC046B4280020B8280020BC28002098
:10259000C0280020C4280020281903202C1903205B
:1025A0003019032014160020D8460320E0460320EB
:1025B000E84603201C160020F0460320F8460320BE
:1025C0000047032024160020F0B5DE4657464E464D
:1025D0004546E24BE0B51860E14B0D1C1B68E14C31
:1025E00098464146E04BE4681960DD4989B0496886
:1025F000069059608946DB4BDA491F684E68DB4B11
:1026000089681F605E609960DC60D94B05949A68A8
:1026100058681C68029204910190DB68211C4046B6
:1026200003930EF082FD0299824648460EF07DFD2E
:10263000011C50460EF062FDCE4B82461968281CE4
:102640009B460EF072FD011C50460EF057FDCA4B22
:1026500001991860079040469A460EF066FD03996E
:10266000804648460EF061FD011C40460EF046FDD6
:102670005B4680465968281C0EF057FD011C4046F9
:102680000EF03CFD554683466860211C381C0EF058
:102690004CFD029A051C111C301C90460EF045FDA5
:1026A000011C281C0EF02AFD01998146381C0EF0F1
:1026B0003CFD039F051C391C301C0EF036FD011C2F
:1026C000281C0EF01BFD211C824604980EF02DFDE7
:1026D0004146051C05980EF028FD011C281C0EF033
:1026E0000DFD46460199804604980EF01EFD391CEA
:1026F000051C05980EF019FD011C281C0EF0FEFCAF
:102700004946071C201C0EF010FD4146051C301CDC
:102710000EF00BFD011C281C0EF0F0FC974E3168EA
:102720000EF0ECFC964D514604902860201C0EF0F3
:10273000FCFC391C041C02980EF0F7FC011C201C48
:102740000EF0DCFC71680EF0D9FC4946029068601E
:1027500001980EF0EAFC039A4146041C101C9146B5
:102760000EF0E3FC011C201C0EF0C8FCB1680EF05A
:10277000C5FC5146041CA86001980EF0D6FC391C1B
:10278000804648460EF0D1FC011C40460EF0B6FCD7
:10279000F1680EF0B3FCE8607A4D071C2E680498CF
:1027A000311C0EF0C2FC6D688046291C381C019754
:1027B0000EF0BBFC291C824602980EF0B6FC414686
:1027C0000EF09CFC311C0EF0B0FC311C071C201CD0
:1027D0000EF0ABFC51460EF091FC291C0EF0A5FC4E
:1027E000011C381C0EF08AFC674B19680EF086FC41
:1027F000664B071C1860291C201C0EF096FC4146F5
:102800000EF07CFC391C0EF07CFC61498046894648
:1028100008600298311C0EF088FC51460EF06EFCE8
:10282000391C0EF06EFC4946079B071C4860181CBB
:10283000311C9A460EF079FC291C814658460EF050
:1028400074FC011C48460EF059FC011C06980EF061
:1028500052FC414681460EF068FC51460EF04EFC9B
:102860003F4A391C106048460EF05FFC59460EF096
:1028700045FC3B4A81465060464A311C93464046DF
:102880000EF053FC5A46011C10680EF034FC311C4B
:102890008246381C0EF049FC5A46011C50680EF066
:1028A0002AFC291C061C40460EF03FFC5A46011C1F
:1028B00090680EF020FC291C8046381C0EF035FC78
:1028C0005A46011CD0680EF016FC5146051C0498AF
:1028D0000EF02BFC029B4146071C181C9B460EF079
:1028E00024FC011C381C0EF009FC1E4A311C10602F
:1028F00004980EF01AFC291C071C58460EF015FC13
:10290000011C381C0EF0FAFB164B51465860201C77
:102910000EF00BFC019B4146071C181C98460EF05C
:1029200004FC011C381C0EF0E9FB0E4B311C9860B6
:10293000201C0EF0FAFB291C041C40460EF0F5FB8F
:10294000011C201C0EF0DAFB064BD860484609B08B
:10295000F0BCBB46B246A946A046F0BDDC520320FF
:1029600094460320B0230020683C0320F02300207D
:102970001024002030370320A44603200023002029
:10298000D0230020B846032040180320543C0320E5
:10299000A828002030240020F0B5DE4657464E46D9
:1029A0004546E0B5674B83B059689A460EF0A3FBE5
:1029B000654B051C1860654B1B689B46644B59466C
:1029C0001C680EF09BFB211C0EF0AFFB614B061C3C
:1029D0001868011C0EF092FB011C301C0EF091FBDC
:1029E0005D4E31680EF08AFB5C4B009030601868D9
:1029F000011C0EF083FB5A4B061C1A68111C9146F1
:102A00000EF093FB8046011C201C0EF077FB211C6E
:102A1000071C40460EF06FFB524A116890460EF0BC
:102A200084FB391C0EF06DFB4946019048460EF0C0
:102A300065FB59468146281C0EF05DFB011C48468B
:102A40000EF073FB391C0EF05CFB011C01980EF0BC
:102A500055FB424600991060071C281C0EF04EFBE7
:102A6000391C0EF04BFB404B19680EF05EFB3F4BE0
:102A700018603F4B1860534619680EF03CFB3D4B05
:102A8000051C18603C4B1B68191C9A460EF036FB5F
:102A9000211C0EF04AFB394B80461868011C0EF0D1
:102AA0002DFB011C40460EF02CFB354B9946196856
:102AB0000EF024FB4B461860324B80461B68301CDE
:102AC000191C99460EF031FB8346011C201C0EF0A8
:102AD00015FB4946061C48460EF010FB5146814640
:102AE000281C0EF008FB011C48460EF01EFB311C92
:102AF0000EF007FB211C814658460EF0FCFA391CEB
:102B00000EF013FB311C0EF0FCFA011C48460EF0CF
:102B1000F5FA1D4B41461860041C281C0EF0EEFA15
:102B2000211C0EF0EBFA194B19680EF0FEFA184B47
:102B30001860184B186003B0F0BCBB46B246A946FB
:102B4000A046F0BD94460320F4370320603C0320E8
:102B50000C160020E81500204C3C0320F81500203E
:102B6000D8280020D0370320F01500205C52032025
:102B70004C520320F8370320643C0320EC1500205E
:102B8000503C0320DC280020D4370320F41500201B
:102B90006052032064520320F8B5FE250024194B2F
:102BA000AD051D60DD609C605C60174B174F1D60BC
:102BB000DD609C605C60164B1E68164B301C19680B
:102BC0000EF09FFA144B38601D605C60DD609C6005
:102BD000124B7C601D605E60DD609C60104B1C6071
:102BE0005D60104B1868011C0EF09FFA0E4B0F4AE7
:102BF000186012680E4B1A600E4A9C6012685C6086
:102C0000DA60F8BDB0230020D02300203037032045
:102C10000C16002010160020302400201024002064
:102C2000B846032048160020401803202818032027
:102C30000023002024180320F0B5DE4657464E46F8
:102C40004546E0B50E000168C768894641680569D8
:102C50008A4681688DB08B464169806907930690EA
:102C600050681368926805910A90291C30680B928D
:102C7000099308950EF03FFA0599039070680EF0DD
:102C80003AFA0699051CB0680EF035FA802680469F
:102C9000360607980EF0E2FAB446039B00900191C5
:102CA0006344180051460EF040FA5946061C281C91
:102CB0000EF03BFA011C301C0EF01DFA391C061CEC
:102CC000404604970EF031FA011C301C0EF013FA46
:102CD0000EF0C4FA0022684B0DF0E7F9009A019B50
:102CE0000DF0E3F9060048460F000EF0B7FA0200B7
:102CF0000B0030003900169C0DF0B0F90DF0DAFA37
:102D00004946206003980EF010FA5946061C4046CA
:102D10000EF00BFA011C301C0EF0F0F90499061CA1
:102D2000281C0EF002FA011C301C0EF0E4F90EF023
:102D300095FA0022504B0DF0B8F9009A019B0DF066
:102D4000B4F9060050460F000EF088FA02000B009E
:102D5000300039000DF082F90DF0ACFA49466060A0
:102D6000281C0EF0E2F95146061C40460EF0DDF933
:102D7000011C301C0EF0BFF90499061C03980EF0DC
:102D8000D4F9011C301C0EF0B9F90EF067FA0022DC
:102D9000394B0DF08AF9009A019B0DF086F9060077
:102DA00058460F000EF05AFA02000B0030003900AE
:102DB0000DF054F90DF07EFA4946A06040460EF041
:102DC000B4F95146061C281C0EF0AFF9011C301C4A
:102DD0000EF094F95946051C03980EF0A6F9011C53
:102DE000281C0EF088F90EF039FA0022224B0DF063
:102DF0005CF9009A019B0DF058F9060004980F0049
:102E00000EF02CFA02000B00300039000DF026F90C
:102E10000DF050FA089B0999E060181C98460EF0D6
:102E200084F9079D291C0EF080F9011C40460EF024
:102E300062F9059F0A992061381C0EF076F9291C69
:102E40000EF073F9011C381C0EF055F9069E0B9913
:102E50006061301C0EF069F9291C0EF066F9011C46
:102E6000301C0EF048F9A06100200DB0F0BCBB464C
:102E7000B246A946A046F0BD0000E03FF0B5DE46F0
:102E800057464E4645468A464168E0B58846C7687B
:102E9000816891B0066889464046391C141C049329
:102EA0000EF043F94946051C301C0EF03EF90A901D
:102EB000011C281C09950EF01EF90EF0CFF9020036
:102EC0000B000DF0CBF806900791201C02940EF039
:102ED000C5F90B00020004000D00069807990DF0DB
:102EE000E4F80DF0E7F95246391C106048460EF040
:102EF0001CF983464146301C0EF017F95A460E90D5
:102F0000011C58460B920EF0F9F80EF0A7F90200DA
:102F10000B000DF0A3F802000B00200029000C921A
:102F20000D930DF0C2F80DF0C5F95446311C6060E8
:102F3000301C0EF0FAF84146041C40460EF0F5F83D
:102F4000051C011C201C0EF0D6F849460890484686
:102F50000EF0EBF8391C8346381C0EF0E6F85946A3
:102F6000019008980EF0C7F801990EF0C7F8029981
:102F70000F900EF0DAF853464946986040460EF03E
:102F8000D4F8391C8046301C0EF0CFF881461A98D0
:102F90000EF064F906001B980F000EF05FF9029026
:102FA0000391291C201C0EF0A9F859460EF0A3F835
:102FB00001990EF0A0F804990EF0B7F80EF04EF952
:102FC00004000D00404649460EF098F80EF046F910
:102FD00002000B000DF042F832003B000DF065F8E6
:102FE00002000B00200029000DF038F8029A039B24
:102FF00004000D00069807990DF057F802000B0029
:10300000200029000DF02AF80DF054F95346D8603D
:1030100004980EF023F904000D00404649460EF0D6
:103020006AF80EF01BF902000B000DF017F82200F1
:103030002B00049405950DF038F804000D00089855
:1030400059460EF05BF801990EF055F81A990EF0FA
:103050006CF80EF003F902000B00200029000CF0C0
:10306000FDFF029A039B04000D000C980D990DF0D2
:103070001CF802000B00200029000CF0EFFF0DF0FF
:1030800019F953460A99186109980EF037F80EF0AD
:10309000E5F802000B000CF0E1FF049A059B0DF02F
:1030A00004F804000D000B980E990EF024F80EF0B1
:1030B000D5F802000B000CF0D1FF32003B000CF001
:1030C000F4FF02000B00200029000CF0C7FF0400F1
:1030D0000D000F981B990EF028F80EF0BFF80200B3
:1030E0000B00200029000CF0B9FF0DF0E3F8534667
:1030F0005861002011B0F0BCBB46B246A946A046BC
:10310000F0BDC046F0B50400DE4657464E46454683
:103110000800E0B545680968AA46856895B0AB46E1
:10312000C5684669876910910E95016955681068F0
:103130009268049690461A68069711925A689B689E
:1031400012921393FE239B05236099460DF0D3FF43
:103150000EF084F8009001911E980EF07FF80600A2
:103160000F00009801990022924B0CF09EFF320054
:103170003B000CF09AFF0DF09DF804990390E0617C
:10318000281C0DF0B8FF0EF069F80022894B04905E
:1031900005910CF08AFF32003B000CF086FF0DF029
:1031A00089F80699051CA06340460DF0A4FF0EF0B7
:1031B00055F800227F4B069007910CF076FF320005
:1031C0003B000CF072FF0DF075F80A9060655046F8
:1031D0000EF044F80022784B089009910CF065FF3E
:1031E00032003B000CF061FF0DF064F80B9020679B
:1031F00058460EF033F800226F4B0C900D910CF0F6
:1032000054FF32003B000CF050FF0DF053F88C23BC
:103210008246E0500E980EF021F80022664B0E9088
:103220000F910CF042FF32003B000CF03EFF0DF01E
:1032300041F8A8238346E0500022009801995E4B94
:103240000CF033FF32003B000CF02FFF0DF032F892
:103250004946009060602162002206980799564B0B
:103260000CF023FF32003B000CF01FFF0DF022F8A2
:10327000A5658046E06310980DF0F0FF00224D4BED
:103280000CF013FF32003B000CF00FFF0DF012F8B2
:1032900059469023051C60670022E1500C980D9957
:1032A000444B0CF002FF32003B000CF0FEFE0DF030
:1032B00001F8AC230022E050049805993E4B0CF035
:1032C000F4FE32003B000CF0F0FE0CF0F3FF494638
:1032D0000A9A83466262009AA0602164E2650E98B1
:1032E0000F990022334B0CF0E0FE32003B000CF053
:1032F000DCFE0CF0DFFF94230B99A067E5501C3334
:10330000E1504146E1605946A16249462166514675
:10331000039BE1676364089809990022254B0CF030
:10332000C4FE32003B000CF0C0FE0CF0C3FF98233B
:10333000E0501C33E55000251E9911982561E56287
:10334000A56465660DF0F1FE011C48460DF0D3FE44
:103350008023E0501C33E5501C33E550343B1E996C
:10336000129865612563E564A566E5500DF0DDFE04
:10337000011C48460DF0BFFEA023E0501C33E55071
:10338000343BA56165632565E566E5501C33E55072
:103390001E9913980DF0C9FE011C48460DF0ABFEB6
:1033A000C023E050002015B0F0BCBB46B246A94691
:1033B000A046F0BD0000E0BF0000E03FF0B5DE46F3
:1033C00057464E464546E0B59A460B68141C8A6837
:1033D0009B464B68C9688BB00500101C884600935B
:1033E00001920DF03BFF02900391201C0DF036FF7F
:1033F000C02306000F000298039900221B060CF060
:1034000054FE32003B000CF050FE0CF053FF0890CD
:10341000286040460DF022FF02000B000CF01EFE5B
:1034200032003B000CF041FE0CF044FF041CA8618C
:1034300058460DF013FFC02300221B06049005918F
:103440000CF033FE32003B000CF02FFE0CF032FF8C
:10345000286300980DF002FF02000B000690079110
:103460000CF0FCFD32003B000CF01FFE0CF022FFC4
:10347000002190238946A8642966A967E9506860FD
:103480000498059902000B000CF0E8FD32003B00A7
:103490000CF00BFE0CF00EFF6C630490E8610298D8
:1034A000039902000B000CF0D9FD32003B000CF038
:1034B000FCFD0CF0FFFE49469423E8646966E96769
:1034C000E950C02306980799049A1B06AA600022B7
:1034D0000CF0EBFD32003B000CF0E7FD0CF0EAFED7
:1034E000089B4946AB63802328622C65A966E95096
:1034F0001833E950404614990DF017FE019F1599B5
:10350000061C381C0DF011FE5146041C58460DF0E7
:103510000CFE311C0DF0F2FD211C06940DF0EBFDAC
:10352000011C0DF0EBFD51460990E86000980DF08C
:10353000FCFD1499041C381C0DF0F7FD011C201C27
:103540000DF0DCFD1599041C40460DF0EEFD011C4C
:10355000201C0DF0D3FD011C0DF0D0FD149902903C
:10356000686200980DF0E1FD1599089058460DF03D
:10357000DCFD019A8024944624066444071C5146CD
:1035800020000DF0D2FD08990DF0B8FD391C0DF0AA
:10359000B2FD011C0DF0B2FD1499E86358460DF020
:1035A000C4FD1599049000980DF0BFFD802212060D
:1035B0004244041C514610000DF0B7FD04990DF073
:1035C0009DFD211C0DF09AFD011C0DF097FD4A4652
:1035D0008423EA666865EA501833EA505146286148
:1035E00001980DF0A2FD08990DF085FD391C0DF034
:1035F00085FD011C0DF082FD071CA8628020029B46
:1036000000062B64514658440DF08FFD311C0DF01F
:1036100072FD06990DF072FD011C0DF06FFD8823FF
:10362000A86548462867E8501833E8505146404698
:103630006F610DF07AFD04990DF05DFD211C0DF018
:103640005AFD011C0DF05AFD099AE8626A64029B5A
:103650004A46EB654B466B678C230020EA501833D3
:10366000EA500BB0F0BCBB46B246A946A046F0BD3E
:103670000123F0B5E3214746CE469C46294B8046C0
:1036800005009946284E80B58900076846444144A4
:10369000FA0F6F68D2077B005B08346813435A083F
:1036A000624064461C4201D04B465A4004C5043671
:1036B000A942EDD1E32342469B00C626D458194BBC
:1036C00001259C46F6004644E20F4C68D207630091
:1036D0005B08076813435A087A401D4201D06346CD
:1036E0005A40043004C1B042EED14246C6214046A1
:1036F0000E4BC900D3581268DB0F52005208DB078B
:10370000415813435A084A40DB0701D5054B5A403C
:103710004146064BCA5000220433CA50C0BCB946C9
:10372000B046F0BDDFB0089934060000BC090000C7
:10373000F0B54546DE4657464E46E0B53B4CD723EE
:10374000A54434AA944663441B091B018A68059367
:103750000B68019237921A68049006929A69339125
:1037600007921A6B38AC08929A6C09921A6E0B92F7
:103770009A6F0C9290229A580D925A680E92DA69BA
:103780000F925A6B1092DA6C11925A6E1292DA6F93
:10379000139294229A5814929A6815921A6A169261
:1037A0009A6B17921A6D18929A6E199280229A58F3
:1037B0001A9298229A581B92DA681C925A6A1D92A1
:1037C000DA6B1E925A6D1F92DA6E209284229A58FA
:1037D00021929C229A5822921A6923929A6A2492E0
:1037E0001A6C25929A6D26921A6F279288229A58FF
:1037F0002892A0229A5829925A692A92DA6A2B9220
:103800005A6C2C92DA6D2D925A6F2E928C229A5805
:103810002F92A4229B5830934B68984638AB329332
:10382000C423454643440A9302E0C0469CFDFFFF83
:10383000EA68A96991462A69AB6890466A6909985D
:1038400003914946019302920DF06FFC4146824676
:103850000B980DF06AFC011C50460DF04FFC0299CC
:1038600082460C980DF061FC039983460D980DF08B
:103870005CFC011C58460DF041FC011C50460DF04B
:103880003DFC6F688246391C07980DF04EFC01998B
:10389000834608980DF049FC011C58460DF02EFC9B
:1038A0002E688346311C06980DF03FFC011C5846DB
:1038B0000DF024FC011C50460DF020FC4946206010
:1038C00011980DF032FC4146824612980DF02DFC05
:1038D000011C50460DF012FC0299824613980DF01F
:1038E00024FC0399834614980DF01FFC011C5846D4
:1038F0000DF004FC011C50460DF000FC391C824602
:103900000F980DF012FC0199834610980DF00DFCF4
:10391000011C58460DF0F2FB311C83460E980DF049
:1039200004FC011C58460DF0E9FB011C50460DF04B
:10393000E5FB4946606018980DF0F7FB414682466A
:1039400019980DF0F2FB011C50460DF0D7FB0299BF
:1039500082461A980DF0E9FB039983461B980DF0F7
:10396000E4FB011C58460DF0C9FB011C50460DF04C
:10397000C5FB391C824616980DF0D7FB019983468A
:1039800017980DF0D2FB011C58460DF0B7FB311C07
:10399000834615980DF0C9FB011C58460DF0AEFB8F
:1039A000011C50460DF0AAFB4946A0601F980DF07F
:1039B000BCFB4146824620980DF0B7FB011C5046E7
:1039C0000DF09CFB0299824621980DF0AEFB039905
:1039D000834622980DF0A9FB011C58460DF08EFB82
:1039E000011C50460DF08AFB391C82461D980DF0D3
:1039F0009CFB019983461E980DF097FB011C5846CD
:103A00000DF07CFB311C83461C980DF08EFB011CD5
:103A100058460DF073FB011C50460DF06FFB4946F4
:103A2000E06026980DF081FB4146824627980DF014
:103A30007CFB011C50460DF061FB029982462898E0
:103A40000DF073FB0399834629980DF06EFB011C62
:103A500058460DF053FB011C50460DF04FFB391C2E
:103A6000824624980DF061FB0199834625980DF05C
:103A70005CFB011C58460DF041FB311C834623982A
:103A80000DF053FB011C58460DF038FB011C50464D
:103A90000DF034FB2D99206148460DF046FB2E9920
:103AA000814640460DF041FB011C48460DF026FBC7
:103AB0002F99804602980DF038FB30998146039883
:103AC0000DF033FB011C48460DF018FB011C40466D
:103AD0000DF014FB391C80462B980DF026FB2C9919
:103AE000071C01980DF021FB011C381C0DF006FB92
:103AF000311C071C2A980DF018FB011C381C0DF016
:103B0000FDFA011C40460DF0F9FA0A9B1C35606174
:103B10001834AB4200D08BE6379B1A686293089248
:103B20009A6909921A6B0A929A6C0B921A6E0C920D
:103B30009A6F0D9290229A580E925A680F92DA69F3
:103B400010925A6B1192DA6C12925A6E1392DA6FCB
:103B5000149294229A5815929A6816921A6A179299
:103B60009A6B18921A6D19929A6E1A9280229A582C
:103B70001B9298229A581C92DA681D925A6A1E92D9
:103B8000DA6B1F925A6D2092DA6E219284229A5833
:103B900022929C229A5823921A6924929A6A259218
:103BA0001A6C26929A6D059C27921A6F20342892DF
:103BB00088229A58A1462992A0229A582A925A6994
:103BC0002B92DA6A2C925A6C2D92DA6D2E925A6FE1
:103BD0002F928C229A583092A4229B5831935CAB3E
:103BE00006933EAB0793329B984643464246414676
:103BF00040461B6895690193069B146B096E926C95
:103C000040CB876F0291101C0B99039206930DF025
:103C10008CFA0C99824602980DF087FA011C5046E6
:103C20000DF06CFA0D998246381C0DF07EFA0E9953
:103C30008346301C0DF079FA011C58460DF05EFAEF
:103C4000011C50460DF05AFA09998246281C0DF0C5
:103C50006CFA0A998346201C0DF067FA011C58463D
:103C60000DF04CFA0899834601980DF05EFA011C9C
:103C700058460DF043FA011C50460DF03FFA4B46F2
:103C80001299186003980DF050FA13998246029821
:103C90000DF04BFA011C50460DF030FA1499824693
:103CA000381C0DF042FA15998346301C0DF03DFA90
:103CB000011C58460DF022FA011C50460DF01EFA68
:103CC00010998246281C0DF030FA11998346201C69
:103CD0000DF02BFA011C58460DF010FA0F9983468F
:103CE00001980DF022FA011C58460DF007FA011C4C
:103CF00050460DF003FA4B461999586003980DF0A1
:103D000014FA1A99824602980DF00FFA011C5046D7
:103D10000DF0F4F91B998246381C0DF006FA1C9937
:103D20008346301C0DF001FA011C58460DF0E6F9EF
:103D3000011C50460DF0E2F917998246281C0DF03F
:103D4000F4F918998346201C0DF0EFF9011C584630
:103D50000DF0D4F91699834601980DF0E6F9011C8F
:103D600058460DF0CBF9011C50460DF0C7F94B46F3
:103D70002099986003980DF0D8F92199824602980D
:103D80000DF0D3F9011C50460DF0B8F92299824686
:103D9000381C0DF0CAF923998346301C0DF0C5F983
:103DA000011C58460DF0AAF9011C50460DF0A6F969
:103DB0001E998246281C0DF0B8F91F998346201CD5
:103DC0000DF0B3F9011C58460DF098F91D99834682
:103DD00001980DF0AAF9011C58460DF08FF9011C4D
:103DE00050460DF08BF94B462799D86003980DF09B
:103DF0009CF92899824602980DF097F9011C5046CB
:103E00000DF07CF929998246381C0DF08EF92A991B
:103E10008346301C0DF089F9011C58460DF06EF9EF
:103E2000011C50460DF06AF925998246281C0DF0B8
:103E30007CF926998346201C0DF077F9011C584621
:103E40000DF05CF92499834601980DF06EF9011C80
:103E500058460DF053F9011C50460DF04FF94B46F2
:103E60002E99186103980DF060F92F9982460298F7
:103E70000DF05BF9011C50460DF040F93099824677
:103E8000381C0DF052F93199071C301C0DF04DF91A
:103E9000011C381C0DF032F9011C50460DF02EF9B2
:103EA0002C99061C281C0DF040F92D99051C201C8E
:103EB0000DF03BF9011C281C0DF020F92B99041C76
:103EC00001980DF032F9011C201C0DF017F9011CAE
:103ED000301C0DF013F94B46586104239C461433F3
:103EE000E0449C46079BE144984500D07DE6339B27
:103EF000059DDC68296A20680DF000F9049EA96B15
:103F0000306060680DF0FAF87060A068296D0DF0FF
:103F1000F5F8B060E068A96E0DF0F0F88023F0606D
:103F20002069E95898460DF0E9F898233061E9587E
:103F300060690DF0E3F87061A069696A0DF0DEF860
:103F4000B061E069E96B0DF0D9F8F061206A696D44
:103F50000DF0D4F83062E96E606A0DF0CFF8842776
:103F60007062A06AE9590DF0C9F89C23B062E95863
:103F7000E06A0DF0C3F8F062206BA96A0DF0BEF89C
:103F80003063606B296C0DF0B9F87063A06BA96D9C
:103F90000DF0B4F8B063E06B296F0DF0AFF8F0638B
:103FA0008826206CA9590DF0A9F8049B1864A02359
:103FB000606CE9580DF0A2F8049BE96A5864A06CA3
:103FC0000DF09CF8049B696C9864E06C0DF096F819
:103FD000049BE96DD864206D0DF090F8049B696F27
:103FE0001865606D0DF08AF88C25049A059B506564
:103FF000A06D59590DF082F8A423049A9065059A92
:10400000E06DD1580DF07AF8049B059AD865116BD4
:10401000206E0DF073F8049B059A1866916C606E23
:104020000DF06CF8049B059A5866A06E116E0DF0A9
:1040300065F8049B059A9866E06E916F0DF05EF846
:10404000049B059AD8669023206FD1580DF056F83E
:10405000049B059A1867A823606FD1580DF04EF89D
:10406000049B059A5867A16F506B0DF047F8049BAD
:10407000059A9867E16FD06C0DF040F84146049BBB
:10408000059AD8676158506E0DF038F84146049B88
:10409000059A5850E159D06F0DF030F8049BD85173
:1040A0009423059FA159F8580DF028F8049B9851C6
:1040B000AC236159F8580DF021F8049B585199230D
:1040C0009B009D44F0BCBB46B246A946A046F0BD4D
:1040D000F0B5DE4657464E4645460400E0B5036956
:1040E00087B0580063694008590049080DF006F888
:1040F000E368590049080DF001F86368051C580091
:10410000A3684008590049080CF0F8FF23685900DB
:1041100049080CF0F3FF011C281C0CF0EFFFA36A08
:10412000051C5800E36A4008590049080CF0E6FFF6
:10413000636A590049080CF0E1FFE369061C580066
:10414000236A4008590049080CF0D8FFA3695900B8
:1041500049080CF0D3FF011C301C0CF0CFFF236C7E
:10416000071C5800636C4008590049080CF0C6FF52
:10417000E36B590049080CF0C1FF636B061C580043
:10418000A36B4008590049080CF0B8FF236B590095
:1041900049080CF0B3FF011C301C0CF0AFFF061CEB
:1041A000011C381C0CF0F8FF002800D13E1C311C0B
:1041B000281C0CF0F1FF002800D12E1CA36D580024
:1041C000E36D4008590049080CF098FF636D5900F1
:1041D00049080CF093FFE36C051C5800236D400860
:1041E000590049080CF08AFFA36C590049080CF0EB
:1041F00085FF011C281C0CF081FF236F071C580051
:10420000636F4008590049080CF078FFE36E5900CD
:1042100049080CF073FF636E051C5800A36E40083C
:10422000590049080CF06AFF236E590049080CF048
:1042300065FF011C281C0CF061FF88238046E058B4
:104240000433E15840004900490840080CF056FF8B
:104250008423E158490049080CF050FFE36F051C26
:1042600058008023E1584008490049080CF046FFF7
:10427000A36F590049080CF041FF011C281C0CF0E9
:104280003DFF051C011C40460CF086FF002800D1B4
:104290004546291C381C0CF07FFF002800D13D1C2E
:1042A000291C301C0CF078FF002800D1351CC023DD
:1042B0002100E55001AABA3B02A8A8310493029458
:1042C000FCF7A8FA0121C422019B98260B405B420F
:1042D0008B430133A354343A9246002250469C2724
:1042E00022509432A1509346923AA2510132E251A7
:1042F0009D32944660469C3A2250A03291469F3AA5
:1043000090464A4640462300A05048461832A258DC
:10431000903392009A181568255040461060604608
:10432000B8222058A2588046604692009A18156814
:10433000255040461060B422E059A25884469200AD
:104340009A1810685D46E05160461060B022A2588D
:10435000A75992009A181068A0511760AC225846CD
:10436000A258265892009A18106860511660A82228
:10437000A258554692009B1852461868A2586051A0
:104380001A60C523E15407B0F0BCBB46B246A9464B
:10439000A046F0BDC023002210B5C2500022043355
:1043A000C2520B68040003604B6843608B688360F3
:1043B000CB68C3600B6903614B6943618B6983619F
:1043C000CB69C3610B6A03624B6A43628B6A836287
:1043D000CB6AC3620B6B03634B6B43638B6B83636F
:1043E000CB6BC3630B6C03644B6C43648B6C836457
:1043F000CB6CC3640B6D03654B6D43658B6D83653F
:10440000CB6DC3650B6E03664B6E43668B6E836626
:10441000CB6EC3660B6F03674B6F43678B6F83670E
:10442000CB6FC3678023CA58C2500433CA58C250E6
:104430000433CA58C2500433CA58C250FFF748FE6A
:10444000200010BDF0B5DE464E4645465746E0B565
:10445000214C9146A5443AAA94460A0031931F4B39
:104460003B9063441B091B013A919846D3AB13CA96
:1044700013C313CA13C31268D3A91A60184B194A7D
:104480001B6847A80493184B47AC1B680193174B54
:104490001B6805930093049BFEF790FF47ABD393F3
:1044A0004B46D49347ABD5933AAA832394468620B0
:1044B0001B0163441B68C0004044A2AAD3A9D69341
:1044C0000990FFF735F96BAB089343460A934B46C7
:1044D0003094A1461C000BE014F7FFFF47030000D7
:1044E000F81603200AE81C41F0160320F4160320F6
:1044F0004B464E461B68B76F0493089B494640CB1A
:1045000048464A460893A823896C006E9569126B49
:1045100006910790E158301C05920CF006FE8C23A2
:104520008246E158381C0CF000FE011C50460CF08D
:10453000E5FD216F824607980CF0F7FD616D83461B
:1045400006980CF0F2FD011C58460CF0D7FD011C3A
:1045500050460CF0D3FDA16B824605980CF0E5FDAA
:10456000E1698346281C0CF0E0FD011C58460CF064
:10457000C5FD2168834604980CF0D7FD011C584600
:104580000CF0BCFD011C50460CF0B8FD4346186011
:10459000AC23301CE1580CF0C8FD90238246E15852
:1045A000381C0CF0C2FD011C50460CF0A7FD616FD9
:1045B000824607980CF0B9FDA16D834606980CF071
:1045C000B4FD011C58460CF099FD011C50460CF03E
:1045D00095FDE16B824605980CF0A7FD216A8346A4
:1045E000281C0CF0A2FD011C58460CF087FD6168E8
:1045F000834604980CF099FD011C58460CF07EFD92
:10460000011C50460CF07AFD43465860B023301C24
:10461000E1580CF08AFD94238246E158381C0CF0D6
:1046200084FD011C50460CF069FDA16F824607987D
:104630000CF07BFDE16D834606980CF076FD011CC5
:1046400058460CF05BFD011C50460CF057FD216CE8
:10465000824605980CF069FD616A8346281C0CF0BF
:1046600064FD011C58460CF049FDA168834604987E
:104670000CF05BFD011C58460CF040FD011C50463F
:104680000CF03CFD43469860B423301CE1580CF01C
:104690004CFD98238246E158381C0CF046FD011C65
:1046A00050460CF02BFDE16F824607980CF03DFD63
:1046B000216E834606980CF038FD011C58460CF01C
:1046C0001DFD011C50460CF019FD616C82460598D9
:1046D0000CF02BFDA16A8346281C0CF026FD011C62
:1046E00058460CF00BFDE168834604980CF01DFD64
:1046F000011C58460CF002FD011C50460CF0FEFC5B
:104700004346D860B823301CE1580CF00EFD9C23C2
:104710008246E158381C0CF008FD011C50460CF094
:10472000EDFC80238246E15807980CF0FEFC616E98
:10473000834606980CF0F9FC011C58460CF0DEFC90
:10474000011C50460CF0DAFCA16C824605980CF076
:10475000ECFCE16A8346281C0CF0E7FC011C58467F
:104760000CF0CCFC2169834604980CF0DEFC011CA3
:1047700058460CF0C3FC011C50460CF0BFFC4346ED
:104780001861BC23301CE1580CF0CFFCA0238246FA
:10479000E158381C0CF0C9FC011C50460CF0AEFC72
:1047A00084238246E15807980CF0BFFCA16E834633
:1047B00006980CF0BAFC011C58460CF09FFC011C3A
:1047C00050460CF09BFCE16C824605980CF0ADFC69
:1047D000216B8346281C0CF0A8FC011C58460CF0E9
:1047E0008DFC6169834604980CF09FFC011C5846BF
:1047F0000CF084FC011C50460CF080FC4346E16E3A
:10480000586106980CF091FC88238246E15807987D
:104810000CF08BFC011C50460CF070FCA42382466B
:10482000E158381C0CF081FCC023071CE158301CF7
:104830000CF07BFC011C381C0CF060FC011C504689
:104840000CF05CFC616B061C281C0CF06EFC216DEE
:10485000051C05980CF069FC011C281C0CF04EFC92
:10486000A169051C04980CF060FC011C281C0CF0CC
:1048700045FC011C301C0CF041FC434698610423AC
:104880009C461833E1449C464DABE0444B4500D078
:104890002EE60A9BA146D8249846A427A4004444A7
:1048A000BF00474420000999FFF774FD21009022C2
:1048B0003800C8240CF0E8FEFC21A4004444890020
:1048C0004144182220000CF0DFFECE208121800020
:1048D000C9004144182240440CF0D6FE8422D4235F
:1048E000D200424412689B0043441A60D523874A91
:1048F0004546424412889B004344FE211A8000230F
:104900002268B0359200AA1889051160936113637B
:10491000936413669367C922920042441268444626
:104920009200AA18136091611363936413669367EE
:10493000CA2292004244126806269200AA18136006
:1049400093611163936413669367CB229200424490
:10495000126806209200AA18136093611363916491
:1049600013669367CC229200424412689200AA1800
:10497000136093611363936411669367CD22920071
:10498000424412689200AA181360936113639364FF
:104990001366A8235B009B46916742465946E4187C
:1049A00020334344A660E660266153508022920083
:1049B00042444B396260924604933A0006230294C3
:1049C000FF3901960095FCF70BFF42465946049BC0
:1049D000A660E6602661535053464B3963603A0047
:1049E00006230294062001960095FF39FCF75CFB34
:1049F00043461B688C2207934346DB69D3AC08937C
:104A000043469B6B099343465B6D0A9343461B6F7A
:104A10000B9343469B5804320C9343465B681793B1
:104A200043461B6A18934346DB6B0D9343469B6DCD
:104A30000E9343465B6F0F9343469B58043210938B
:104A400043469B68119343465B6A129343461B6C33
:104A500013934346DB6D149343469B6F1593434674
:104A60009B58043216934346DB68199343469B6A6E
:104A7000069343465B6C1A9343461B6E1B93434657
:104A8000DB6F1C9343469B58183A1D9343461B69A2
:104A90001E934346DB6A1F9343469B6C2093434619
:104AA0005B6E219343469B581C32229343469B588E
:104AB000183A239343465B69249343461B6B259323
:104AC0004346DB6C269343469B6E279343469B5895
:104AD0001C32289343469B58183A299343469B69B6
:104AE0002A9343465B6B2B9343461B6D2C934346A3
:104AF000DB6E2D9343469B581C322E9343469B58A6
:104B0000A8462F934B46329302E0C046240400008F
:104B100043461F685B6842469946434641469B6848
:104B2000D2680E694D6908984946049305920CF0C5
:104B3000FCFA0499824609980CF0F7FA011C5046D9
:104B40000CF0DCFA391C824607980CF0EEFA011CD6
:104B500050460CF0D3FA311C82460B980CF0E5FA63
:104B6000291C83460C980CF0E0FA011C58460CF006
:104B7000C5FA059983460A980CF0D7FA011C5846E5
:104B80000CF0BCFA011C50460CF0B8FA4946206003
:104B900018980CF0CAFA049982460D980CF0C5FAE0
:104BA000011C50460CF0AAFA391C824617980CF0EA
:104BB000BCFA011C50460CF0A1FA311C82460F9839
:104BC0000CF0B3FA291C834610980CF0AEFA011CC5
:104BD00058460CF093FA059983460E980CF0A5FA06
:104BE000011C58460CF08AFA011C50460CF086FA5B
:104BF0004946606012980CF098FA0499824613981E
:104C00000CF093FA011C50460CF078FA391C8246DD
:104C100011980CF08AFA011C50460CF06FFA311C06
:104C2000824615980CF081FA291C834616980CF0E0
:104C30007CFA011C58460CF061FA059983461498D9
:104C40000CF073FA011C58460CF058FA011C50463F
:104C50000CF054FA4946A06006980CF066FA0499E4
:104C600082461A980CF061FA011C50460CF046FA84
:104C7000391C824619980CF058FA011C50460CF069
:104C80003DFA311C82461C980CF04FFA291C8346D1
:104C90001D980CF04AFA011C58460CF02FFA0599A1
:104CA00083461B980CF041FA011C58460CF026FA7A
:104CB000011C50460CF022FA4946E0601F980CF0A7
:104CC00034FA0499824620980CF02FFA011C5046C1
:104CD0000CF014FA391C82461E980CF026FA011CBE
:104CE00050460CF00BFA311C824622980CF01DFA4B
:104CF000291C834623980CF018FA011C58460CF026
:104D0000FDF90599834621980CF00FFA011C5846CD
:104D10000CF0F4F9011C50460CF0F0F94946206102
:104D200025980CF002FA0499824626980CF0FDF9B9
:104D3000011C50460CF0E2F9391C824624980CF014
:104D4000F4F9011C50460CF0D9F9311C8246289820
:104D50000CF0EBF9291C834629980CF0E6F9011CAC
:104D600058460CF0CBF90599834627980CF0DDF9ED
:104D7000011C58460CF0C2F9011C50460CF0BEF95B
:104D8000494660612B980CF0D0F9049981462C9823
:104D90000CF0CBF9011C48460CF0B0F9391C8146E7
:104DA0002A980CF0C2F9011C48460CF0A7F9311CF6
:104DB000071C2E980CF0B9F9291C061C2F980CF032
:104DC000B4F9011C301C0CF099F90599051C2D98BB
:104DD0000CF0ABF9011C281C0CF090F9011C381CDC
:104DE0000CF08CF918239C46A061FDAB1C34E04408
:104DF000A34200D08CE6329BD49A9946D39BD59996
:104E0000D69CD79DD89ED99F06930792DA9BDB9AB2
:104E100008910994DC99DD9C0A950B96DE9DDF9E36
:104E20000C970D93E09FE19B0E92E29A0F911094E4
:104E300011951296139714931592E399E49CE59DAE
:104E4000E69EE79FE89BE99A16911794EA99EB9CF6
:104E500018951996EC9DED9E1A971B93EE9FEF9B6C
:104E60001C921D91F09AF1991E94F29C2096219724
:104E700022932392249125941F95F39DF49EF59FF0
:104E8000F79AF69BF899F99C26952796FA9DFB9E32
:104E90002897FC9F2A923A9A29932B912C942D952E
:104EA0002E962F97D3AB32CA32C332CA32C311689F
:104EB000D3AC1960FD49FE4B09681B680191FD499F
:104EC000FD4A09682000009141A9FDF7D7FF319FF5
:104ED000419938680CF00FF94299834678680CF0D4
:104EE0000AF943998246B8680CF005F94499041C04
:104EF000F8680CF000F94599051C38690CF0FBF8CE
:104F00004699061C78690CF0F6F8071C011C2A98D3
:104F10000CF00BF9311C804623980CF006F9011CAB
:104F200040460CF0EBF8291C80461C980CF0FDF86C
:104F3000011C40460CF0E2F8211C804615980CF04C
:104F4000F4F8514604900E980CF0EFF8011C049808
:104F50000CF0D4F85946049007980CF0E6F8011CC0
:104F600004980CF0CBF8011C40460CF0C7F83A9AB4
:104F700051680CF0C3F8391C04902B980CF0D5F84C
:104F8000311C804624980CF0D0F8011C40460CF0EF
:104F9000B5F8291C80461D980CF0C7F8011C404646
:104FA0000CF0ACF8211C804616980CF0BEF8514667
:104FB00005900F980CF0B9F8011C05980CF09EF8BC
:104FC0005946059008980CF0B0F8011C05980CF0B3
:104FD00095F8011C40460CF091F83A9A91680CF053
:104FE0008DF8391C05902C980CF09FF8311C8046E8
:104FF00025980CF09AF8011C40460CF07FF8291C0B
:1050000080461E980CF091F8011C40460CF076F892
:10501000211C804617980CF088F851463190109862
:105020000CF083F8011C31980CF068F85946319067
:1050300009980CF07AF8011C31980CF05FF8011C0B
:1050400040460CF05BF83A9AD1680CF057F8391CDE
:1050500031902D980CF069F8311C804626980CF0A0
:1050600064F8011C40460CF049F8291C80461F9842
:105070000CF05BF8011C40460CF040F8211C804607
:1050800018980CF052F85146329011980CF04DF8E7
:10509000011C32980CF032F8594632900A980CF004
:1050A00044F8011C32980CF029F8011C40460CF021
:1050B00025F83A9A11690CF021F8391C32902E9893
:1050C0000CF033F8311C804627980CF02EF8011CA8
:1050D00040460CF013F8291C804620980CF025F867
:1050E000011C40460CF00AF8211C804619980CF06F
:1050F0001CF85146339012980CF017F8011C3398A5
:105100000BF0FCFF594633900B980CF00EF8011C85
:1051100033980BF0F3FF011C40460BF0EFFF3A9A77
:1051200051690BF0EBFF5146339013980BF0FDFFE4
:10513000211C80461A980BF0F8FF011C40460BF02A
:10514000DDFF594680460C980BF0EFFF011C4046EE
:105150000BF0D4FF311C804628980BF0E6FF391C79
:1051600034902F980BF0E1FF011C34980BF0C6FF30
:10517000291C349021980BF0D8FF011C34980BF0B7
:10518000BDFF011C40460BF0B9FF3A9A91690BF044
:10519000B5FF391C804629980BF0C7FF311C071C4E
:1051A00022980BF0C2FF011C381C0BF0A7FF291C32
:1051B000061C1B980BF0B9FF011C301C0BF09EFF66
:1051C000211C051C14980BF0B0FF5146041C0D98CF
:1051D0000BF0ABFF011C201C0BF090FF5946041C88
:1051E00006980BF0A2FF011C201C0BF087FF011C8E
:1051F000281C0BF083FF3A9AD3AC11680BF07EFFAA
:105200003B9B049A18605A60059A9A60319ADA605A
:10521000329A1A61339A5A6142469A614B461B6828
:105220004A46A2934B465B68A3934B469B68A49364
:105230004B46DB68A5934B461B69A6934B465B69BF
:10524000A7934B469B69A8934B46DB69A9934B46B2
:105250001B6AAA934B465B6AAB934B469B6AAC9323
:105260004B46DB6AAD934B461B6BAE934B465B6B79
:10527000AF934B469B6BB0934B46DB6BB1934B4666
:105280001B6CB2934B465B6CB3934B469B6CB493D5
:105290004B46DB6CB5934B461B6DB6934B465B6D33
:1052A000B7934B469B6DB8934B4607E0F01603202F
:1052B000F8160320F41603200AE81C41DB6DB993AD
:1052C0004B461B6EBA934B465B6EBB934B469B6E35
:1052D000BC934B46DB6EBD934B461B6FBE934B4658
:1052E0005B6FBF934B469B6FC0934B46DB6FC19385
:1052F0008023D358C2938423D358C3938823D3588D
:10530000C4938C23D358C5939023D358C693942326
:10531000D358C7939823D358C8939C23D358C99381
:10532000A023D358CA93A423D358CB93A823D358EC
:10533000CC93AC23D358CD93B023D358CE93B4237E
:10534000D358CF93B823D358D093BC23D358D193F9
:10535000C023D358D293309B3092984643461F685F
:105360005B6842469946434641469B68D2680E694F
:105370004D690D984946049305920BF0D6FE0499A9
:10538000824614980BF0D1FE011C50460BF0B6FE7D
:10539000391C824606980BF0C8FE011C50460BF0E3
:1053A000ADFE311C824622980BF0BFFE291C8346BD
:1053B00029980BF0BAFE011C58460BF09FFE059988
:1053C00083461B980BF0B1FE011C58460BF096FE6D
:1053D000011C50460BF092FE494620600E980BF0DF
:1053E000A4FE0499824615980BF09FFE011C5046BE
:1053F0000BF084FE391C824607980BF096FE011CC8
:1054000050460BF07BFE311C824623980BF08DFE3C
:10541000291C83462A980BF088FE011C58460BF085
:105420006DFE059983461C980BF07FFE011C5846C3
:105430000BF064FE011C50460BF060FE49466060B4
:105440000F980BF072FE0499824616980BF06DFED1
:10545000011C50460BF052FE391C824608980BF096
:1054600064FE011C50460BF049FE311C8246249814
:105470000BF05BFE291C83462B980BF056FE011C9B
:1054800058460BF03BFE059983461D980BF04DFEE8
:10549000011C58460BF032FE011C50460BF02EFE4C
:1054A0004946A06010980BF040FE04998246179878
:1054B0000BF03BFE011C50460BF020FE391C8246CF
:1054C00009980BF032FE011C50460BF017FE311C00
:1054D000824625980BF029FE291C83462C980BF058
:1054E00024FE011C58460BF009FE059983461E98C0
:1054F0000BF01BFE011C58460BF000FE011C504631
:105500000BF0FCFD4946E06011980BF00EFE04998B
:10551000824618980BF009FE011C50460BF0EEFD78
:10552000391C82460A980BF000FE011C50460BF015
:10553000E5FD311C824626980BF0F7FD291C8346B9
:105540002D980BF0F2FD011C58460BF0D7FD059984
:1055500083461F980BF0E9FD011C58460BF0CEFD69
:10556000011C50460BF0CAFD4946206112980BF011
:10557000DCFD0499824619980BF0D7FD011C5046BA
:105580000BF0BCFD391C82460B980BF0CEFD011CC4
:1055900050460BF0B3FD311C824627980BF0C5FD39
:1055A000291C83462E980BF0C0FD011C58460BF0B9
:1055B000A5FD0599834620980BF0B7FD011C5846C0
:1055C0000BF09CFD011C50460BF098FD49466061B4
:1055D00013980BF0AAFD049981461A980BF0A5FDCB
:1055E000011C48460BF08AFD391C81460C980BF0D3
:1055F0009CFD011C48460BF081FD311C071C2898BE
:105600000BF093FD291C061C2F980BF08EFD011C3E
:10561000301C0BF073FD0599051C21980BF085FDDE
:10562000011C281C0BF06AFD011C381C0BF066FDE8
:1056300018239C46FFABA06114331C34E044A34202
:1056400000D08BE6309BA2AD99463C93C4234C46D8
:10565000C8464B44089307944246D26843464146A5
:10566000914642469E694C68096892685F691B6969
:105670000491301CFD99069305920BF056FDF699A6
:105680008246381C0BF051FD011C50460BF036FDD4
:10569000EF99824606980BF048FDE8998346484604
:1056A0000BF043FD011C58460BF028FD011C504631
:1056B0000BF024FDE199824605980BF036FDDA994E
:1056C0008346201C0BF031FD011C58460BF016FDE3
:1056D000D399834604980BF028FD011C58460BF023
:1056E0000DFD011C50460BF009FD011C28680BF054
:1056F00002FD2860FE99301C0BF017FDF7998246D9
:10570000381C0BF012FD011C50460BF0F7FCF09911
:10571000824606980BF009FDE999834648460BF04E
:1057200004FD011C58460BF0E9FC011C50460BF02F
:10573000E5FCE299824605980BF0F7FCDB9983467D
:10574000201C0BF0F2FC011C58460BF0D7FCD4993E
:10575000834604980BF0E9FC011C58460BF0CEFC84
:10576000011C50460BF0CAFC011C68680BF0C3FC1E
:10577000FF996860301C0BF0D8FCF8998246381C01
:105780000BF0D3FC011C50460BF0B8FCF19982469B
:1057900006980BF0CAFCEA99834648460BF0C5FC14
:1057A000011C58460BF0AAFC011C50460BF0A6FC4D
:1057B000E399824605980BF0B8FCDC998346201CDF
:1057C0000BF0B3FC011C58460BF098FCD5998346AE
:1057D00004980BF0AAFC011C58460BF08FFC011C2E
:1057E00050460BF08BFC011CA8680BF084FCFFAB4F
:1057F0005968A860301C04330BF097FCF999824675
:10580000381C0BF092FC011C50460BF077FCF2990F
:10581000824606980BF089FCEB99834648460BF0CC
:1058200084FC011C58460BF069FC011C50460BF02F
:1058300065FCE499824605980BF077FCDD99834678
:10584000201C0BF072FC011C58460BF057FCD6993B
:10585000834604980BF069FC011C58460BF04EFC83
:10586000011C50460BF04AFC011CE8680BF043FC9D
:10587000FFAB9968E860301C08330BF056FCFA99CE
:105880008246381C0BF051FC011C50460BF036FCD4
:10589000F399824606980BF048FCEC9983464846FB
:1058A0000BF043FC011C58460BF028FC011C504631
:1058B0000BF024FCE599824605980BF036FCDE9946
:1058C0008346201C0BF031FC011C58460BF016FCE3
:1058D000D799834604980BF028FC011C58460BF01E
:1058E0000DFC011C50460BF009FC011C28690BF053
:1058F00002FCFFABD9682861301C0C330BF015FC9F
:10590000FB998246381C0BF010FC011C50460BF032
:10591000F5FBF499824606980BF007FCED99834657
:1059200048460BF002FC011C58460BF0E7FB011C3B
:1059300050460BF0E3FBE699824605980BF0F5FB29
:10594000DF998346201C0BF0F0FB011C58460BF03E
:10595000D5FBD899834604980BF0E7FB011C584609
:105960000BF0CCFB011C50460BF0C8FB011C686916
:105970000BF0C1FBEE99686148460BF0D6FBF59938
:10598000814606980BF0D1FB011C48460BF0B6FB94
:10599000FC998146381C0BF0C8FBFFAB1969071C4A
:1059A000301C10330BF0C1FB011C381C0BF0A6FBA4
:1059B000011C48460BF0A2FBE099061C201C0BF0D2
:1059C000B4FBE799041C05980BF0AFFB011C201CED
:1059D0000BF094FBD999041C04980BF0A6FB011C56
:1059E000201C0BF08BFB011C301C0BF087FB011CF7
:1059F000A8690BF080FB1C239C46089BE044A8612F
:105A00001C35984500D027E6079BA29A99461A6054
:105A1000A39A5A60A49A9A60A59ADA60A69A1A6123
:105A2000A79A5A61A89A9A61A99ADA61AA9A1A62FF
:105A3000AB9A5A62AC9A9A62AD9ADA62AE9A1A63DB
:105A4000AF9A5A63B09A9A63B19ADA63B29A1A64B7
:105A5000B39A5A64B49A9A64B59ADA64B69A1A6593
:105A6000B79A5A65B89A9A65B99ADA65BA9A1A666F
:105A7000BB9A5A66BC9A9A66BD9ADA66BE9A1A674B
:105A8000BF9A5A67C09A9A67C19ADA674A468023D2
:105A9000C299D150C3990433D150C4990433D15021
:105AA000C5990433D150C6990433D150C7990433F2
:105AB000D150C8990433D150C9990433D150CA99EF
:105AC0000433D150CB990433D150CC990433D15005
:105AD000CD990433D150CE990433D150CF990433AA
